{
  "_format": "hh-sol-artifact-1",
  "contractName": "CarbonSealOracle",
  "sourceName": "contracts/CarbonSealOracle.sol",
  "abi": [
    {
      "inputs": [
        {
          "internalType": "address",
          "name": "_carbonPriceFeed",
          "type": "address"
        }
      ],
      "stateMutability": "nonpayable",
      "type": "constructor"
    },
    {
      "inputs": [],
      "name": "AccessControlBadConfirmation",
      "type": "error"
    },
    {
      "inputs": [
        {
          "internalType": "address",
          "name": "account",
          "type": "address"
        },
        {
          "internalType": "bytes32",
          "name": "neededRole",
          "type": "bytes32"
        }
      ],
      "name": "AccessControlUnauthorizedAccount",
      "type": "error"
    },
    {
      "anonymous": false,
      "inputs": [
        {
          "indexed": true,
          "internalType": "bytes32",
          "name": "proofHash",
          "type": "bytes32"
        },
        {
          "indexed": true,
          "internalType": "address",
          "name": "verifier",
          "type": "address"
        },
        {
          "indexed": false,
          "internalType": "uint256",
          "name": "timestamp",
          "type": "uint256"
        }
      ],
      "name": "DataVerified",
      "type": "event"
    },
    {
      "anonymous": false,
      "inputs": [
        {
          "indexed": false,
          "internalType": "int256",
          "name": "price",
          "type": "int256"
        },
        {
          "indexed": false,
          "internalType": "uint256",
          "name": "timestamp",
          "type": "uint256"
        }
      ],
      "name": "PriceUpdated",
      "type": "event"
    },
    {
      "anonymous": false,
      "inputs": [
        {
          "indexed": true,
          "internalType": "bytes32",
          "name": "role",
          "type": "bytes32"
        },
        {
          "indexed": true,
          "internalType": "bytes32",
          "name": "previousAdminRole",
          "type": "bytes32"
        },
        {
          "indexed": true,
          "internalType": "bytes32",
          "name": "newAdminRole",
          "type": "bytes32"
        }
      ],
      "name": "RoleAdminChanged",
      "type": "event"
    },
    {
      "anonymous": false,
      "inputs": [
        {
          "indexed": true,
          "internalType": "bytes32",
          "name": "role",
          "type": "bytes32"
        },
        {
          "indexed": true,
          "internalType": "address",
          "name": "account",
          "type": "address"
        },
        {
          "indexed": true,
          "internalType": "address",
          "name": "sender",
          "type": "address"
        }
      ],
      "name": "RoleGranted",
      "type": "event"
    },
    {
      "anonymous": false,
      "inputs": [
        {
          "indexed": true,
          "internalType": "bytes32",
          "name": "role",
          "type": "bytes32"
        },
        {
          "indexed": true,
          "internalType": "address",
          "name": "account",
          "type": "address"
        },
        {
          "indexed": true,
          "internalType": "address",
          "name": "sender",
          "type": "address"
        }
      ],
      "name": "RoleRevoked",
      "type": "event"
    },
    {
      "inputs": [],
      "name": "DEFAULT_ADMIN_ROLE",
      "outputs": [
        {
          "internalType": "bytes32",
          "name": "",
          "type": "bytes32"
        }
      ],
      "stateMutability": "view",
      "type": "function"
    },
    {
      "inputs": [
        {
          "internalType": "string",
          "name": "_source",
          "type": "string"
        },
        {
          "internalType": "bool",
          "name": "_trusted",
          "type": "bool"
        }
      ],
      "name": "addDataSource",
      "outputs": [],
      "stateMutability": "nonpayable",
      "type": "function"
    },
    {
      "inputs": [],
      "name": "getCarbonPrice",
      "outputs": [
        {
          "internalType": "int256",
          "name": "",
          "type": "int256"
        }
      ],
      "stateMutability": "view",
      "type": "function"
    },
    {
      "inputs": [
        {
          "internalType": "bytes32",
          "name": "role",
          "type": "bytes32"
        }
      ],
      "name": "getRoleAdmin",
      "outputs": [
        {
          "internalType": "bytes32",
          "name": "",
          "type": "bytes32"
        }
      ],
      "stateMutability": "view",
      "type": "function"
    },
    {
      "inputs": [
        {
          "internalType": "bytes32",
          "name": "role",
          "type": "bytes32"
        },
        {
          "internalType": "address",
          "name": "account",
          "type": "address"
        }
      ],
      "name": "grantRole",
      "outputs": [],
      "stateMutability": "nonpayable",
      "type": "function"
    },
    {
      "inputs": [
        {
          "internalType": "bytes32",
          "name": "role",
          "type": "bytes32"
        },
        {
          "internalType": "address",
          "name": "account",
          "type": "address"
        }
      ],
      "name": "hasRole",
      "outputs": [
        {
          "internalType": "bool",
          "name": "",
          "type": "bool"
        }
      ],
      "stateMutability": "view",
      "type": "function"
    },
    {
      "inputs": [
        {
          "internalType": "bytes32",
          "name": "_proofHash",
          "type": "bytes32"
        }
      ],
      "name": "isProofVerified",
      "outputs": [
        {
          "internalType": "bool",
          "name": "",
          "type": "bool"
        }
      ],
      "stateMutability": "view",
      "type": "function"
    },
    {
      "inputs": [
        {
          "internalType": "bytes32",
          "name": "role",
          "type": "bytes32"
        },
        {
          "internalType": "address",
          "name": "callerConfirmation",
          "type": "address"
        }
      ],
      "name": "renounceRole",
      "outputs": [],
      "stateMutability": "nonpayable",
      "type": "function"
    },
    {
      "inputs": [
        {
          "internalType": "bytes32",
          "name": "role",
          "type": "bytes32"
        },
        {
          "internalType": "address",
          "name": "account",
          "type": "address"
        }
      ],
      "name": "revokeRole",
      "outputs": [],
      "stateMutability": "nonpayable",
      "type": "function"
    },
    {
      "inputs": [
        {
          "internalType": "bytes4",
          "name": "interfaceId",
          "type": "bytes4"
        }
      ],
      "name": "supportsInterface",
      "outputs": [
        {
          "internalType": "bool",
          "name": "",
          "type": "bool"
        }
      ],
      "stateMutability": "view",
      "type": "function"
    },
    {
      "inputs": [
        {
          "internalType": "string",
          "name": "",
          "type": "string"
        }
      ],
      "name": "verifiedDataSources",
      "outputs": [
        {
          "internalType": "bool",
          "name": "",
          "type": "bool"
        }
      ],
      "stateMutability": "view",
      "type": "function"
    },
    {
      "inputs": [
        {
          "internalType": "bytes32",
          "name": "",
          "type": "bytes32"
        }
      ],
      "name": "verifiedProofs",
      "outputs": [
        {
          "internalType": "bool",
          "name": "",
          "type": "bool"
        }
      ],
      "stateMutability": "view",
      "type": "function"
    },
    {
      "inputs": [
        {
          "internalType": "bytes32",
          "name": "_dataHash",
          "type": "bytes32"
        },
        {
          "internalType": "string",
          "name": "_source",
          "type": "string"
        }
      ],
      "name": "verifySatelliteData",
      "outputs": [],
      "stateMutability": "nonpayable",
      "type": "function"
    }
  ],
  "bytecode": "0x608060405234801561001057600080fd5b50604051610c3d380380610c3d83398101604081905261002f916101b8565b61003a60003361010c565b506001600160a01b0381161561006657600180546001600160a01b0319166001600160a01b0383161790555b60016002604051610087906939b2b73a34b732b6169960b11b8152600a0190565b90815260408051918290036020018220805493151560ff199485161790556a706c616e65742d6c61627360a81b82526002600b8301819052815192839003602b0183208054851660019081179091556d736f696c2d73656e736f722d763160901b8452600e840191909152905191829003602e019091208054909216179055506101e8565b6000828152602081815260408083206001600160a01b038516845290915281205460ff166101ae576000838152602081815260408083206001600160a01b03861684529091529020805460ff191660011790556101663390565b6001600160a01b0316826001600160a01b0316847f2f8788117e7eff1d82e926ec794901d17c78024a50270940304540a733656f0d60405160405180910390a45060016101b2565b5060005b92915050565b6000602082840312156101ca57600080fd5b81516001600160a01b03811681146101e157600080fd5b9392505050565b610a46806101f76000396000f3fe608060405234801561001057600080fd5b50600436106100df5760003560e01c8063473994681161008c57806391d148541161006657806391d14854146101f4578063a217fddf1461022b578063d547741f14610233578063f580c8461461024657600080fd5b806347399468146101ab5780634f06c385146101be57806389851e98146101ec57600080fd5b80632f2ff15d116100bd5780632f2ff15d1461016057806336568abe1461017557806342c8fd001461018857600080fd5b806301ffc9a7146100e4578063176d80c41461010c578063248a9ca31461012f575b600080fd5b6100f76100f2366004610748565b610259565b60405190151581526020015b60405180910390f35b6100f761011a366004610791565b60036020526000908152604090205460ff1681565b61015261013d366004610791565b60009081526020819052604090206001015490565b604051908152602001610103565b61017361016e3660046107aa565b6102f2565b005b6101736101833660046107aa565b61031d565b6100f7610196366004610791565b60009081526003602052604090205460ff1690565b6101736101b93660046108a2565b61036e565b6100f76101cc3660046108ee565b805160208183018101805160028252928201919093012091525460ff1681565b6101526103af565b6100f76102023660046107aa565b6000918252602082815260408084206001600160a01b0393909316845291905290205460ff1690565b610152600081565b6101736102413660046107aa565b61045e565b61017361025436600461092b565b610483565b60007fffffffff0000000000000000000000000000000000000000000000000000000082167f7965db0b0000000000000000000000000000000000000000000000000000000014806102ec57507f01ffc9a7000000000000000000000000000000000000000000000000000000007fffffffff000000000000000000000000000000000000000000000000000000008316145b92915050565b60008281526020819052604090206001015461030d8161059e565b61031783836105ab565b50505050565b6001600160a01b038116331461035f576040517f6697b23200000000000000000000000000000000000000000000000000000000815260040160405180910390fd5b6103698282610655565b505050565b60006103798161059e565b8160028460405161038a9190610972565b908152604051908190036020019020805491151560ff19909216919091179055505050565b6001546000906001600160a01b03166103cc575064012a05f20090565b600154604080517ffeaf968c00000000000000000000000000000000000000000000000000000000815290516000926001600160a01b03169163feaf968c9160048083019260a09291908290030181865afa15801561042f573d6000803e3d6000fd5b505050506040513d601f19601f8201168201806040525081019061045391906109c0565b509195945050505050565b6000828152602081905260409020600101546104798161059e565b6103178383610655565b600061048e8161059e565b60028260405161049e9190610972565b9081526040519081900360200190205460ff16610542576040517f08c379a000000000000000000000000000000000000000000000000000000000815260206004820152602360248201527f436172626f6e5365616c4f7261636c653a20556e766572696669656420736f7560448201527f726365000000000000000000000000000000000000000000000000000000000060648201526084015b60405180910390fd5b60008381526003602052604090819020805460ff1916600117905551339084907f7df0fb0779da528ae86247717d73c280e9532315b88d0d9d108ed097aba637bb906105919042815260200190565b60405180910390a3505050565b6105a881336106d8565b50565b6000828152602081815260408083206001600160a01b038516845290915281205460ff1661064d576000838152602081815260408083206001600160a01b03861684529091529020805460ff191660011790556106053390565b6001600160a01b0316826001600160a01b0316847f2f8788117e7eff1d82e926ec794901d17c78024a50270940304540a733656f0d60405160405180910390a45060016102ec565b5060006102ec565b6000828152602081815260408083206001600160a01b038516845290915281205460ff161561064d576000838152602081815260408083206001600160a01b0386168085529252808320805460ff1916905551339286917ff6391f5c32d9c69d2a47ea670b442974b53935d1edc7fd64eb21e047a839171b9190a45060016102ec565b6000828152602081815260408083206001600160a01b038516845290915290205460ff16610744576040517fe2517d3f0000000000000000000000000000000000000000000000000000000081526001600160a01b038216600482015260248101839052604401610539565b5050565b60006020828403121561075a57600080fd5b81357fffffffff000000000000000000000000000000000000000000000000000000008116811461078a57600080fd5b9392505050565b6000602082840312156107a357600080fd5b5035919050565b600080604083850312156107bd57600080fd5b8235915060208301356001600160a01b03811681146107db57600080fd5b809150509250929050565b7f4e487b7100000000000000000000000000000000000000000000000000000000600052604160045260246000fd5b600082601f83011261082657600080fd5b813567ffffffffffffffff80821115610841576108416107e6565b604051601f8301601f19908116603f01168101908282118183101715610869576108696107e6565b8160405283815286602085880101111561088257600080fd5b836020870160208301376000602085830101528094505050505092915050565b600080604083850312156108b557600080fd5b823567ffffffffffffffff8111156108cc57600080fd5b6108d885828601610815565b925050602083013580151581146107db57600080fd5b60006020828403121561090057600080fd5b813567ffffffffffffffff81111561091757600080fd5b61092384828501610815565b949350505050565b6000806040838503121561093e57600080fd5b82359150602083013567ffffffffffffffff81111561095c57600080fd5b61096885828601610815565b9150509250929050565b6000825160005b818110156109935760208186018101518583015201610979565b506000920191825250919050565b805169ffffffffffffffffffff811681146109bb57600080fd5b919050565b600080600080600060a086880312156109d857600080fd5b6109e1866109a1565b9450602086015193506040860151925060608601519150610a04608087016109a1565b9050929550929590935056fea2646970667358221220b0163b8dc549a5524654ed1ea6efab4117d951611fd743ec58b9a9f0265a91b064736f6c63430008140033",
  "linkReferences": {},
  "deployedLinkReferences": {}
}