{"contracts/CarbonSealRegistry.sol":{"CarbonSealRegistry":{"abi":[{"inputs":[],"stateMutability":"nonpayable","type":"constructor"},{"inputs":[],"name":"AccessControlBadConfirmation","type":"error"},{"inputs":[{"internalType":"address","name":"account","type":"address"},{"internalType":"bytes32","name":"neededRole","type":"bytes32"}],"name":"AccessControlUnauthorizedAccount","type":"error"},{"anonymous":false,"inputs":[{"indexed":true,"internalType":"uint256","name":"farmId","type":"uint256"},{"indexed":true,"internalType":"uint256","name":"readingId","type":"uint256"},{"indexed":false,"internalType":"uint256","name":"amount","type":"uint256"},{"indexed":false,"internalType":"string","name":"source","type":"string"},{"indexed":false,"internalType":"string","name":"verificationHash","type":"string"}],"name":"CarbonAdded","type":"event"},{"anonymous":false,"inputs":[{"indexed":true,"internalType":"uint256","name":"farmId","type":"uint256"},{"indexed":false,"internalType":"uint256","name":"newDebt","type":"uint256"},{"indexed":false,"internalType":"uint256","name":"availableCarbon","type":"uint256"}],"name":"CarbonDebtUpdated","type":"event"},{"anonymous":false,"inputs":[{"indexed":true,"internalType":"address","name":"farmer","type":"address"},{"indexed":true,"internalType":"uint256","name":"farmId","type":"uint256"},{"indexed":false,"internalType":"string","name":"name","type":"string"},{"indexed":false,"internalType":"uint256","name":"area","type":"uint256"},{"indexed":false,"internalType":"string","name":"location","type":"string"}],"name":"FarmRegistered","type":"event"},{"anonymous":false,"inputs":[{"indexed":true,"internalType":"bytes32","name":"role","type":"bytes32"},{"indexed":true,"internalType":"bytes32","name":"previousAdminRole","type":"bytes32"},{"indexed":true,"internalType":"bytes32","name":"newAdminRole","type":"bytes32"}],"name":"RoleAdminChanged","type":"event"},{"anonymous":false,"inputs":[{"indexed":true,"internalType":"bytes32","name":"role","type":"bytes32"},{"indexed":true,"internalType":"address","name":"account","type":"address"},{"indexed":true,"internalType":"address","name":"sender","type":"address"}],"name":"RoleGranted","type":"event"},{"anonymous":false,"inputs":[{"indexed":true,"internalType":"bytes32","name":"role","type":"bytes32"},{"indexed":true,"internalType":"address","name":"account","type":"address"},{"indexed":true,"internalType":"address","name":"sender","type":"address"}],"name":"RoleRevoked","type":"event"},{"inputs":[],"name":"DEFAULT_ADMIN_ROLE","outputs":[{"internalType":"bytes32","name":"","type":"bytes32"}],"stateMutability":"view","type":"function"},{"inputs":[],"name":"MIN_CARBON_TO_MINT","outputs":[{"internalType":"uint256","name":"","type":"uint256"}],"stateMutability":"view","type":"function"},{"inputs":[],"name":"ORACLE_ROLE","outputs":[{"internalType":"bytes32","name":"","type":"bytes32"}],"stateMutability":"view","type":"function"},{"inputs":[],"name":"PRECISION","outputs":[{"internalType":"uint256","name":"","type":"uint256"}],"stateMutability":"view","type":"function"},{"inputs":[],"name":"VERIFIER_ROLE","outputs":[{"internalType":"bytes32","name":"","type":"bytes32"}],"stateMutability":"view","type":"function"},{"inputs":[{"internalType":"uint256","name":"_farmId","type":"uint256"}],"name":"activateFarm","outputs":[],"stateMutability":"nonpayable","type":"function"},{"inputs":[{"internalType":"uint256","name":"_farmId","type":"uint256"},{"internalType":"uint256","name":"_amount","type":"uint256"},{"internalType":"string","name":"_source","type":"string"},{"internalType":"string","name":"_verificationHash","type":"string"}],"name":"addCarbonReading","outputs":[{"internalType":"uint256","name":"","type":"uint256"}],"stateMutability":"nonpayable","type":"function"},{"inputs":[{"internalType":"uint256","name":"_farmId","type":"uint256"},{"internalType":"uint256[]","name":"_amounts","type":"uint256[]"},{"internalType":"string[]","name":"_sources","type":"string[]"},{"internalType":"string[]","name":"_verificationHashes","type":"string[]"}],"name":"addCarbonReadingsBatch","outputs":[{"internalType":"uint256[]","name":"","type":"uint256[]"}],"stateMutability":"nonpayable","type":"function"},{"inputs":[{"internalType":"uint256","name":"_farmId","type":"uint256"},{"internalType":"uint256","name":"_tokenId","type":"uint256"}],"name":"addCreditToFarm","outputs":[],"stateMutability":"nonpayable","type":"function"},{"inputs":[{"internalType":"address","name":"","type":"address"}],"name":"addressToFarmId","outputs":[{"internalType":"uint256","name":"","type":"uint256"}],"stateMutability":"view","type":"function"},{"inputs":[{"internalType":"uint256","name":"_farmId","type":"uint256"}],"name":"deactivateFarm","outputs":[],"stateMutability":"nonpayable","type":"function"},{"inputs":[],"name":"farmCounter","outputs":[{"internalType":"uint256","name":"","type":"uint256"}],"stateMutability":"view","type":"function"},{"inputs":[{"internalType":"uint256","name":"","type":"uint256"},{"internalType":"uint256","name":"","type":"uint256"}],"name":"farmCredits","outputs":[{"internalType":"uint256","name":"","type":"uint256"}],"stateMutability":"view","type":"function"},{"inputs":[{"internalType":"uint256","name":"","type":"uint256"},{"internalType":"uint256","name":"","type":"uint256"}],"name":"farmReadings","outputs":[{"internalType":"uint256","name":"readingId","type":"uint256"},{"internalType":"uint256","name":"farmId","type":"uint256"},{"internalType":"uint256","name":"amount","type":"uint256"},{"internalType":"string","name":"source","type":"string"},{"internalType":"string","name":"verificationHash","type":"string"},{"internalType":"uint256","name":"timestamp","type":"uint256"},{"internalType":"address","name":"verifiedBy","type":"address"}],"stateMutability":"view","type":"function"},{"inputs":[{"internalType":"uint256","name":"","type":"uint256"}],"name":"farms","outputs":[{"internalType":"uint256","name":"farmId","type":"uint256"},{"internalType":"address","name":"farmer","type":"address"},{"internalType":"string","name":"name","type":"string"},{"internalType":"uint256","name":"area","type":"uint256"},{"internalType":"string","name":"location","type":"string"},{"internalType":"string","name":"soilType","type":"string"},{"internalType":"uint256","name":"totalCarbon","type":"uint256"},{"internalType":"uint256","name":"carbonDebt","type":"uint256"},{"internalType":"uint256","name":"lastReadingTimestamp","type":"uint256"},{"internalType":"bool","name":"isActive","type":"bool"},{"internalType":"uint256","name":"createdAt","type":"uint256"}],"stateMutability":"view","type":"function"},{"inputs":[],"name":"getActiveFarmers","outputs":[{"internalType":"address[]","name":"","type":"address[]"}],"stateMutability":"view","type":"function"},{"inputs":[{"internalType":"uint256","name":"_farmId","type":"uint256"}],"name":"getAvailableCarbon","outputs":[{"internalType":"uint256","name":"","type":"uint256"}],"stateMutability":"view","type":"function"},{"inputs":[{"internalType":"address","name":"_farmer","type":"address"}],"name":"getFarmByAddress","outputs":[{"components":[{"internalType":"uint256","name":"farmId","type":"uint256"},{"internalType":"address","name":"farmer","type":"address"},{"internalType":"string","name":"name","type":"string"},{"internalType":"uint256","name":"area","type":"uint256"},{"internalType":"string","name":"location","type":"string"},{"internalType":"string","name":"soilType","type":"string"},{"internalType":"uint256","name":"totalCarbon","type":"uint256"},{"internalType":"uint256","name":"carbonDebt","type":"uint256"},{"internalType":"uint256","name":"lastReadingTimestamp","type":"uint256"},{"internalType":"bool","name":"isActive","type":"bool"},{"internalType":"uint256","name":"createdAt","type":"uint256"}],"internalType":"struct CarbonSealRegistry.Farm","name":"","type":"tuple"}],"stateMutability":"view","type":"function"},{"inputs":[{"internalType":"uint256","name":"_farmId","type":"uint256"}],"name":"getFarmStats","outputs":[{"internalType":"uint256","name":"totalCarbon","type":"uint256"},{"internalType":"uint256","name":"carbonDebt","type":"uint256"},{"internalType":"uint256","name":"availableCarbon","type":"uint256"},{"internalType":"uint256","name":"readingCount","type":"uint256"},{"internalType":"uint256","name":"creditCount","type":"uint256"},{"internalType":"uint256","name":"lastUpdate","type":"uint256"}],"stateMutability":"view","type":"function"},{"inputs":[{"internalType":"uint256","name":"_farmId","type":"uint256"},{"internalType":"uint256","name":"_count","type":"uint256"}],"name":"getRecentReadings","outputs":[{"components":[{"internalType":"uint256","name":"readingId","type":"uint256"},{"internalType":"uint256","name":"farmId","type":"uint256"},{"internalType":"uint256","name":"amount","type":"uint256"},{"internalType":"string","name":"source","type":"string"},{"internalType":"string","name":"verificationHash","type":"string"},{"internalType":"uint256","name":"timestamp","type":"uint256"},{"internalType":"address","name":"verifiedBy","type":"address"}],"internalType":"struct CarbonSealRegistry.CarbonReading[]","name":"","type":"tuple[]"}],"stateMutability":"view","type":"function"},{"inputs":[{"internalType":"bytes32","name":"role","type":"bytes32"}],"name":"getRoleAdmin","outputs":[{"internalType":"bytes32","name":"","type":"bytes32"}],"stateMutability":"view","type":"function"},{"inputs":[],"name":"getTotalFarms","outputs":[{"internalType":"uint256","name":"","type":"uint256"}],"stateMutability":"view","type":"function"},{"inputs":[{"internalType":"bytes32","name":"role","type":"bytes32"},{"internalType":"address","name":"account","type":"address"}],"name":"grantRole","outputs":[],"stateMutability":"nonpayable","type":"function"},{"inputs":[{"internalType":"bytes32","name":"role","type":"bytes32"},{"internalType":"address","name":"account","type":"address"}],"name":"hasRole","outputs":[{"internalType":"bool","name":"","type":"bool"}],"stateMutability":"view","type":"function"},{"inputs":[],"name":"readingCounter","outputs":[{"internalType":"uint256","name":"","type":"uint256"}],"stateMutability":"view","type":"function"},{"inputs":[{"internalType":"string","name":"_name","type":"string"},{"internalType":"uint256","name":"_area","type":"uint256"},{"internalType":"string","name":"_location","type":"string"},{"internalType":"string","name":"_soilType","type":"string"}],"name":"registerFarm","outputs":[{"internalType":"uint256","name":"","type":"uint256"}],"stateMutability":"nonpayable","type":"function"},{"inputs":[{"internalType":"bytes32","name":"role","type":"bytes32"},{"internalType":"address","name":"callerConfirmation","type":"address"}],"name":"renounceRole","outputs":[],"stateMutability":"nonpayable","type":"function"},{"inputs":[{"internalType":"bytes32","name":"role","type":"bytes32"},{"internalType":"address","name":"account","type":"address"}],"name":"revokeRole","outputs":[],"stateMutability":"nonpayable","type":"function"},{"inputs":[{"internalType":"address","name":"_tokenContract","type":"address"}],"name":"setTokenContract","outputs":[],"stateMutability":"nonpayable","type":"function"},{"inputs":[{"internalType":"bytes4","name":"interfaceId","type":"bytes4"}],"name":"supportsInterface","outputs":[{"internalType":"bool","name":"","type":"bool"}],"stateMutability":"view","type":"function"},{"inputs":[],"name":"tokenContract","outputs":[{"internalType":"contract ICarbonSealToken","name":"","type":"address"}],"stateMutability":"view","type":"function"},{"inputs":[{"internalType":"uint256","name":"_farmId","type":"uint256"},{"internalType":"uint256","name":"_amount","type":"uint256"}],"name":"updateCarbonDebt","outputs":[{"internalType":"bool","name":"","type":"bool"}],"stateMutability":"nonpayable","type":"function"}],"evm":{"bytecode":{"linkReferences":{},"object":"60806040523480156200001157600080fd5b506200001f6000336200008a565b506200004c7f0ce23c3e399818cfee81a7ab0880f714e53d7672b08df0fa62f2843416e1ea09336200008a565b50620000797f68e79a7bf1e0bc45d0a330c573bc367f9cf464fd326078812f301165fbda4ef1336200008a565b506000600181905560025562000139565b6000828152602081815260408083206001600160a01b038516845290915281205460ff166200012f576000838152602081815260408083206001600160a01b03861684529091529020805460ff19166001179055620000e63390565b6001600160a01b0316826001600160a01b0316847f2f8788117e7eff1d82e926ec794901d17c78024a50270940304540a733656f0d60405160405180910390a450600162000133565b5060005b92915050565b612f0a80620001496000396000f3fe608060405234801561001057600080fd5b50600436106101f05760003560e01c80638219e3ce1161010f578063b6bbefa0116100a2578063e7705db611610071578063e7705db6146104b3578063e7a424a2146104da578063fde970471461051a578063fe2dffd61461053a57600080fd5b8063b6bbefa014610447578063bbcd5bbe1461046d578063cfbfea0814610480578063d547741f146104a057600080fd5b8063aaf22c01116100de578063aaf22c01146103fd578063aaf5eb6814610412578063acf4c05b14610421578063b09424da1461043457600080fd5b80638219e3ce1461039857806391d14854146103ab578063a217fddf146103e2578063a624cf2e146103ea57600080fd5b80633c42febc116101875780635ee485b7116101565780635ee485b7146103335780636af753741461033b5780636cb9dd9c1461035b5780637da470ea1461036e57600080fd5b80633c42febc146102d95780634a6a1be4146102ec57806355a373d6146102ff578063577cac271461032a57600080fd5b8063248a9ca3116101c3578063248a9ca31461026e5780632b7e4106146102915780632f2ff15d146102b157806336568abe146102c657600080fd5b806301ffc9a7146101f557806307e2cea51461021d5780630d8e57de146102525780631cb91c0114610265575b600080fd5b610208610203366004612565565b61054a565b60405190151581526020015b60405180910390f35b6102447f68e79a7bf1e0bc45d0a330c573bc367f9cf464fd326078812f301165fbda4ef181565b604051908152602001610214565b6102446102603660046125a7565b6105e3565b61024460025481565b61024461027c3660046125a7565b60009081526020819052604090206001015490565b6102a461029f3660046125dc565b61084b565b604051610214919061263d565b6102c46102bf366004612718565b610b58565b005b6102c46102d4366004612718565b610b83565b6102c46102e73660046125a7565b610bd4565b6102446102fa3660046127fb565b610c12565b600954610312906001600160a01b031681565b6040516001600160a01b039091168152602001610214565b61024460015481565b600154610244565b61034e610349366004612941565b610ef1565b6040516102149190612a1e565b610244610369366004612a62565b611330565b61038161037c3660046125a7565b611645565b6040516102149b9a99989796959493929190612a9e565b6102c46103a63660046125a7565b61183f565b6102086103b9366004612718565b6000918252602082815260408084206001600160a01b0393909316845291905290205460ff1690565b610244600081565b6102086103f8366004612b29565b611881565b610405611a1f565b6040516102149190612b4b565b610244670de0b6b3a764000081565b6102c461042f366004612b29565b611a30565b610244610442366004612b29565b611aad565b61045a610455366004612b29565b611ade565b6040516102149796959493929190612b8c565b6102c461047b3660046125dc565b611c57565b61049361048e366004612b29565b611c92565b6040516102149190612be7565b6102c46104ae366004612718565b611f41565b6102447f0ce23c3e399818cfee81a7ab0880f714e53d7672b08df0fa62f2843416e1ea0981565b6104ed6104e83660046125a7565b611f66565b604080519687526020870195909552938501929092526060840152608083015260a082015260c001610214565b6102446105283660046125dc565b60046020526000908152604090205481565b610244683635c9adc5dea0000081565b60007fffffffff0000000000000000000000000000000000000000000000000000000082167f7965db0b0000000000000000000000000000000000000000000000000000000014806105dd57507f01ffc9a7000000000000000000000000000000000000000000000000000000007fffffffff000000000000000000000000000000000000000000000000000000008316145b92915050565b60008181526003602090815260408083208151610160810183528154815260018201546001600160a01b0316938101939093526002810180548594938401919061062c90612cab565b80601f016020809104026020016040519081016040528092919081815260200182805461065890612cab565b80156106a55780601f1061067a576101008083540402835291602001916106a5565b820191906000526020600020905b81548152906001019060200180831161068857829003601f168201915b50505050508152602001600382015481526020016004820180546106c890612cab565b80601f01602080910402602001604051908101604052809291908181526020018280546106f490612cab565b80156107415780601f1061071657610100808354040283529160200191610741565b820191906000526020600020905b81548152906001019060200180831161072457829003601f168201915b5050505050815260200160058201805461075a90612cab565b80601f016020809104026020016040519081016040528092919081815260200182805461078690612cab565b80156107d35780601f106107a8576101008083540402835291602001916107d3565b820191906000526020600020905b8154815290600101906020018083116107b657829003601f168201915b5050509183525050600682015460208201526007820154604082015260088201546060820152600982015460ff1615156080820152600a9091015460a09091015260e081015160c08201519192501015610842578060e001518160c0015161083b9190612cfb565b9392505050565b50600092915050565b6108b36040518061016001604052806000815260200160006001600160a01b0316815260200160608152602001600081526020016060815260200160608152602001600081526020016000815260200160008152602001600015158152602001600081525090565b6001600160a01b0382166000908152600460205260409020548061091e5760405162461bcd60e51b815260206004820152601960248201527f436172626f6e5365616c3a204e6f206661726d20666f756e640000000000000060448201526064015b60405180910390fd5b6000818152600360209081526040918290208251610160810184528154815260018201546001600160a01b031692810192909252600281018054929391929184019161096990612cab565b80601f016020809104026020016040519081016040528092919081815260200182805461099590612cab565b80156109e25780601f106109b7576101008083540402835291602001916109e2565b820191906000526020600020905b8154815290600101906020018083116109c557829003601f168201915b5050505050815260200160038201548152602001600482018054610a0590612cab565b80601f0160208091040260200160405190810160405280929190818152602001828054610a3190612cab565b8015610a7e5780601f10610a5357610100808354040283529160200191610a7e565b820191906000526020600020905b815481529060010190602001808311610a6157829003601f168201915b50505050508152602001600582018054610a9790612cab565b80601f0160208091040260200160405190810160405280929190818152602001828054610ac390612cab565b8015610b105780601f10610ae557610100808354040283529160200191610b10565b820191906000526020600020905b815481529060010190602001808311610af357829003601f168201915b5050509183525050600682015460208201526007820154604082015260088201546060820152600982015460ff1615156080820152600a9091015460a0909101529392505050565b600082815260208190526040902060010154610b73816121ee565b610b7d83836121fb565b50505050565b6001600160a01b0381163314610bc5576040517f6697b23200000000000000000000000000000000000000000000000000000000815260040160405180910390fd5b610bcf82826122a5565b505050565b6000610bdf816121ee565b600082815260036020526040902060098101805460ff1916905560010154610bcf906007906001600160a01b0316612328565b3360009081526004602052604081205415610c6f5760405162461bcd60e51b815260206004820152601e60248201527f436172626f6e5365616c3a20416c7265616479207265676973746572656400006044820152606401610915565b60008411610ce55760405162461bcd60e51b815260206004820152602160248201527f436172626f6e5365616c3a2041726561206d75737420626520706f736974697660448201527f65000000000000000000000000000000000000000000000000000000000000006064820152608401610915565b6000855111610d365760405162461bcd60e51b815260206004820152601960248201527f436172626f6e5365616c3a204e616d65207265717569726564000000000000006044820152606401610915565b60018054906000610d4683612d0e565b90915550506040805161016081018252600180548083523360208085019182528486018b8152606086018b9052608086018a905260a08601899052600060c0870181905260e087018190524261010088018190526101208801879052610140880152938452600390915294909120835181559051918101805473ffffffffffffffffffffffffffffffffffffffff19166001600160a01b03909316929092179091559151909182916002820190610dfd9082612d75565b506060820151600382015560808201516004820190610e1c9082612d75565b5060a08201516005820190610e319082612d75565b5060c0820151600682015560e0820151600780830191909155610100830151600883015561012083015160098301805460ff191691151591909117905561014090920151600a9091015560015433600081815260046020526040902091909155610e9b919061233d565b50600154336001600160a01b03167f919bcd31e54b123779db7b85e1b5838d042d8e6bfc079fe8b59ec02719849eeb888888604051610edc93929190612e35565b60405180910390a35050600154949350505050565b600084815260036020526040902060090154606090859060ff16610f575760405162461bcd60e51b815260206004820152601b60248201527f436172626f6e5365616c3a204661726d206e6f742061637469766500000000006044820152606401610915565b6000868152600360205260409020600101546001600160a01b0316331480610fad57503360009081527fa629f6981c2f6895a67dc766e8e03ff72d04a413d0d8773a3ca56e9e474032c1602052604090205460ff165b610ff95760405162461bcd60e51b815260206004820152601a60248201527f436172626f6e5365616c3a204e6f7420617574686f72697a65640000000000006044820152606401610915565b8351855114801561100b575082518551145b61107d5760405162461bcd60e51b815260206004820152602160248201527f436172626f6e5365616c3a204172726179206c656e677468206d69736d61746360448201527f68000000000000000000000000000000000000000000000000000000000000006064820152608401610915565b6000855167ffffffffffffffff81111561109957611099612744565b6040519080825280602002602001820160405280156110c2578160200160208202803683370190505b5090506000805b87518110156112e85760008882815181106110e6576110e6612e6a565b6020026020010151116111475760405162461bcd60e51b815260206004820152602360248201527f436172626f6e5365616c3a20416d6f756e74206d75737420626520706f73697460448201526269766560e81b6064820152608401610915565b6002805490600061115783612d0e565b919050555060006040518060e0016040528060025481526020018b81526020018a848151811061118957611189612e6a565b602002602001015181526020018984815181106111a8576111a8612e6a565b602002602001015181526020018884815181106111c7576111c7612e6a565b602090810291909101810151825242828201523360409283015260008d81526005825282812080546001818101835591835291839020855160079093020191825591840151918101919091559082015160028201556060820151919250829160038201906112359082612d75565b506080820151600482019061124a9082612d75565b5060a0820151600582015560c0909101516006909101805473ffffffffffffffffffffffffffffffffffffffff19166001600160a01b0390921691909117905560025484518590849081106112a1576112a1612e6a565b6020026020010181815250508882815181106112bf576112bf612e6a565b6020026020010151836112d29190612e80565b92505080806112e090612d0e565b9150506110c9565b506000888152600360205260408120600601805483929061130a908490612e80565b909155505050600087815260036020526040902042600890910155915050949350505050565b600084815260036020526040812060090154859060ff166113935760405162461bcd60e51b815260206004820152601b60248201527f436172626f6e5365616c3a204661726d206e6f742061637469766500000000006044820152606401610915565b6000868152600360205260409020600101546001600160a01b03163314806113e957503360009081527fa629f6981c2f6895a67dc766e8e03ff72d04a413d0d8773a3ca56e9e474032c1602052604090205460ff165b8061142257503360009081527f1da0b5176dfe03406af5a6eed66ca01dda9b45ac4da671c3fa379cb93717ef81602052604090205460ff165b61146e5760405162461bcd60e51b815260206004820152601a60248201527f436172626f6e5365616c3a204e6f7420617574686f72697a65640000000000006044820152606401610915565b600085116114ca5760405162461bcd60e51b815260206004820152602360248201527f436172626f6e5365616c3a20416d6f756e74206d75737420626520706f73697460448201526269766560e81b6064820152608401610915565b600280549060006114da83612d0e565b90915550506040805160e08101825260028054825260208083018a81528385018a8152606085018a8152608086018a90524260a08701523360c087015260008d81526005855296872080546001818101835591895294909720865160079095020193845591519583019590955593519181019190915591519091829160038201906115659082612d75565b506080820151600482019061157a9082612d75565b5060a0820151600582015560c0909101516006918201805473ffffffffffffffffffffffffffffffffffffffff19166001600160a01b03909216919091179055600088815260036020526040812090910180548892906115db908490612e80565b90915550506000878152600360205260409081902042600890910155600254905188907fc89c68410ac058dd8fed6550a79614cc8fcd9b7b2c08cf7b4756cfe6be54593f9061162f908a908a908a90612e93565b60405180910390a3505060025495945050505050565b60036020526000908152604090208054600182015460028301805492936001600160a01b039092169261167790612cab565b80601f01602080910402602001604051908101604052809291908181526020018280546116a390612cab565b80156116f05780601f106116c5576101008083540402835291602001916116f0565b820191906000526020600020905b8154815290600101906020018083116116d357829003601f168201915b50505050509080600301549080600401805461170b90612cab565b80601f016020809104026020016040519081016040528092919081815260200182805461173790612cab565b80156117845780601f1061175957610100808354040283529160200191611784565b820191906000526020600020905b81548152906001019060200180831161176757829003601f168201915b50505050509080600501805461179990612cab565b80601f01602080910402602001604051908101604052809291908181526020018280546117c590612cab565b80156118125780601f106117e757610100808354040283529160200191611812565b820191906000526020600020905b8154815290600101906020018083116117f557829003601f168201915b505050506006830154600784015460088501546009860154600a90960154949592949193509160ff16908b565b600061184a816121ee565b600082815260036020526040902060098101805460ff191660019081179091550154610bcf906007906001600160a01b031661233d565b6009546000906001600160a01b031633146118de5760405162461bcd60e51b815260206004820152601f60248201527f436172626f6e5365616c3a204f6e6c7920746f6b656e20636f6e7472616374006044820152606401610915565b6000821161193a5760405162461bcd60e51b815260206004820152602360248201527f436172626f6e5365616c3a20416d6f756e74206d75737420626520706f73697460448201526269766560e81b6064820152608401610915565b6000611945846105e3565b9050828110156119975760405162461bcd60e51b815260206004820152601f60248201527f436172626f6e5365616c3a20496e73756666696369656e7420636172626f6e006044820152606401610915565b600084815260036020526040812060070180548592906119b8908490612e80565b909155505060008481526003602052604090206007015484907f09d6f0793923f62e1894f0295d099599c4d713cb761a6b59e42a7c86be8d89a6906119fd8685612cfb565b6040805192835260208301919091520160405180910390a25060019392505050565b6060611a2b6007612352565b905090565b6009546001600160a01b03163314611a8a5760405162461bcd60e51b815260206004820152601f60248201527f436172626f6e5365616c3a204f6e6c7920746f6b656e20636f6e7472616374006044820152606401610915565b600091825260066020908152604083208054600181018255908452922090910155565b60066020528160005260406000208181548110611ac957600080fd5b90600052602060002001600091509150505481565b60056020528160005260406000208181548110611afa57600080fd5b906000526020600020906007020160009150915050806000015490806001015490806002015490806003018054611b3090612cab565b80601f0160208091040260200160405190810160405280929190818152602001828054611b5c90612cab565b8015611ba95780601f10611b7e57610100808354040283529160200191611ba9565b820191906000526020600020905b815481529060010190602001808311611b8c57829003601f168201915b505050505090806004018054611bbe90612cab565b80601f0160208091040260200160405190810160405280929190818152602001828054611bea90612cab565b8015611c375780601f10611c0c57610100808354040283529160200191611c37565b820191906000526020600020905b815481529060010190602001808311611c1a57829003601f168201915b5050505060058301546006909301549192916001600160a01b0316905087565b6000611c62816121ee565b506009805473ffffffffffffffffffffffffffffffffffffffff19166001600160a01b0392909216919091179055565b600082815260056020526040812054606091818411611cb15783611cb3565b815b905060008167ffffffffffffffff811115611cd057611cd0612744565b604051908082528060200260200182016040528015611d4a57816020015b611d376040518060e0016040528060008152602001600081526020016000815260200160608152602001606081526020016000815260200160006001600160a01b031681525090565b815260200190600190039081611cee5790505b50905060005b82811015611f3757600087815260056020526040902081611d72600187612cfb565b611d7c9190612cfb565b81548110611d8c57611d8c612e6a565b90600052602060002090600702016040518060e0016040529081600082015481526020016001820154815260200160028201548152602001600382018054611dd390612cab565b80601f0160208091040260200160405190810160405280929190818152602001828054611dff90612cab565b8015611e4c5780601f10611e2157610100808354040283529160200191611e4c565b820191906000526020600020905b815481529060010190602001808311611e2f57829003601f168201915b50505050508152602001600482018054611e6590612cab565b80601f0160208091040260200160405190810160405280929190818152602001828054611e9190612cab565b8015611ede5780601f10611eb357610100808354040283529160200191611ede565b820191906000526020600020905b815481529060010190602001808311611ec157829003601f168201915b5050509183525050600582015460208201526006909101546001600160a01b03166040909101528251839083908110611f1957611f19612e6a565b60200260200101819052508080611f2f90612d0e565b915050611d50565b5095945050505050565b600082815260208190526040902060010154611f5c816121ee565b610b7d83836122a5565b60008181526003602090815260408083208151610160810183528154815260018201546001600160a01b0316938101939093526002810180548594859485948594859485949384019190611fb990612cab565b80601f0160208091040260200160405190810160405280929190818152602001828054611fe590612cab565b80156120325780601f1061200757610100808354040283529160200191612032565b820191906000526020600020905b81548152906001019060200180831161201557829003601f168201915b505050505081526020016003820154815260200160048201805461205590612cab565b80601f016020809104026020016040519081016040528092919081815260200182805461208190612cab565b80156120ce5780601f106120a3576101008083540402835291602001916120ce565b820191906000526020600020905b8154815290600101906020018083116120b157829003601f168201915b505050505081526020016005820180546120e790612cab565b80601f016020809104026020016040519081016040528092919081815260200182805461211390612cab565b80156121605780601f1061213557610100808354040283529160200191612160565b820191906000526020600020905b81548152906001019060200180831161214357829003601f168201915b5050509183525050600682015460208201526007820154604082015260088201546060820152600982015460ff1615156080820152600a9091015460a09091015260c081015160e0820151919250906121b88a6105e3565b60009a8b52600560209081526040808d20546006909252909b20546101009490940151929b919a90995097509195509350915050565b6121f8813361235f565b50565b6000828152602081815260408083206001600160a01b038516845290915281205460ff1661229d576000838152602081815260408083206001600160a01b03861684529091529020805460ff191660011790556122553390565b6001600160a01b0316826001600160a01b0316847f2f8788117e7eff1d82e926ec794901d17c78024a50270940304540a733656f0d60405160405180910390a45060016105dd565b5060006105dd565b6000828152602081815260408083206001600160a01b038516845290915281205460ff161561229d576000838152602081815260408083206001600160a01b0386168085529252808320805460ff1916905551339286917ff6391f5c32d9c69d2a47ea670b442974b53935d1edc7fd64eb21e047a839171b9190a45060016105dd565b600061083b836001600160a01b0384166123cf565b600061083b836001600160a01b0384166124c2565b6060600061083b83612509565b6000828152602081815260408083206001600160a01b038516845290915290205460ff166123cb576040517fe2517d3f0000000000000000000000000000000000000000000000000000000081526001600160a01b038216600482015260248101839052604401610915565b5050565b600081815260018301602052604081205480156124b85760006123f3600183612cfb565b855490915060009061240790600190612cfb565b905080821461246c57600086600001828154811061242757612427612e6a565b906000526020600020015490508087600001848154811061244a5761244a612e6a565b6000918252602080832090910192909255918252600188019052604090208390555b855486908061247d5761247d612ebe565b6001900381819060005260206000200160009055905585600101600086815260200190815260200160002060009055600193505050506105dd565b60009150506105dd565b600081815260018301602052604081205461229d575081546001818101845560008481526020808220909301849055845484825282860190935260409020919091556105dd565b60608160000180548060200260200160405190810160405280929190818152602001828054801561255957602002820191906000526020600020905b815481526020019060010190808311612545575b50505050509050919050565b60006020828403121561257757600080fd5b81357fffffffff000000000000000000000000000000000000000000000000000000008116811461083b57600080fd5b6000602082840312156125b957600080fd5b5035919050565b80356001600160a01b03811681146125d757600080fd5b919050565b6000602082840312156125ee57600080fd5b61083b826125c0565b6000815180845260005b8181101561261d57602081850181015186830182015201612601565b506000602082860101526020601f19601f83011685010191505092915050565b60208152815160208201526000602083015161266460408401826001600160a01b03169052565b5060408301516101608060608501526126816101808501836125f7565b9150606085015160808501526080850151601f19808685030160a08701526126a984836125f7565b935060a08701519150808685030160c0870152506126c783826125f7565b92505060c085015160e085015260e08501516101008181870152808701519150506101208181870152808701519150506101406127078187018315159052565b959095015193019290925250919050565b6000806040838503121561272b57600080fd5b8235915061273b602084016125c0565b90509250929050565b634e487b7160e01b600052604160045260246000fd5b604051601f8201601f1916810167ffffffffffffffff8111828210171561278357612783612744565b604052919050565b600082601f83011261279c57600080fd5b813567ffffffffffffffff8111156127b6576127b6612744565b6127c9601f8201601f191660200161275a565b8181528460208386010111156127de57600080fd5b816020850160208301376000918101602001919091529392505050565b6000806000806080858703121561281157600080fd5b843567ffffffffffffffff8082111561282957600080fd5b6128358883890161278b565b955060208701359450604087013591508082111561285257600080fd5b61285e8883890161278b565b9350606087013591508082111561287457600080fd5b506128818782880161278b565b91505092959194509250565b600067ffffffffffffffff8211156128a7576128a7612744565b5060051b60200190565b600082601f8301126128c257600080fd5b813560206128d76128d28361288d565b61275a565b82815260059290921b840181019181810190868411156128f657600080fd5b8286015b8481101561293657803567ffffffffffffffff81111561291a5760008081fd5b6129288986838b010161278b565b8452509183019183016128fa565b509695505050505050565b6000806000806080858703121561295757600080fd5b8435935060208086013567ffffffffffffffff8082111561297757600080fd5b818801915088601f83011261298b57600080fd5b81356129996128d28261288d565b81815260059190911b8301840190848101908b8311156129b857600080fd5b938501935b828510156129d6578435825293850193908501906129bd565b9750505060408801359250808311156129ee57600080fd5b6129fa89848a016128b1565b94506060880135925080831115612a1057600080fd5b5050612881878288016128b1565b6020808252825182820181905260009190848201906040850190845b81811015612a5657835183529284019291840191600101612a3a565b50909695505050505050565b60008060008060808587031215612a7857600080fd5b8435935060208501359250604085013567ffffffffffffffff8082111561285257600080fd5b60006101608d83526001600160a01b038d166020840152806040840152612ac78184018d6125f7565b90508a60608401528281036080840152612ae1818b6125f7565b905082810360a0840152612af5818a6125f7565b60c0840198909852505060e08101949094526101008401929092521515610120830152610140909101529695505050505050565b60008060408385031215612b3c57600080fd5b50508035926020909101359150565b6020808252825182820181905260009190848201906040850190845b81811015612a565783516001600160a01b031683529284019291840191600101612b67565b87815286602082015285604082015260e060608201526000612bb160e08301876125f7565b8281036080840152612bc381876125f7565b9150508360a08301526001600160a01b03831660c083015298975050505050505050565b60006020808301818452808551808352604092508286019150828160051b87010184880160005b83811015612c9d57603f19898403018552815160e081518552888201518986015287820151888601526060808301518282880152612c4e838801826125f7565b9250505060808083015186830382880152612c6983826125f7565b60a0858101519089015260c0948501516001600160a01b031694909701939093525050509386019390860190600101612c0e565b509098975050505050505050565b600181811c90821680612cbf57607f821691505b602082108103612cdf57634e487b7160e01b600052602260045260246000fd5b50919050565b634e487b7160e01b600052601160045260246000fd5b818103818111156105dd576105dd612ce5565b600060018201612d2057612d20612ce5565b5060010190565b601f821115610bcf57600081815260208120601f850160051c81016020861015612d4e5750805b601f850160051c820191505b81811015612d6d57828155600101612d5a565b505050505050565b815167ffffffffffffffff811115612d8f57612d8f612744565b612da381612d9d8454612cab565b84612d27565b602080601f831160018114612dd85760008415612dc05750858301515b600019600386901b1c1916600185901b178555612d6d565b600085815260208120601f198616915b82811015612e0757888601518255948401946001909101908401612de8565b5085821015612e255787850151600019600388901b60f8161c191681555b5050505050600190811b01905550565b606081526000612e4860608301866125f7565b8460208401528281036040840152612e6081856125f7565b9695505050505050565b634e487b7160e01b600052603260045260246000fd5b808201808211156105dd576105dd612ce5565b838152606060208201526000612eac60608301856125f7565b8281036040840152612e6081856125f7565b634e487b7160e01b600052603160045260246000fdfea2646970667358221220fb2e86be2ea7881d190461be30080f616c1e2aa5ec25f5463209bd45ec3bc22e64736f6c63430008140033","opcodes":"PUSH1 0x80 PUSH1 0x40 MSTORE CALLVALUE DUP1 ISZERO PUSH3 0x11 JUMPI PUSH1 0x0 DUP1 REVERT JUMPDEST POP PUSH3 0x1F PUSH1 0x0 CALLER PUSH3 0x8A JUMP JUMPDEST POP PUSH3 0x4C PUSH32 0xCE23C3E399818CFEE81A7AB0880F714E53D7672B08DF0FA62F2843416E1EA09 CALLER PUSH3 0x8A JUMP JUMPDEST POP PUSH3 0x79 PUSH32 0x68E79A7BF1E0BC45D0A330C573BC367F9CF464FD326078812F301165FBDA4EF1 CALLER PUSH3 0x8A JUMP JUMPDEST POP PUSH1 0x0 PUSH1 0x1 DUP2 SWAP1 SSTORE PUSH1 0x2 SSTORE PUSH3 0x139 JUMP JUMPDEST PUSH1 0x0 DUP3 DUP2 MSTORE PUSH1 0x20 DUP2 DUP2 MSTORE PUSH1 0x40 DUP1 DUP4 KECCAK256 PUSH1 0x1 PUSH1 0x1 PUSH1 0xA0 SHL SUB DUP6 AND DUP5 MSTORE SWAP1 SWAP2 MSTORE DUP2 KECCAK256 SLOAD PUSH1 0xFF AND PUSH3 0x12F JUMPI PUSH1 0x0 DUP4 DUP2 MSTORE PUSH1 0x20 DUP2 DUP2 MSTORE PUSH1 0x40 DUP1 DUP4 KECCAK256 PUSH1 0x1 PUSH1 0x1 PUSH1 0xA0 SHL SUB DUP7 AND DUP5 MSTORE SWAP1 SWAP2 MSTORE SWAP1 KECCAK256 DUP1 SLOAD PUSH1 0xFF NOT AND PUSH1 0x1 OR SWAP1 SSTORE PUSH3 0xE6 CALLER SWAP1 JUMP JUMPDEST PUSH1 0x1 PUSH1 0x1 PUSH1 0xA0 SHL SUB AND DUP3 PUSH1 0x1 PUSH1 0x1 PUSH1 0xA0 SHL SUB AND DUP5 PUSH32 0x2F8788117E7EFF1D82E926EC794901D17C78024A50270940304540A733656F0D PUSH1 0x40 MLOAD PUSH1 0x40 MLOAD DUP1 SWAP2 SUB SWAP1 LOG4 POP PUSH1 0x1 PUSH3 0x133 JUMP JUMPDEST POP PUSH1 0x0 JUMPDEST SWAP3 SWAP2 POP POP JUMP JUMPDEST PUSH2 0x2F0A DUP1 PUSH3 0x149 PUSH1 0x0 CODECOPY PUSH1 0x0 RETURN INVALID PUSH1 0x80 PUSH1 0x40 MSTORE CALLVALUE DUP1 ISZERO PUSH2 0x10 JUMPI PUSH1 0x0 DUP1 REVERT JUMPDEST POP PUSH1 0x4 CALLDATASIZE LT PUSH2 0x1F0 JUMPI PUSH1 0x0 CALLDATALOAD PUSH1 0xE0 SHR DUP1 PUSH4 0x8219E3CE GT PUSH2 0x10F JUMPI DUP1 PUSH4 0xB6BBEFA0 GT PUSH2 0xA2 JUMPI DUP1 PUSH4 0xE7705DB6 GT PUSH2 0x71 JUMPI DUP1 PUSH4 0xE7705DB6 EQ PUSH2 0x4B3 JUMPI DUP1 PUSH4 0xE7A424A2 EQ PUSH2 0x4DA JUMPI DUP1 PUSH4 0xFDE97047 EQ PUSH2 0x51A JUMPI DUP1 PUSH4 0xFE2DFFD6 EQ PUSH2 0x53A JUMPI PUSH1 0x0 DUP1 REVERT JUMPDEST DUP1 PUSH4 0xB6BBEFA0 EQ PUSH2 0x447 JUMPI DUP1 PUSH4 0xBBCD5BBE EQ PUSH2 0x46D JUMPI DUP1 PUSH4 0xCFBFEA08 EQ PUSH2 0x480 JUMPI DUP1 PUSH4 0xD547741F EQ PUSH2 0x4A0 JUMPI PUSH1 0x0 DUP1 REVERT JUMPDEST DUP1 PUSH4 0xAAF22C01 GT PUSH2 0xDE JUMPI DUP1 PUSH4 0xAAF22C01 EQ PUSH2 0x3FD JUMPI DUP1 PUSH4 0xAAF5EB68 EQ PUSH2 0x412 JUMPI DUP1 PUSH4 0xACF4C05B EQ PUSH2 0x421 JUMPI DUP1 PUSH4 0xB09424DA EQ PUSH2 0x434 JUMPI PUSH1 0x0 DUP1 REVERT JUMPDEST DUP1 PUSH4 0x8219E3CE EQ PUSH2 0x398 JUMPI DUP1 PUSH4 0x91D14854 EQ PUSH2 0x3AB JUMPI DUP1 PUSH4 0xA217FDDF EQ PUSH2 0x3E2 JUMPI DUP1 PUSH4 0xA624CF2E EQ PUSH2 0x3EA JUMPI PUSH1 0x0 DUP1 REVERT JUMPDEST DUP1 PUSH4 0x3C42FEBC GT PUSH2 0x187 JUMPI DUP1 PUSH4 0x5EE485B7 GT PUSH2 0x156 JUMPI DUP1 PUSH4 0x5EE485B7 EQ PUSH2 0x333 JUMPI DUP1 PUSH4 0x6AF75374 EQ PUSH2 0x33B JUMPI DUP1 PUSH4 0x6CB9DD9C EQ PUSH2 0x35B JUMPI DUP1 PUSH4 0x7DA470EA EQ PUSH2 0x36E JUMPI PUSH1 0x0 DUP1 REVERT JUMPDEST DUP1 PUSH4 0x3C42FEBC EQ PUSH2 0x2D9 JUMPI DUP1 PUSH4 0x4A6A1BE4 EQ PUSH2 0x2EC JUMPI DUP1 PUSH4 0x55A373D6 EQ PUSH2 0x2FF JUMPI DUP1 PUSH4 0x577CAC27 EQ PUSH2 0x32A JUMPI PUSH1 0x0 DUP1 REVERT JUMPDEST DUP1 PUSH4 0x248A9CA3 GT PUSH2 0x1C3 JUMPI DUP1 PUSH4 0x248A9CA3 EQ PUSH2 0x26E JUMPI DUP1 PUSH4 0x2B7E4106 EQ PUSH2 0x291 JUMPI DUP1 PUSH4 0x2F2FF15D EQ PUSH2 0x2B1 JUMPI DUP1 PUSH4 0x36568ABE EQ PUSH2 0x2C6 JUMPI PUSH1 0x0 DUP1 REVERT JUMPDEST DUP1 PUSH4 0x1FFC9A7 EQ PUSH2 0x1F5 JUMPI DUP1 PUSH4 0x7E2CEA5 EQ PUSH2 0x21D JUMPI DUP1 PUSH4 0xD8E57DE EQ PUSH2 0x252 JUMPI DUP1 PUSH4 0x1CB91C01 EQ PUSH2 0x265 JUMPI JUMPDEST PUSH1 0x0 DUP1 REVERT JUMPDEST PUSH2 0x208 PUSH2 0x203 CALLDATASIZE PUSH1 0x4 PUSH2 0x2565 JUMP JUMPDEST PUSH2 0x54A JUMP JUMPDEST PUSH1 0x40 MLOAD SWAP1 ISZERO ISZERO DUP2 MSTORE PUSH1 0x20 ADD JUMPDEST PUSH1 0x40 MLOAD DUP1 SWAP2 SUB SWAP1 RETURN JUMPDEST PUSH2 0x244 PUSH32 0x68E79A7BF1E0BC45D0A330C573BC367F9CF464FD326078812F301165FBDA4EF1 DUP2 JUMP JUMPDEST PUSH1 0x40 MLOAD SWAP1 DUP2 MSTORE PUSH1 0x20 ADD PUSH2 0x214 JUMP JUMPDEST PUSH2 0x244 PUSH2 0x260 CALLDATASIZE PUSH1 0x4 PUSH2 0x25A7 JUMP JUMPDEST PUSH2 0x5E3 JUMP JUMPDEST PUSH2 0x244 PUSH1 0x2 SLOAD DUP2 JUMP JUMPDEST PUSH2 0x244 PUSH2 0x27C CALLDATASIZE PUSH1 0x4 PUSH2 0x25A7 JUMP JUMPDEST PUSH1 0x0 SWAP1 DUP2 MSTORE PUSH1 0x20 DUP2 SWAP1 MSTORE PUSH1 0x40 SWAP1 KECCAK256 PUSH1 0x1 ADD SLOAD SWAP1 JUMP JUMPDEST PUSH2 0x2A4 PUSH2 0x29F CALLDATASIZE PUSH1 0x4 PUSH2 0x25DC JUMP JUMPDEST PUSH2 0x84B JUMP JUMPDEST PUSH1 0x40 MLOAD PUSH2 0x214 SWAP2 SWAP1 PUSH2 0x263D JUMP JUMPDEST PUSH2 0x2C4 PUSH2 0x2BF CALLDATASIZE PUSH1 0x4 PUSH2 0x2718 JUMP JUMPDEST PUSH2 0xB58 JUMP JUMPDEST STOP JUMPDEST PUSH2 0x2C4 PUSH2 0x2D4 CALLDATASIZE PUSH1 0x4 PUSH2 0x2718 JUMP JUMPDEST PUSH2 0xB83 JUMP JUMPDEST PUSH2 0x2C4 PUSH2 0x2E7 CALLDATASIZE PUSH1 0x4 PUSH2 0x25A7 JUMP JUMPDEST PUSH2 0xBD4 JUMP JUMPDEST PUSH2 0x244 PUSH2 0x2FA CALLDATASIZE PUSH1 0x4 PUSH2 0x27FB JUMP JUMPDEST PUSH2 0xC12 JUMP JUMPDEST PUSH1 0x9 SLOAD PUSH2 0x312 SWAP1 PUSH1 0x1 PUSH1 0x1 PUSH1 0xA0 SHL SUB AND DUP2 JUMP JUMPDEST PUSH1 0x40 MLOAD PUSH1 0x1 PUSH1 0x1 PUSH1 0xA0 SHL SUB SWAP1 SWAP2 AND DUP2 MSTORE PUSH1 0x20 ADD PUSH2 0x214 JUMP JUMPDEST PUSH2 0x244 PUSH1 0x1 SLOAD DUP2 JUMP JUMPDEST PUSH1 0x1 SLOAD PUSH2 0x244 JUMP JUMPDEST PUSH2 0x34E PUSH2 0x349 CALLDATASIZE PUSH1 0x4 PUSH2 0x2941 JUMP JUMPDEST PUSH2 0xEF1 JUMP JUMPDEST PUSH1 0x40 MLOAD PUSH2 0x214 SWAP2 SWAP1 PUSH2 0x2A1E JUMP JUMPDEST PUSH2 0x244 PUSH2 0x369 CALLDATASIZE PUSH1 0x4 PUSH2 0x2A62 JUMP JUMPDEST PUSH2 0x1330 JUMP JUMPDEST PUSH2 0x381 PUSH2 0x37C CALLDATASIZE PUSH1 0x4 PUSH2 0x25A7 JUMP JUMPDEST PUSH2 0x1645 JUMP JUMPDEST PUSH1 0x40 MLOAD PUSH2 0x214 SWAP12 SWAP11 SWAP10 SWAP9 SWAP8 SWAP7 SWAP6 SWAP5 SWAP4 SWAP3 SWAP2 SWAP1 PUSH2 0x2A9E JUMP JUMPDEST PUSH2 0x2C4 PUSH2 0x3A6 CALLDATASIZE PUSH1 0x4 PUSH2 0x25A7 JUMP JUMPDEST PUSH2 0x183F JUMP JUMPDEST PUSH2 0x208 PUSH2 0x3B9 CALLDATASIZE PUSH1 0x4 PUSH2 0x2718 JUMP JUMPDEST PUSH1 0x0 SWAP2 DUP3 MSTORE PUSH1 0x20 DUP3 DUP2 MSTORE PUSH1 0x40 DUP1 DUP5 KECCAK256 PUSH1 0x1 PUSH1 0x1 PUSH1 0xA0 SHL SUB SWAP4 SWAP1 SWAP4 AND DUP5 MSTORE SWAP2 SWAP1 MSTORE SWAP1 KECCAK256 SLOAD PUSH1 0xFF AND SWAP1 JUMP JUMPDEST PUSH2 0x244 PUSH1 0x0 DUP2 JUMP JUMPDEST PUSH2 0x208 PUSH2 0x3F8 CALLDATASIZE PUSH1 0x4 PUSH2 0x2B29 JUMP JUMPDEST PUSH2 0x1881 JUMP JUMPDEST PUSH2 0x405 PUSH2 0x1A1F JUMP JUMPDEST PUSH1 0x40 MLOAD PUSH2 0x214 SWAP2 SWAP1 PUSH2 0x2B4B JUMP JUMPDEST PUSH2 0x244 PUSH8 0xDE0B6B3A7640000 DUP2 JUMP JUMPDEST PUSH2 0x2C4 PUSH2 0x42F CALLDATASIZE PUSH1 0x4 PUSH2 0x2B29 JUMP JUMPDEST PUSH2 0x1A30 JUMP JUMPDEST PUSH2 0x244 PUSH2 0x442 CALLDATASIZE PUSH1 0x4 PUSH2 0x2B29 JUMP JUMPDEST PUSH2 0x1AAD JUMP JUMPDEST PUSH2 0x45A PUSH2 0x455 CALLDATASIZE PUSH1 0x4 PUSH2 0x2B29 JUMP JUMPDEST PUSH2 0x1ADE JUMP JUMPDEST PUSH1 0x40 MLOAD PUSH2 0x214 SWAP8 SWAP7 SWAP6 SWAP5 SWAP4 SWAP3 SWAP2 SWAP1 PUSH2 0x2B8C JUMP JUMPDEST PUSH2 0x2C4 PUSH2 0x47B CALLDATASIZE PUSH1 0x4 PUSH2 0x25DC JUMP JUMPDEST PUSH2 0x1C57 JUMP JUMPDEST PUSH2 0x493 PUSH2 0x48E CALLDATASIZE PUSH1 0x4 PUSH2 0x2B29 JUMP JUMPDEST PUSH2 0x1C92 JUMP JUMPDEST PUSH1 0x40 MLOAD PUSH2 0x214 SWAP2 SWAP1 PUSH2 0x2BE7 JUMP JUMPDEST PUSH2 0x2C4 PUSH2 0x4AE CALLDATASIZE PUSH1 0x4 PUSH2 0x2718 JUMP JUMPDEST PUSH2 0x1F41 JUMP JUMPDEST PUSH2 0x244 PUSH32 0xCE23C3E399818CFEE81A7AB0880F714E53D7672B08DF0FA62F2843416E1EA09 DUP2 JUMP JUMPDEST PUSH2 0x4ED PUSH2 0x4E8 CALLDATASIZE PUSH1 0x4 PUSH2 0x25A7 JUMP JUMPDEST PUSH2 0x1F66 JUMP JUMPDEST PUSH1 0x40 DUP1 MLOAD SWAP7 DUP8 MSTORE PUSH1 0x20 DUP8 ADD SWAP6 SWAP1 SWAP6 MSTORE SWAP4 DUP6 ADD SWAP3 SWAP1 SWAP3 MSTORE PUSH1 0x60 DUP5 ADD MSTORE PUSH1 0x80 DUP4 ADD MSTORE PUSH1 0xA0 DUP3 ADD MSTORE PUSH1 0xC0 ADD PUSH2 0x214 JUMP JUMPDEST PUSH2 0x244 PUSH2 0x528 CALLDATASIZE PUSH1 0x4 PUSH2 0x25DC JUMP JUMPDEST PUSH1 0x4 PUSH1 0x20 MSTORE PUSH1 0x0 SWAP1 DUP2 MSTORE PUSH1 0x40 SWAP1 KECCAK256 SLOAD DUP2 JUMP JUMPDEST PUSH2 0x244 PUSH9 0x3635C9ADC5DEA00000 DUP2 JUMP JUMPDEST PUSH1 0x0 PUSH32 0xFFFFFFFF00000000000000000000000000000000000000000000000000000000 DUP3 AND PUSH32 0x7965DB0B00000000000000000000000000000000000000000000000000000000 EQ DUP1 PUSH2 0x5DD JUMPI POP PUSH32 0x1FFC9A700000000000000000000000000000000000000000000000000000000 PUSH32 0xFFFFFFFF00000000000000000000000000000000000000000000000000000000 DUP4 AND EQ JUMPDEST SWAP3 SWAP2 POP POP JUMP JUMPDEST PUSH1 0x0 DUP2 DUP2 MSTORE PUSH1 0x3 PUSH1 0x20 SWAP1 DUP2 MSTORE PUSH1 0x40 DUP1 DUP4 KECCAK256 DUP2 MLOAD PUSH2 0x160 DUP2 ADD DUP4 MSTORE DUP2 SLOAD DUP2 MSTORE PUSH1 0x1 DUP3 ADD SLOAD PUSH1 0x1 PUSH1 0x1 PUSH1 0xA0 SHL SUB AND SWAP4 DUP2 ADD SWAP4 SWAP1 SWAP4 MSTORE PUSH1 0x2 DUP2 ADD DUP1 SLOAD DUP6 SWAP5 SWAP4 DUP5 ADD SWAP2 SWAP1 PUSH2 0x62C SWAP1 PUSH2 0x2CAB JUMP JUMPDEST DUP1 PUSH1 0x1F ADD PUSH1 0x20 DUP1 SWAP2 DIV MUL PUSH1 0x20 ADD PUSH1 0x40 MLOAD SWAP1 DUP2 ADD PUSH1 0x40 MSTORE DUP1 SWAP3 SWAP2 SWAP1 DUP2 DUP2 MSTORE PUSH1 0x20 ADD DUP3 DUP1 SLOAD PUSH2 0x658 SWAP1 PUSH2 0x2CAB JUMP JUMPDEST DUP1 ISZERO PUSH2 0x6A5 JUMPI DUP1 PUSH1 0x1F LT PUSH2 0x67A JUMPI PUSH2 0x100 DUP1 DUP4 SLOAD DIV MUL DUP4 MSTORE SWAP2 PUSH1 0x20 ADD SWAP2 PUSH2 0x6A5 JUMP JUMPDEST DUP3 ADD SWAP2 SWAP1 PUSH1 0x0 MSTORE PUSH1 0x20 PUSH1 0x0 KECCAK256 SWAP1 JUMPDEST DUP2 SLOAD DUP2 MSTORE SWAP1 PUSH1 0x1 ADD SWAP1 PUSH1 0x20 ADD DUP1 DUP4 GT PUSH2 0x688 JUMPI DUP3 SWAP1 SUB PUSH1 0x1F AND DUP3 ADD SWAP2 JUMPDEST POP POP POP POP POP DUP2 MSTORE PUSH1 0x20 ADD PUSH1 0x3 DUP3 ADD SLOAD DUP2 MSTORE PUSH1 0x20 ADD PUSH1 0x4 DUP3 ADD DUP1 SLOAD PUSH2 0x6C8 SWAP1 PUSH2 0x2CAB JUMP JUMPDEST DUP1 PUSH1 0x1F ADD PUSH1 0x20 DUP1 SWAP2 DIV MUL PUSH1 0x20 ADD PUSH1 0x40 MLOAD SWAP1 DUP2 ADD PUSH1 0x40 MSTORE DUP1 SWAP3 SWAP2 SWAP1 DUP2 DUP2 MSTORE PUSH1 0x20 ADD DUP3 DUP1 SLOAD PUSH2 0x6F4 SWAP1 PUSH2 0x2CAB JUMP JUMPDEST DUP1 ISZERO PUSH2 0x741 JUMPI DUP1 PUSH1 0x1F LT PUSH2 0x716 JUMPI PUSH2 0x100 DUP1 DUP4 SLOAD DIV MUL DUP4 MSTORE SWAP2 PUSH1 0x20 ADD SWAP2 PUSH2 0x741 JUMP JUMPDEST DUP3 ADD SWAP2 SWAP1 PUSH1 0x0 MSTORE PUSH1 0x20 PUSH1 0x0 KECCAK256 SWAP1 JUMPDEST DUP2 SLOAD DUP2 MSTORE SWAP1 PUSH1 0x1 ADD SWAP1 PUSH1 0x20 ADD DUP1 DUP4 GT PUSH2 0x724 JUMPI DUP3 SWAP1 SUB PUSH1 0x1F AND DUP3 ADD SWAP2 JUMPDEST POP POP POP POP POP DUP2 MSTORE PUSH1 0x20 ADD PUSH1 0x5 DUP3 ADD DUP1 SLOAD PUSH2 0x75A SWAP1 PUSH2 0x2CAB JUMP JUMPDEST DUP1 PUSH1 0x1F ADD PUSH1 0x20 DUP1 SWAP2 DIV MUL PUSH1 0x20 ADD PUSH1 0x40 MLOAD SWAP1 DUP2 ADD PUSH1 0x40 MSTORE DUP1 SWAP3 SWAP2 SWAP1 DUP2 DUP2 MSTORE PUSH1 0x20 ADD DUP3 DUP1 SLOAD PUSH2 0x786 SWAP1 PUSH2 0x2CAB JUMP JUMPDEST DUP1 ISZERO PUSH2 0x7D3 JUMPI DUP1 PUSH1 0x1F LT PUSH2 0x7A8 JUMPI PUSH2 0x100 DUP1 DUP4 SLOAD DIV MUL DUP4 MSTORE SWAP2 PUSH1 0x20 ADD SWAP2 PUSH2 0x7D3 JUMP JUMPDEST DUP3 ADD SWAP2 SWAP1 PUSH1 0x0 MSTORE PUSH1 0x20 PUSH1 0x0 KECCAK256 SWAP1 JUMPDEST DUP2 SLOAD DUP2 MSTORE SWAP1 PUSH1 0x1 ADD SWAP1 PUSH1 0x20 ADD DUP1 DUP4 GT PUSH2 0x7B6 JUMPI DUP3 SWAP1 SUB PUSH1 0x1F AND DUP3 ADD SWAP2 JUMPDEST POP POP POP SWAP2 DUP4 MSTORE POP POP PUSH1 0x6 DUP3 ADD SLOAD PUSH1 0x20 DUP3 ADD MSTORE PUSH1 0x7 DUP3 ADD SLOAD PUSH1 0x40 DUP3 ADD MSTORE PUSH1 0x8 DUP3 ADD SLOAD PUSH1 0x60 DUP3 ADD MSTORE PUSH1 0x9 DUP3 ADD SLOAD PUSH1 0xFF AND ISZERO ISZERO PUSH1 0x80 DUP3 ADD MSTORE PUSH1 0xA SWAP1 SWAP2 ADD SLOAD PUSH1 0xA0 SWAP1 SWAP2 ADD MSTORE PUSH1 0xE0 DUP2 ADD MLOAD PUSH1 0xC0 DUP3 ADD MLOAD SWAP2 SWAP3 POP LT ISZERO PUSH2 0x842 JUMPI DUP1 PUSH1 0xE0 ADD MLOAD DUP2 PUSH1 0xC0 ADD MLOAD PUSH2 0x83B SWAP2 SWAP1 PUSH2 0x2CFB JUMP JUMPDEST SWAP4 SWAP3 POP POP POP JUMP JUMPDEST POP PUSH1 0x0 SWAP3 SWAP2 POP POP JUMP JUMPDEST PUSH2 0x8B3 PUSH1 0x40 MLOAD DUP1 PUSH2 0x160 ADD PUSH1 0x40 MSTORE DUP1 PUSH1 0x0 DUP2 MSTORE PUSH1 0x20 ADD PUSH1 0x0 PUSH1 0x1 PUSH1 0x1 PUSH1 0xA0 SHL SUB AND DUP2 MSTORE PUSH1 0x20 ADD PUSH1 0x60 DUP2 MSTORE PUSH1 0x20 ADD PUSH1 0x0 DUP2 MSTORE PUSH1 0x20 ADD PUSH1 0x60 DUP2 MSTORE PUSH1 0x20 ADD PUSH1 0x60 DUP2 MSTORE PUSH1 0x20 ADD PUSH1 0x0 DUP2 MSTORE PUSH1 0x20 ADD PUSH1 0x0 DUP2 MSTORE PUSH1 0x20 ADD PUSH1 0x0 DUP2 MSTORE PUSH1 0x20 ADD PUSH1 0x0 ISZERO ISZERO DUP2 MSTORE PUSH1 0x20 ADD PUSH1 0x0 DUP2 MSTORE POP SWAP1 JUMP JUMPDEST PUSH1 0x1 PUSH1 0x1 PUSH1 0xA0 SHL SUB DUP3 AND PUSH1 0x0 SWAP1 DUP2 MSTORE PUSH1 0x4 PUSH1 0x20 MSTORE PUSH1 0x40 SWAP1 KECCAK256 SLOAD DUP1 PUSH2 0x91E JUMPI PUSH1 0x40 MLOAD PUSH3 0x461BCD PUSH1 0xE5 SHL DUP2 MSTORE PUSH1 0x20 PUSH1 0x4 DUP3 ADD MSTORE PUSH1 0x19 PUSH1 0x24 DUP3 ADD MSTORE PUSH32 0x436172626F6E5365616C3A204E6F206661726D20666F756E6400000000000000 PUSH1 0x44 DUP3 ADD MSTORE PUSH1 0x64 ADD JUMPDEST PUSH1 0x40 MLOAD DUP1 SWAP2 SUB SWAP1 REVERT JUMPDEST PUSH1 0x0 DUP2 DUP2 MSTORE PUSH1 0x3 PUSH1 0x20 SWAP1 DUP2 MSTORE PUSH1 0x40 SWAP2 DUP3 SWAP1 KECCAK256 DUP3 MLOAD PUSH2 0x160 DUP2 ADD DUP5 MSTORE DUP2 SLOAD DUP2 MSTORE PUSH1 0x1 DUP3 ADD SLOAD PUSH1 0x1 PUSH1 0x1 PUSH1 0xA0 SHL SUB AND SWAP3 DUP2 ADD SWAP3 SWAP1 SWAP3 MSTORE PUSH1 0x2 DUP2 ADD DUP1 SLOAD SWAP3 SWAP4 SWAP2 SWAP3 SWAP2 DUP5 ADD SWAP2 PUSH2 0x969 SWAP1 PUSH2 0x2CAB JUMP JUMPDEST DUP1 PUSH1 0x1F ADD PUSH1 0x20 DUP1 SWAP2 DIV MUL PUSH1 0x20 ADD PUSH1 0x40 MLOAD SWAP1 DUP2 ADD PUSH1 0x40 MSTORE DUP1 SWAP3 SWAP2 SWAP1 DUP2 DUP2 MSTORE PUSH1 0x20 ADD DUP3 DUP1 SLOAD PUSH2 0x995 SWAP1 PUSH2 0x2CAB JUMP JUMPDEST DUP1 ISZERO PUSH2 0x9E2 JUMPI DUP1 PUSH1 0x1F LT PUSH2 0x9B7 JUMPI PUSH2 0x100 DUP1 DUP4 SLOAD DIV MUL DUP4 MSTORE SWAP2 PUSH1 0x20 ADD SWAP2 PUSH2 0x9E2 JUMP JUMPDEST DUP3 ADD SWAP2 SWAP1 PUSH1 0x0 MSTORE PUSH1 0x20 PUSH1 0x0 KECCAK256 SWAP1 JUMPDEST DUP2 SLOAD DUP2 MSTORE SWAP1 PUSH1 0x1 ADD SWAP1 PUSH1 0x20 ADD DUP1 DUP4 GT PUSH2 0x9C5 JUMPI DUP3 SWAP1 SUB PUSH1 0x1F AND DUP3 ADD SWAP2 JUMPDEST POP POP POP POP POP DUP2 MSTORE PUSH1 0x20 ADD PUSH1 0x3 DUP3 ADD SLOAD DUP2 MSTORE PUSH1 0x20 ADD PUSH1 0x4 DUP3 ADD DUP1 SLOAD PUSH2 0xA05 SWAP1 PUSH2 0x2CAB JUMP JUMPDEST DUP1 PUSH1 0x1F ADD PUSH1 0x20 DUP1 SWAP2 DIV MUL PUSH1 0x20 ADD PUSH1 0x40 MLOAD SWAP1 DUP2 ADD PUSH1 0x40 MSTORE DUP1 SWAP3 SWAP2 SWAP1 DUP2 DUP2 MSTORE PUSH1 0x20 ADD DUP3 DUP1 SLOAD PUSH2 0xA31 SWAP1 PUSH2 0x2CAB JUMP JUMPDEST DUP1 ISZERO PUSH2 0xA7E JUMPI DUP1 PUSH1 0x1F LT PUSH2 0xA53 JUMPI PUSH2 0x100 DUP1 DUP4 SLOAD DIV MUL DUP4 MSTORE SWAP2 PUSH1 0x20 ADD SWAP2 PUSH2 0xA7E JUMP JUMPDEST DUP3 ADD SWAP2 SWAP1 PUSH1 0x0 MSTORE PUSH1 0x20 PUSH1 0x0 KECCAK256 SWAP1 JUMPDEST DUP2 SLOAD DUP2 MSTORE SWAP1 PUSH1 0x1 ADD SWAP1 PUSH1 0x20 ADD DUP1 DUP4 GT PUSH2 0xA61 JUMPI DUP3 SWAP1 SUB PUSH1 0x1F AND DUP3 ADD SWAP2 JUMPDEST POP POP POP POP POP DUP2 MSTORE PUSH1 0x20 ADD PUSH1 0x5 DUP3 ADD DUP1 SLOAD PUSH2 0xA97 SWAP1 PUSH2 0x2CAB JUMP JUMPDEST DUP1 PUSH1 0x1F ADD PUSH1 0x20 DUP1 SWAP2 DIV MUL PUSH1 0x20 ADD PUSH1 0x40 MLOAD SWAP1 DUP2 ADD PUSH1 0x40 MSTORE DUP1 SWAP3 SWAP2 SWAP1 DUP2 DUP2 MSTORE PUSH1 0x20 ADD DUP3 DUP1 SLOAD PUSH2 0xAC3 SWAP1 PUSH2 0x2CAB JUMP JUMPDEST DUP1 ISZERO PUSH2 0xB10 JUMPI DUP1 PUSH1 0x1F LT PUSH2 0xAE5 JUMPI PUSH2 0x100 DUP1 DUP4 SLOAD DIV MUL DUP4 MSTORE SWAP2 PUSH1 0x20 ADD SWAP2 PUSH2 0xB10 JUMP JUMPDEST DUP3 ADD SWAP2 SWAP1 PUSH1 0x0 MSTORE PUSH1 0x20 PUSH1 0x0 KECCAK256 SWAP1 JUMPDEST DUP2 SLOAD DUP2 MSTORE SWAP1 PUSH1 0x1 ADD SWAP1 PUSH1 0x20 ADD DUP1 DUP4 GT PUSH2 0xAF3 JUMPI DUP3 SWAP1 SUB PUSH1 0x1F AND DUP3 ADD SWAP2 JUMPDEST POP POP POP SWAP2 DUP4 MSTORE POP POP PUSH1 0x6 DUP3 ADD SLOAD PUSH1 0x20 DUP3 ADD MSTORE PUSH1 0x7 DUP3 ADD SLOAD PUSH1 0x40 DUP3 ADD MSTORE PUSH1 0x8 DUP3 ADD SLOAD PUSH1 0x60 DUP3 ADD MSTORE PUSH1 0x9 DUP3 ADD SLOAD PUSH1 0xFF AND ISZERO ISZERO PUSH1 0x80 DUP3 ADD MSTORE PUSH1 0xA SWAP1 SWAP2 ADD SLOAD PUSH1 0xA0 SWAP1 SWAP2 ADD MSTORE SWAP4 SWAP3 POP POP POP JUMP JUMPDEST PUSH1 0x0 DUP3 DUP2 MSTORE PUSH1 0x20 DUP2 SWAP1 MSTORE PUSH1 0x40 SWAP1 KECCAK256 PUSH1 0x1 ADD SLOAD PUSH2 0xB73 DUP2 PUSH2 0x21EE JUMP JUMPDEST PUSH2 0xB7D DUP4 DUP4 PUSH2 0x21FB JUMP JUMPDEST POP POP POP POP JUMP JUMPDEST PUSH1 0x1 PUSH1 0x1 PUSH1 0xA0 SHL SUB DUP2 AND CALLER EQ PUSH2 0xBC5 JUMPI PUSH1 0x40 MLOAD PUSH32 0x6697B23200000000000000000000000000000000000000000000000000000000 DUP2 MSTORE PUSH1 0x4 ADD PUSH1 0x40 MLOAD DUP1 SWAP2 SUB SWAP1 REVERT JUMPDEST PUSH2 0xBCF DUP3 DUP3 PUSH2 0x22A5 JUMP JUMPDEST POP POP POP JUMP JUMPDEST PUSH1 0x0 PUSH2 0xBDF DUP2 PUSH2 0x21EE JUMP JUMPDEST PUSH1 0x0 DUP3 DUP2 MSTORE PUSH1 0x3 PUSH1 0x20 MSTORE PUSH1 0x40 SWAP1 KECCAK256 PUSH1 0x9 DUP2 ADD DUP1 SLOAD PUSH1 0xFF NOT AND SWAP1 SSTORE PUSH1 0x1 ADD SLOAD PUSH2 0xBCF SWAP1 PUSH1 0x7 SWAP1 PUSH1 0x1 PUSH1 0x1 PUSH1 0xA0 SHL SUB AND PUSH2 0x2328 JUMP JUMPDEST CALLER PUSH1 0x0 SWAP1 DUP2 MSTORE PUSH1 0x4 PUSH1 0x20 MSTORE PUSH1 0x40 DUP2 KECCAK256 SLOAD ISZERO PUSH2 0xC6F JUMPI PUSH1 0x40 MLOAD PUSH3 0x461BCD PUSH1 0xE5 SHL DUP2 MSTORE PUSH1 0x20 PUSH1 0x4 DUP3 ADD MSTORE PUSH1 0x1E PUSH1 0x24 DUP3 ADD MSTORE PUSH32 0x436172626F6E5365616C3A20416C726561647920726567697374657265640000 PUSH1 0x44 DUP3 ADD MSTORE PUSH1 0x64 ADD PUSH2 0x915 JUMP JUMPDEST PUSH1 0x0 DUP5 GT PUSH2 0xCE5 JUMPI PUSH1 0x40 MLOAD PUSH3 0x461BCD PUSH1 0xE5 SHL DUP2 MSTORE PUSH1 0x20 PUSH1 0x4 DUP3 ADD MSTORE PUSH1 0x21 PUSH1 0x24 DUP3 ADD MSTORE PUSH32 0x436172626F6E5365616C3A2041726561206D75737420626520706F7369746976 PUSH1 0x44 DUP3 ADD MSTORE PUSH32 0x6500000000000000000000000000000000000000000000000000000000000000 PUSH1 0x64 DUP3 ADD MSTORE PUSH1 0x84 ADD PUSH2 0x915 JUMP JUMPDEST PUSH1 0x0 DUP6 MLOAD GT PUSH2 0xD36 JUMPI PUSH1 0x40 MLOAD PUSH3 0x461BCD PUSH1 0xE5 SHL DUP2 MSTORE PUSH1 0x20 PUSH1 0x4 DUP3 ADD MSTORE PUSH1 0x19 PUSH1 0x24 DUP3 ADD MSTORE PUSH32 0x436172626F6E5365616C3A204E616D6520726571756972656400000000000000 PUSH1 0x44 DUP3 ADD MSTORE PUSH1 0x64 ADD PUSH2 0x915 JUMP JUMPDEST PUSH1 0x1 DUP1 SLOAD SWAP1 PUSH1 0x0 PUSH2 0xD46 DUP4 PUSH2 0x2D0E JUMP JUMPDEST SWAP1 SWAP2 SSTORE POP POP PUSH1 0x40 DUP1 MLOAD PUSH2 0x160 DUP2 ADD DUP3 MSTORE PUSH1 0x1 DUP1 SLOAD DUP1 DUP4 MSTORE CALLER PUSH1 0x20 DUP1 DUP6 ADD SWAP2 DUP3 MSTORE DUP5 DUP7 ADD DUP12 DUP2 MSTORE PUSH1 0x60 DUP7 ADD DUP12 SWAP1 MSTORE PUSH1 0x80 DUP7 ADD DUP11 SWAP1 MSTORE PUSH1 0xA0 DUP7 ADD DUP10 SWAP1 MSTORE PUSH1 0x0 PUSH1 0xC0 DUP8 ADD DUP2 SWAP1 MSTORE PUSH1 0xE0 DUP8 ADD DUP2 SWAP1 MSTORE TIMESTAMP PUSH2 0x100 DUP9 ADD DUP2 SWAP1 MSTORE PUSH2 0x120 DUP9 ADD DUP8 SWAP1 MSTORE PUSH2 0x140 DUP9 ADD MSTORE SWAP4 DUP5 MSTORE PUSH1 0x3 SWAP1 SWAP2 MSTORE SWAP5 SWAP1 SWAP2 KECCAK256 DUP4 MLOAD DUP2 SSTORE SWAP1 MLOAD SWAP2 DUP2 ADD DUP1 SLOAD PUSH20 0xFFFFFFFFFFFFFFFFFFFFFFFFFFFFFFFFFFFFFFFF NOT AND PUSH1 0x1 PUSH1 0x1 PUSH1 0xA0 SHL SUB SWAP1 SWAP4 AND SWAP3 SWAP1 SWAP3 OR SWAP1 SWAP2 SSTORE SWAP2 MLOAD SWAP1 SWAP2 DUP3 SWAP2 PUSH1 0x2 DUP3 ADD SWAP1 PUSH2 0xDFD SWAP1 DUP3 PUSH2 0x2D75 JUMP JUMPDEST POP PUSH1 0x60 DUP3 ADD MLOAD PUSH1 0x3 DUP3 ADD SSTORE PUSH1 0x80 DUP3 ADD MLOAD PUSH1 0x4 DUP3 ADD SWAP1 PUSH2 0xE1C SWAP1 DUP3 PUSH2 0x2D75 JUMP JUMPDEST POP PUSH1 0xA0 DUP3 ADD MLOAD PUSH1 0x5 DUP3 ADD SWAP1 PUSH2 0xE31 SWAP1 DUP3 PUSH2 0x2D75 JUMP JUMPDEST POP PUSH1 0xC0 DUP3 ADD MLOAD PUSH1 0x6 DUP3 ADD SSTORE PUSH1 0xE0 DUP3 ADD MLOAD PUSH1 0x7 DUP1 DUP4 ADD SWAP2 SWAP1 SWAP2 SSTORE PUSH2 0x100 DUP4 ADD MLOAD PUSH1 0x8 DUP4 ADD SSTORE PUSH2 0x120 DUP4 ADD MLOAD PUSH1 0x9 DUP4 ADD DUP1 SLOAD PUSH1 0xFF NOT AND SWAP2 ISZERO ISZERO SWAP2 SWAP1 SWAP2 OR SWAP1 SSTORE PUSH2 0x140 SWAP1 SWAP3 ADD MLOAD PUSH1 0xA SWAP1 SWAP2 ADD SSTORE PUSH1 0x1 SLOAD CALLER PUSH1 0x0 DUP2 DUP2 MSTORE PUSH1 0x4 PUSH1 0x20 MSTORE PUSH1 0x40 SWAP1 KECCAK256 SWAP2 SWAP1 SWAP2 SSTORE PUSH2 0xE9B SWAP2 SWAP1 PUSH2 0x233D JUMP JUMPDEST POP PUSH1 0x1 SLOAD CALLER PUSH1 0x1 PUSH1 0x1 PUSH1 0xA0 SHL SUB AND PUSH32 0x919BCD31E54B123779DB7B85E1B5838D042D8E6BFC079FE8B59EC02719849EEB DUP9 DUP9 DUP9 PUSH1 0x40 MLOAD PUSH2 0xEDC SWAP4 SWAP3 SWAP2 SWAP1 PUSH2 0x2E35 JUMP JUMPDEST PUSH1 0x40 MLOAD DUP1 SWAP2 SUB SWAP1 LOG3 POP POP PUSH1 0x1 SLOAD SWAP5 SWAP4 POP POP POP POP JUMP JUMPDEST PUSH1 0x0 DUP5 DUP2 MSTORE PUSH1 0x3 PUSH1 0x20 MSTORE PUSH1 0x40 SWAP1 KECCAK256 PUSH1 0x9 ADD SLOAD PUSH1 0x60 SWAP1 DUP6 SWAP1 PUSH1 0xFF AND PUSH2 0xF57 JUMPI PUSH1 0x40 MLOAD PUSH3 0x461BCD PUSH1 0xE5 SHL DUP2 MSTORE PUSH1 0x20 PUSH1 0x4 DUP3 ADD MSTORE PUSH1 0x1B PUSH1 0x24 DUP3 ADD MSTORE PUSH32 0x436172626F6E5365616C3A204661726D206E6F74206163746976650000000000 PUSH1 0x44 DUP3 ADD MSTORE PUSH1 0x64 ADD PUSH2 0x915 JUMP JUMPDEST PUSH1 0x0 DUP7 DUP2 MSTORE PUSH1 0x3 PUSH1 0x20 MSTORE PUSH1 0x40 SWAP1 KECCAK256 PUSH1 0x1 ADD SLOAD PUSH1 0x1 PUSH1 0x1 PUSH1 0xA0 SHL SUB AND CALLER EQ DUP1 PUSH2 0xFAD JUMPI POP CALLER PUSH1 0x0 SWAP1 DUP2 MSTORE PUSH32 0xA629F6981C2F6895A67DC766E8E03FF72D04A413D0D8773A3CA56E9E474032C1 PUSH1 0x20 MSTORE PUSH1 0x40 SWAP1 KECCAK256 SLOAD PUSH1 0xFF AND JUMPDEST PUSH2 0xFF9 JUMPI PUSH1 0x40 MLOAD PUSH3 0x461BCD PUSH1 0xE5 SHL DUP2 MSTORE PUSH1 0x20 PUSH1 0x4 DUP3 ADD MSTORE PUSH1 0x1A PUSH1 0x24 DUP3 ADD MSTORE PUSH32 0x436172626F6E5365616C3A204E6F7420617574686F72697A6564000000000000 PUSH1 0x44 DUP3 ADD MSTORE PUSH1 0x64 ADD PUSH2 0x915 JUMP JUMPDEST DUP4 MLOAD DUP6 MLOAD EQ DUP1 ISZERO PUSH2 0x100B JUMPI POP DUP3 MLOAD DUP6 MLOAD EQ JUMPDEST PUSH2 0x107D JUMPI PUSH1 0x40 MLOAD PUSH3 0x461BCD PUSH1 0xE5 SHL DUP2 MSTORE PUSH1 0x20 PUSH1 0x4 DUP3 ADD MSTORE PUSH1 0x21 PUSH1 0x24 DUP3 ADD MSTORE PUSH32 0x436172626F6E5365616C3A204172726179206C656E677468206D69736D617463 PUSH1 0x44 DUP3 ADD MSTORE PUSH32 0x6800000000000000000000000000000000000000000000000000000000000000 PUSH1 0x64 DUP3 ADD MSTORE PUSH1 0x84 ADD PUSH2 0x915 JUMP JUMPDEST PUSH1 0x0 DUP6 MLOAD PUSH8 0xFFFFFFFFFFFFFFFF DUP2 GT ISZERO PUSH2 0x1099 JUMPI PUSH2 0x1099 PUSH2 0x2744 JUMP JUMPDEST PUSH1 0x40 MLOAD SWAP1 DUP1 DUP3 MSTORE DUP1 PUSH1 0x20 MUL PUSH1 0x20 ADD DUP3 ADD PUSH1 0x40 MSTORE DUP1 ISZERO PUSH2 0x10C2 JUMPI DUP2 PUSH1 0x20 ADD PUSH1 0x20 DUP3 MUL DUP1 CALLDATASIZE DUP4 CALLDATACOPY ADD SWAP1 POP JUMPDEST POP SWAP1 POP PUSH1 0x0 DUP1 JUMPDEST DUP8 MLOAD DUP2 LT ISZERO PUSH2 0x12E8 JUMPI PUSH1 0x0 DUP9 DUP3 DUP2 MLOAD DUP2 LT PUSH2 0x10E6 JUMPI PUSH2 0x10E6 PUSH2 0x2E6A JUMP JUMPDEST PUSH1 0x20 MUL PUSH1 0x20 ADD ADD MLOAD GT PUSH2 0x1147 JUMPI PUSH1 0x40 MLOAD PUSH3 0x461BCD PUSH1 0xE5 SHL DUP2 MSTORE PUSH1 0x20 PUSH1 0x4 DUP3 ADD MSTORE PUSH1 0x23 PUSH1 0x24 DUP3 ADD MSTORE PUSH32 0x436172626F6E5365616C3A20416D6F756E74206D75737420626520706F736974 PUSH1 0x44 DUP3 ADD MSTORE PUSH3 0x697665 PUSH1 0xE8 SHL PUSH1 0x64 DUP3 ADD MSTORE PUSH1 0x84 ADD PUSH2 0x915 JUMP JUMPDEST PUSH1 0x2 DUP1 SLOAD SWAP1 PUSH1 0x0 PUSH2 0x1157 DUP4 PUSH2 0x2D0E JUMP JUMPDEST SWAP2 SWAP1 POP SSTORE POP PUSH1 0x0 PUSH1 0x40 MLOAD DUP1 PUSH1 0xE0 ADD PUSH1 0x40 MSTORE DUP1 PUSH1 0x2 SLOAD DUP2 MSTORE PUSH1 0x20 ADD DUP12 DUP2 MSTORE PUSH1 0x20 ADD DUP11 DUP5 DUP2 MLOAD DUP2 LT PUSH2 0x1189 JUMPI PUSH2 0x1189 PUSH2 0x2E6A JUMP JUMPDEST PUSH1 0x20 MUL PUSH1 0x20 ADD ADD MLOAD DUP2 MSTORE PUSH1 0x20 ADD DUP10 DUP5 DUP2 MLOAD DUP2 LT PUSH2 0x11A8 JUMPI PUSH2 0x11A8 PUSH2 0x2E6A JUMP JUMPDEST PUSH1 0x20 MUL PUSH1 0x20 ADD ADD MLOAD DUP2 MSTORE PUSH1 0x20 ADD DUP9 DUP5 DUP2 MLOAD DUP2 LT PUSH2 0x11C7 JUMPI PUSH2 0x11C7 PUSH2 0x2E6A JUMP JUMPDEST PUSH1 0x20 SWAP1 DUP2 MUL SWAP2 SWAP1 SWAP2 ADD DUP2 ADD MLOAD DUP3 MSTORE TIMESTAMP DUP3 DUP3 ADD MSTORE CALLER PUSH1 0x40 SWAP3 DUP4 ADD MSTORE PUSH1 0x0 DUP14 DUP2 MSTORE PUSH1 0x5 DUP3 MSTORE DUP3 DUP2 KECCAK256 DUP1 SLOAD PUSH1 0x1 DUP2 DUP2 ADD DUP4 SSTORE SWAP2 DUP4 MSTORE SWAP2 DUP4 SWAP1 KECCAK256 DUP6 MLOAD PUSH1 0x7 SWAP1 SWAP4 MUL ADD SWAP2 DUP3 SSTORE SWAP2 DUP5 ADD MLOAD SWAP2 DUP2 ADD SWAP2 SWAP1 SWAP2 SSTORE SWAP1 DUP3 ADD MLOAD PUSH1 0x2 DUP3 ADD SSTORE PUSH1 0x60 DUP3 ADD MLOAD SWAP2 SWAP3 POP DUP3 SWAP2 PUSH1 0x3 DUP3 ADD SWAP1 PUSH2 0x1235 SWAP1 DUP3 PUSH2 0x2D75 JUMP JUMPDEST POP PUSH1 0x80 DUP3 ADD MLOAD PUSH1 0x4 DUP3 ADD SWAP1 PUSH2 0x124A SWAP1 DUP3 PUSH2 0x2D75 JUMP JUMPDEST POP PUSH1 0xA0 DUP3 ADD MLOAD PUSH1 0x5 DUP3 ADD SSTORE PUSH1 0xC0 SWAP1 SWAP2 ADD MLOAD PUSH1 0x6 SWAP1 SWAP2 ADD DUP1 SLOAD PUSH20 0xFFFFFFFFFFFFFFFFFFFFFFFFFFFFFFFFFFFFFFFF NOT AND PUSH1 0x1 PUSH1 0x1 PUSH1 0xA0 SHL SUB SWAP1 SWAP3 AND SWAP2 SWAP1 SWAP2 OR SWAP1 SSTORE PUSH1 0x2 SLOAD DUP5 MLOAD DUP6 SWAP1 DUP5 SWAP1 DUP2 LT PUSH2 0x12A1 JUMPI PUSH2 0x12A1 PUSH2 0x2E6A JUMP JUMPDEST PUSH1 0x20 MUL PUSH1 0x20 ADD ADD DUP2 DUP2 MSTORE POP POP DUP9 DUP3 DUP2 MLOAD DUP2 LT PUSH2 0x12BF JUMPI PUSH2 0x12BF PUSH2 0x2E6A JUMP JUMPDEST PUSH1 0x20 MUL PUSH1 0x20 ADD ADD MLOAD DUP4 PUSH2 0x12D2 SWAP2 SWAP1 PUSH2 0x2E80 JUMP JUMPDEST SWAP3 POP POP DUP1 DUP1 PUSH2 0x12E0 SWAP1 PUSH2 0x2D0E JUMP JUMPDEST SWAP2 POP POP PUSH2 0x10C9 JUMP JUMPDEST POP PUSH1 0x0 DUP9 DUP2 MSTORE PUSH1 0x3 PUSH1 0x20 MSTORE PUSH1 0x40 DUP2 KECCAK256 PUSH1 0x6 ADD DUP1 SLOAD DUP4 SWAP3 SWAP1 PUSH2 0x130A SWAP1 DUP5 SWAP1 PUSH2 0x2E80 JUMP JUMPDEST SWAP1 SWAP2 SSTORE POP POP POP PUSH1 0x0 DUP8 DUP2 MSTORE PUSH1 0x3 PUSH1 0x20 MSTORE PUSH1 0x40 SWAP1 KECCAK256 TIMESTAMP PUSH1 0x8 SWAP1 SWAP2 ADD SSTORE SWAP2 POP POP SWAP5 SWAP4 POP POP POP POP JUMP JUMPDEST PUSH1 0x0 DUP5 DUP2 MSTORE PUSH1 0x3 PUSH1 0x20 MSTORE PUSH1 0x40 DUP2 KECCAK256 PUSH1 0x9 ADD SLOAD DUP6 SWAP1 PUSH1 0xFF AND PUSH2 0x1393 JUMPI PUSH1 0x40 MLOAD PUSH3 0x461BCD PUSH1 0xE5 SHL DUP2 MSTORE PUSH1 0x20 PUSH1 0x4 DUP3 ADD MSTORE PUSH1 0x1B PUSH1 0x24 DUP3 ADD MSTORE PUSH32 0x436172626F6E5365616C3A204661726D206E6F74206163746976650000000000 PUSH1 0x44 DUP3 ADD MSTORE PUSH1 0x64 ADD PUSH2 0x915 JUMP JUMPDEST PUSH1 0x0 DUP7 DUP2 MSTORE PUSH1 0x3 PUSH1 0x20 MSTORE PUSH1 0x40 SWAP1 KECCAK256 PUSH1 0x1 ADD SLOAD PUSH1 0x1 PUSH1 0x1 PUSH1 0xA0 SHL SUB AND CALLER EQ DUP1 PUSH2 0x13E9 JUMPI POP CALLER PUSH1 0x0 SWAP1 DUP2 MSTORE PUSH32 0xA629F6981C2F6895A67DC766E8E03FF72D04A413D0D8773A3CA56E9E474032C1 PUSH1 0x20 MSTORE PUSH1 0x40 SWAP1 KECCAK256 SLOAD PUSH1 0xFF AND JUMPDEST DUP1 PUSH2 0x1422 JUMPI POP CALLER PUSH1 0x0 SWAP1 DUP2 MSTORE PUSH32 0x1DA0B5176DFE03406AF5A6EED66CA01DDA9B45AC4DA671C3FA379CB93717EF81 PUSH1 0x20 MSTORE PUSH1 0x40 SWAP1 KECCAK256 SLOAD PUSH1 0xFF AND JUMPDEST PUSH2 0x146E JUMPI PUSH1 0x40 MLOAD PUSH3 0x461BCD PUSH1 0xE5 SHL DUP2 MSTORE PUSH1 0x20 PUSH1 0x4 DUP3 ADD MSTORE PUSH1 0x1A PUSH1 0x24 DUP3 ADD MSTORE PUSH32 0x436172626F6E5365616C3A204E6F7420617574686F72697A6564000000000000 PUSH1 0x44 DUP3 ADD MSTORE PUSH1 0x64 ADD PUSH2 0x915 JUMP JUMPDEST PUSH1 0x0 DUP6 GT PUSH2 0x14CA JUMPI PUSH1 0x40 MLOAD PUSH3 0x461BCD PUSH1 0xE5 SHL DUP2 MSTORE PUSH1 0x20 PUSH1 0x4 DUP3 ADD MSTORE PUSH1 0x23 PUSH1 0x24 DUP3 ADD MSTORE PUSH32 0x436172626F6E5365616C3A20416D6F756E74206D75737420626520706F736974 PUSH1 0x44 DUP3 ADD MSTORE PUSH3 0x697665 PUSH1 0xE8 SHL PUSH1 0x64 DUP3 ADD MSTORE PUSH1 0x84 ADD PUSH2 0x915 JUMP JUMPDEST PUSH1 0x2 DUP1 SLOAD SWAP1 PUSH1 0x0 PUSH2 0x14DA DUP4 PUSH2 0x2D0E JUMP JUMPDEST SWAP1 SWAP2 SSTORE POP POP PUSH1 0x40 DUP1 MLOAD PUSH1 0xE0 DUP2 ADD DUP3 MSTORE PUSH1 0x2 DUP1 SLOAD DUP3 MSTORE PUSH1 0x20 DUP1 DUP4 ADD DUP11 DUP2 MSTORE DUP4 DUP6 ADD DUP11 DUP2 MSTORE PUSH1 0x60 DUP6 ADD DUP11 DUP2 MSTORE PUSH1 0x80 DUP7 ADD DUP11 SWAP1 MSTORE TIMESTAMP PUSH1 0xA0 DUP8 ADD MSTORE CALLER PUSH1 0xC0 DUP8 ADD MSTORE PUSH1 0x0 DUP14 DUP2 MSTORE PUSH1 0x5 DUP6 MSTORE SWAP7 DUP8 KECCAK256 DUP1 SLOAD PUSH1 0x1 DUP2 DUP2 ADD DUP4 SSTORE SWAP2 DUP10 MSTORE SWAP5 SWAP1 SWAP8 KECCAK256 DUP7 MLOAD PUSH1 0x7 SWAP1 SWAP6 MUL ADD SWAP4 DUP5 SSTORE SWAP2 MLOAD SWAP6 DUP4 ADD SWAP6 SWAP1 SWAP6 SSTORE SWAP4 MLOAD SWAP2 DUP2 ADD SWAP2 SWAP1 SWAP2 SSTORE SWAP2 MLOAD SWAP1 SWAP2 DUP3 SWAP2 PUSH1 0x3 DUP3 ADD SWAP1 PUSH2 0x1565 SWAP1 DUP3 PUSH2 0x2D75 JUMP JUMPDEST POP PUSH1 0x80 DUP3 ADD MLOAD PUSH1 0x4 DUP3 ADD SWAP1 PUSH2 0x157A SWAP1 DUP3 PUSH2 0x2D75 JUMP JUMPDEST POP PUSH1 0xA0 DUP3 ADD MLOAD PUSH1 0x5 DUP3 ADD SSTORE PUSH1 0xC0 SWAP1 SWAP2 ADD MLOAD PUSH1 0x6 SWAP2 DUP3 ADD DUP1 SLOAD PUSH20 0xFFFFFFFFFFFFFFFFFFFFFFFFFFFFFFFFFFFFFFFF NOT AND PUSH1 0x1 PUSH1 0x1 PUSH1 0xA0 SHL SUB SWAP1 SWAP3 AND SWAP2 SWAP1 SWAP2 OR SWAP1 SSTORE PUSH1 0x0 DUP9 DUP2 MSTORE PUSH1 0x3 PUSH1 0x20 MSTORE PUSH1 0x40 DUP2 KECCAK256 SWAP1 SWAP2 ADD DUP1 SLOAD DUP9 SWAP3 SWAP1 PUSH2 0x15DB SWAP1 DUP5 SWAP1 PUSH2 0x2E80 JUMP JUMPDEST SWAP1 SWAP2 SSTORE POP POP PUSH1 0x0 DUP8 DUP2 MSTORE PUSH1 0x3 PUSH1 0x20 MSTORE PUSH1 0x40 SWAP1 DUP2 SWAP1 KECCAK256 TIMESTAMP PUSH1 0x8 SWAP1 SWAP2 ADD SSTORE PUSH1 0x2 SLOAD SWAP1 MLOAD DUP9 SWAP1 PUSH32 0xC89C68410AC058DD8FED6550A79614CC8FCD9B7B2C08CF7B4756CFE6BE54593F SWAP1 PUSH2 0x162F SWAP1 DUP11 SWAP1 DUP11 SWAP1 DUP11 SWAP1 PUSH2 0x2E93 JUMP JUMPDEST PUSH1 0x40 MLOAD DUP1 SWAP2 SUB SWAP1 LOG3 POP POP PUSH1 0x2 SLOAD SWAP6 SWAP5 POP POP POP POP POP JUMP JUMPDEST PUSH1 0x3 PUSH1 0x20 MSTORE PUSH1 0x0 SWAP1 DUP2 MSTORE PUSH1 0x40 SWAP1 KECCAK256 DUP1 SLOAD PUSH1 0x1 DUP3 ADD SLOAD PUSH1 0x2 DUP4 ADD DUP1 SLOAD SWAP3 SWAP4 PUSH1 0x1 PUSH1 0x1 PUSH1 0xA0 SHL SUB SWAP1 SWAP3 AND SWAP3 PUSH2 0x1677 SWAP1 PUSH2 0x2CAB JUMP JUMPDEST DUP1 PUSH1 0x1F ADD PUSH1 0x20 DUP1 SWAP2 DIV MUL PUSH1 0x20 ADD PUSH1 0x40 MLOAD SWAP1 DUP2 ADD PUSH1 0x40 MSTORE DUP1 SWAP3 SWAP2 SWAP1 DUP2 DUP2 MSTORE PUSH1 0x20 ADD DUP3 DUP1 SLOAD PUSH2 0x16A3 SWAP1 PUSH2 0x2CAB JUMP JUMPDEST DUP1 ISZERO PUSH2 0x16F0 JUMPI DUP1 PUSH1 0x1F LT PUSH2 0x16C5 JUMPI PUSH2 0x100 DUP1 DUP4 SLOAD DIV MUL DUP4 MSTORE SWAP2 PUSH1 0x20 ADD SWAP2 PUSH2 0x16F0 JUMP JUMPDEST DUP3 ADD SWAP2 SWAP1 PUSH1 0x0 MSTORE PUSH1 0x20 PUSH1 0x0 KECCAK256 SWAP1 JUMPDEST DUP2 SLOAD DUP2 MSTORE SWAP1 PUSH1 0x1 ADD SWAP1 PUSH1 0x20 ADD DUP1 DUP4 GT PUSH2 0x16D3 JUMPI DUP3 SWAP1 SUB PUSH1 0x1F AND DUP3 ADD SWAP2 JUMPDEST POP POP POP POP POP SWAP1 DUP1 PUSH1 0x3 ADD SLOAD SWAP1 DUP1 PUSH1 0x4 ADD DUP1 SLOAD PUSH2 0x170B SWAP1 PUSH2 0x2CAB JUMP JUMPDEST DUP1 PUSH1 0x1F ADD PUSH1 0x20 DUP1 SWAP2 DIV MUL PUSH1 0x20 ADD PUSH1 0x40 MLOAD SWAP1 DUP2 ADD PUSH1 0x40 MSTORE DUP1 SWAP3 SWAP2 SWAP1 DUP2 DUP2 MSTORE PUSH1 0x20 ADD DUP3 DUP1 SLOAD PUSH2 0x1737 SWAP1 PUSH2 0x2CAB JUMP JUMPDEST DUP1 ISZERO PUSH2 0x1784 JUMPI DUP1 PUSH1 0x1F LT PUSH2 0x1759 JUMPI PUSH2 0x100 DUP1 DUP4 SLOAD DIV MUL DUP4 MSTORE SWAP2 PUSH1 0x20 ADD SWAP2 PUSH2 0x1784 JUMP JUMPDEST DUP3 ADD SWAP2 SWAP1 PUSH1 0x0 MSTORE PUSH1 0x20 PUSH1 0x0 KECCAK256 SWAP1 JUMPDEST DUP2 SLOAD DUP2 MSTORE SWAP1 PUSH1 0x1 ADD SWAP1 PUSH1 0x20 ADD DUP1 DUP4 GT PUSH2 0x1767 JUMPI DUP3 SWAP1 SUB PUSH1 0x1F AND DUP3 ADD SWAP2 JUMPDEST POP POP POP POP POP SWAP1 DUP1 PUSH1 0x5 ADD DUP1 SLOAD PUSH2 0x1799 SWAP1 PUSH2 0x2CAB JUMP JUMPDEST DUP1 PUSH1 0x1F ADD PUSH1 0x20 DUP1 SWAP2 DIV MUL PUSH1 0x20 ADD PUSH1 0x40 MLOAD SWAP1 DUP2 ADD PUSH1 0x40 MSTORE DUP1 SWAP3 SWAP2 SWAP1 DUP2 DUP2 MSTORE PUSH1 0x20 ADD DUP3 DUP1 SLOAD PUSH2 0x17C5 SWAP1 PUSH2 0x2CAB JUMP JUMPDEST DUP1 ISZERO PUSH2 0x1812 JUMPI DUP1 PUSH1 0x1F LT PUSH2 0x17E7 JUMPI PUSH2 0x100 DUP1 DUP4 SLOAD DIV MUL DUP4 MSTORE SWAP2 PUSH1 0x20 ADD SWAP2 PUSH2 0x1812 JUMP JUMPDEST DUP3 ADD SWAP2 SWAP1 PUSH1 0x0 MSTORE PUSH1 0x20 PUSH1 0x0 KECCAK256 SWAP1 JUMPDEST DUP2 SLOAD DUP2 MSTORE SWAP1 PUSH1 0x1 ADD SWAP1 PUSH1 0x20 ADD DUP1 DUP4 GT PUSH2 0x17F5 JUMPI DUP3 SWAP1 SUB PUSH1 0x1F AND DUP3 ADD SWAP2 JUMPDEST POP POP POP POP PUSH1 0x6 DUP4 ADD SLOAD PUSH1 0x7 DUP5 ADD SLOAD PUSH1 0x8 DUP6 ADD SLOAD PUSH1 0x9 DUP7 ADD SLOAD PUSH1 0xA SWAP1 SWAP7 ADD SLOAD SWAP5 SWAP6 SWAP3 SWAP5 SWAP2 SWAP4 POP SWAP2 PUSH1 0xFF AND SWAP1 DUP12 JUMP JUMPDEST PUSH1 0x0 PUSH2 0x184A DUP2 PUSH2 0x21EE JUMP JUMPDEST PUSH1 0x0 DUP3 DUP2 MSTORE PUSH1 0x3 PUSH1 0x20 MSTORE PUSH1 0x40 SWAP1 KECCAK256 PUSH1 0x9 DUP2 ADD DUP1 SLOAD PUSH1 0xFF NOT AND PUSH1 0x1 SWAP1 DUP2 OR SWAP1 SWAP2 SSTORE ADD SLOAD PUSH2 0xBCF SWAP1 PUSH1 0x7 SWAP1 PUSH1 0x1 PUSH1 0x1 PUSH1 0xA0 SHL SUB AND PUSH2 0x233D JUMP JUMPDEST PUSH1 0x9 SLOAD PUSH1 0x0 SWAP1 PUSH1 0x1 PUSH1 0x1 PUSH1 0xA0 SHL SUB AND CALLER EQ PUSH2 0x18DE JUMPI PUSH1 0x40 MLOAD PUSH3 0x461BCD PUSH1 0xE5 SHL DUP2 MSTORE PUSH1 0x20 PUSH1 0x4 DUP3 ADD MSTORE PUSH1 0x1F PUSH1 0x24 DUP3 ADD MSTORE PUSH32 0x436172626F6E5365616C3A204F6E6C7920746F6B656E20636F6E747261637400 PUSH1 0x44 DUP3 ADD MSTORE PUSH1 0x64 ADD PUSH2 0x915 JUMP JUMPDEST PUSH1 0x0 DUP3 GT PUSH2 0x193A JUMPI PUSH1 0x40 MLOAD PUSH3 0x461BCD PUSH1 0xE5 SHL DUP2 MSTORE PUSH1 0x20 PUSH1 0x4 DUP3 ADD MSTORE PUSH1 0x23 PUSH1 0x24 DUP3 ADD MSTORE PUSH32 0x436172626F6E5365616C3A20416D6F756E74206D75737420626520706F736974 PUSH1 0x44 DUP3 ADD MSTORE PUSH3 0x697665 PUSH1 0xE8 SHL PUSH1 0x64 DUP3 ADD MSTORE PUSH1 0x84 ADD PUSH2 0x915 JUMP JUMPDEST PUSH1 0x0 PUSH2 0x1945 DUP5 PUSH2 0x5E3 JUMP JUMPDEST SWAP1 POP DUP3 DUP2 LT ISZERO PUSH2 0x1997 JUMPI PUSH1 0x40 MLOAD PUSH3 0x461BCD PUSH1 0xE5 SHL DUP2 MSTORE PUSH1 0x20 PUSH1 0x4 DUP3 ADD MSTORE PUSH1 0x1F PUSH1 0x24 DUP3 ADD MSTORE PUSH32 0x436172626F6E5365616C3A20496E73756666696369656E7420636172626F6E00 PUSH1 0x44 DUP3 ADD MSTORE PUSH1 0x64 ADD PUSH2 0x915 JUMP JUMPDEST PUSH1 0x0 DUP5 DUP2 MSTORE PUSH1 0x3 PUSH1 0x20 MSTORE PUSH1 0x40 DUP2 KECCAK256 PUSH1 0x7 ADD DUP1 SLOAD DUP6 SWAP3 SWAP1 PUSH2 0x19B8 SWAP1 DUP5 SWAP1 PUSH2 0x2E80 JUMP JUMPDEST SWAP1 SWAP2 SSTORE POP POP PUSH1 0x0 DUP5 DUP2 MSTORE PUSH1 0x3 PUSH1 0x20 MSTORE PUSH1 0x40 SWAP1 KECCAK256 PUSH1 0x7 ADD SLOAD DUP5 SWAP1 PUSH32 0x9D6F0793923F62E1894F0295D099599C4D713CB761A6B59E42A7C86BE8D89A6 SWAP1 PUSH2 0x19FD DUP7 DUP6 PUSH2 0x2CFB JUMP JUMPDEST PUSH1 0x40 DUP1 MLOAD SWAP3 DUP4 MSTORE PUSH1 0x20 DUP4 ADD SWAP2 SWAP1 SWAP2 MSTORE ADD PUSH1 0x40 MLOAD DUP1 SWAP2 SUB SWAP1 LOG2 POP PUSH1 0x1 SWAP4 SWAP3 POP POP POP JUMP JUMPDEST PUSH1 0x60 PUSH2 0x1A2B PUSH1 0x7 PUSH2 0x2352 JUMP JUMPDEST SWAP1 POP SWAP1 JUMP JUMPDEST PUSH1 0x9 SLOAD PUSH1 0x1 PUSH1 0x1 PUSH1 0xA0 SHL SUB AND CALLER EQ PUSH2 0x1A8A JUMPI PUSH1 0x40 MLOAD PUSH3 0x461BCD PUSH1 0xE5 SHL DUP2 MSTORE PUSH1 0x20 PUSH1 0x4 DUP3 ADD MSTORE PUSH1 0x1F PUSH1 0x24 DUP3 ADD MSTORE PUSH32 0x436172626F6E5365616C3A204F6E6C7920746F6B656E20636F6E747261637400 PUSH1 0x44 DUP3 ADD MSTORE PUSH1 0x64 ADD PUSH2 0x915 JUMP JUMPDEST PUSH1 0x0 SWAP2 DUP3 MSTORE PUSH1 0x6 PUSH1 0x20 SWAP1 DUP2 MSTORE PUSH1 0x40 DUP4 KECCAK256 DUP1 SLOAD PUSH1 0x1 DUP2 ADD DUP3 SSTORE SWAP1 DUP5 MSTORE SWAP3 KECCAK256 SWAP1 SWAP2 ADD SSTORE JUMP JUMPDEST PUSH1 0x6 PUSH1 0x20 MSTORE DUP2 PUSH1 0x0 MSTORE PUSH1 0x40 PUSH1 0x0 KECCAK256 DUP2 DUP2 SLOAD DUP2 LT PUSH2 0x1AC9 JUMPI PUSH1 0x0 DUP1 REVERT JUMPDEST SWAP1 PUSH1 0x0 MSTORE PUSH1 0x20 PUSH1 0x0 KECCAK256 ADD PUSH1 0x0 SWAP2 POP SWAP2 POP POP SLOAD DUP2 JUMP JUMPDEST PUSH1 0x5 PUSH1 0x20 MSTORE DUP2 PUSH1 0x0 MSTORE PUSH1 0x40 PUSH1 0x0 KECCAK256 DUP2 DUP2 SLOAD DUP2 LT PUSH2 0x1AFA JUMPI PUSH1 0x0 DUP1 REVERT JUMPDEST SWAP1 PUSH1 0x0 MSTORE PUSH1 0x20 PUSH1 0x0 KECCAK256 SWAP1 PUSH1 0x7 MUL ADD PUSH1 0x0 SWAP2 POP SWAP2 POP POP DUP1 PUSH1 0x0 ADD SLOAD SWAP1 DUP1 PUSH1 0x1 ADD SLOAD SWAP1 DUP1 PUSH1 0x2 ADD SLOAD SWAP1 DUP1 PUSH1 0x3 ADD DUP1 SLOAD PUSH2 0x1B30 SWAP1 PUSH2 0x2CAB JUMP JUMPDEST DUP1 PUSH1 0x1F ADD PUSH1 0x20 DUP1 SWAP2 DIV MUL PUSH1 0x20 ADD PUSH1 0x40 MLOAD SWAP1 DUP2 ADD PUSH1 0x40 MSTORE DUP1 SWAP3 SWAP2 SWAP1 DUP2 DUP2 MSTORE PUSH1 0x20 ADD DUP3 DUP1 SLOAD PUSH2 0x1B5C SWAP1 PUSH2 0x2CAB JUMP JUMPDEST DUP1 ISZERO PUSH2 0x1BA9 JUMPI DUP1 PUSH1 0x1F LT PUSH2 0x1B7E JUMPI PUSH2 0x100 DUP1 DUP4 SLOAD DIV MUL DUP4 MSTORE SWAP2 PUSH1 0x20 ADD SWAP2 PUSH2 0x1BA9 JUMP JUMPDEST DUP3 ADD SWAP2 SWAP1 PUSH1 0x0 MSTORE PUSH1 0x20 PUSH1 0x0 KECCAK256 SWAP1 JUMPDEST DUP2 SLOAD DUP2 MSTORE SWAP1 PUSH1 0x1 ADD SWAP1 PUSH1 0x20 ADD DUP1 DUP4 GT PUSH2 0x1B8C JUMPI DUP3 SWAP1 SUB PUSH1 0x1F AND DUP3 ADD SWAP2 JUMPDEST POP POP POP POP POP SWAP1 DUP1 PUSH1 0x4 ADD DUP1 SLOAD PUSH2 0x1BBE SWAP1 PUSH2 0x2CAB JUMP JUMPDEST DUP1 PUSH1 0x1F ADD PUSH1 0x20 DUP1 SWAP2 DIV MUL PUSH1 0x20 ADD PUSH1 0x40 MLOAD SWAP1 DUP2 ADD PUSH1 0x40 MSTORE DUP1 SWAP3 SWAP2 SWAP1 DUP2 DUP2 MSTORE PUSH1 0x20 ADD DUP3 DUP1 SLOAD PUSH2 0x1BEA SWAP1 PUSH2 0x2CAB JUMP JUMPDEST DUP1 ISZERO PUSH2 0x1C37 JUMPI DUP1 PUSH1 0x1F LT PUSH2 0x1C0C JUMPI PUSH2 0x100 DUP1 DUP4 SLOAD DIV MUL DUP4 MSTORE SWAP2 PUSH1 0x20 ADD SWAP2 PUSH2 0x1C37 JUMP JUMPDEST DUP3 ADD SWAP2 SWAP1 PUSH1 0x0 MSTORE PUSH1 0x20 PUSH1 0x0 KECCAK256 SWAP1 JUMPDEST DUP2 SLOAD DUP2 MSTORE SWAP1 PUSH1 0x1 ADD SWAP1 PUSH1 0x20 ADD DUP1 DUP4 GT PUSH2 0x1C1A JUMPI DUP3 SWAP1 SUB PUSH1 0x1F AND DUP3 ADD SWAP2 JUMPDEST POP POP POP POP PUSH1 0x5 DUP4 ADD SLOAD PUSH1 0x6 SWAP1 SWAP4 ADD SLOAD SWAP2 SWAP3 SWAP2 PUSH1 0x1 PUSH1 0x1 PUSH1 0xA0 SHL SUB AND SWAP1 POP DUP8 JUMP JUMPDEST PUSH1 0x0 PUSH2 0x1C62 DUP2 PUSH2 0x21EE JUMP JUMPDEST POP PUSH1 0x9 DUP1 SLOAD PUSH20 0xFFFFFFFFFFFFFFFFFFFFFFFFFFFFFFFFFFFFFFFF NOT AND PUSH1 0x1 PUSH1 0x1 PUSH1 0xA0 SHL SUB SWAP3 SWAP1 SWAP3 AND SWAP2 SWAP1 SWAP2 OR SWAP1 SSTORE JUMP JUMPDEST PUSH1 0x0 DUP3 DUP2 MSTORE PUSH1 0x5 PUSH1 0x20 MSTORE PUSH1 0x40 DUP2 KECCAK256 SLOAD PUSH1 0x60 SWAP2 DUP2 DUP5 GT PUSH2 0x1CB1 JUMPI DUP4 PUSH2 0x1CB3 JUMP JUMPDEST DUP2 JUMPDEST SWAP1 POP PUSH1 0x0 DUP2 PUSH8 0xFFFFFFFFFFFFFFFF DUP2 GT ISZERO PUSH2 0x1CD0 JUMPI PUSH2 0x1CD0 PUSH2 0x2744 JUMP JUMPDEST PUSH1 0x40 MLOAD SWAP1 DUP1 DUP3 MSTORE DUP1 PUSH1 0x20 MUL PUSH1 0x20 ADD DUP3 ADD PUSH1 0x40 MSTORE DUP1 ISZERO PUSH2 0x1D4A JUMPI DUP2 PUSH1 0x20 ADD JUMPDEST PUSH2 0x1D37 PUSH1 0x40 MLOAD DUP1 PUSH1 0xE0 ADD PUSH1 0x40 MSTORE DUP1 PUSH1 0x0 DUP2 MSTORE PUSH1 0x20 ADD PUSH1 0x0 DUP2 MSTORE PUSH1 0x20 ADD PUSH1 0x0 DUP2 MSTORE PUSH1 0x20 ADD PUSH1 0x60 DUP2 MSTORE PUSH1 0x20 ADD PUSH1 0x60 DUP2 MSTORE PUSH1 0x20 ADD PUSH1 0x0 DUP2 MSTORE PUSH1 0x20 ADD PUSH1 0x0 PUSH1 0x1 PUSH1 0x1 PUSH1 0xA0 SHL SUB AND DUP2 MSTORE POP SWAP1 JUMP JUMPDEST DUP2 MSTORE PUSH1 0x20 ADD SWAP1 PUSH1 0x1 SWAP1 SUB SWAP1 DUP2 PUSH2 0x1CEE JUMPI SWAP1 POP JUMPDEST POP SWAP1 POP PUSH1 0x0 JUMPDEST DUP3 DUP2 LT ISZERO PUSH2 0x1F37 JUMPI PUSH1 0x0 DUP8 DUP2 MSTORE PUSH1 0x5 PUSH1 0x20 MSTORE PUSH1 0x40 SWAP1 KECCAK256 DUP2 PUSH2 0x1D72 PUSH1 0x1 DUP8 PUSH2 0x2CFB JUMP JUMPDEST PUSH2 0x1D7C SWAP2 SWAP1 PUSH2 0x2CFB JUMP JUMPDEST DUP2 SLOAD DUP2 LT PUSH2 0x1D8C JUMPI PUSH2 0x1D8C PUSH2 0x2E6A JUMP JUMPDEST SWAP1 PUSH1 0x0 MSTORE PUSH1 0x20 PUSH1 0x0 KECCAK256 SWAP1 PUSH1 0x7 MUL ADD PUSH1 0x40 MLOAD DUP1 PUSH1 0xE0 ADD PUSH1 0x40 MSTORE SWAP1 DUP2 PUSH1 0x0 DUP3 ADD SLOAD DUP2 MSTORE PUSH1 0x20 ADD PUSH1 0x1 DUP3 ADD SLOAD DUP2 MSTORE PUSH1 0x20 ADD PUSH1 0x2 DUP3 ADD SLOAD DUP2 MSTORE PUSH1 0x20 ADD PUSH1 0x3 DUP3 ADD DUP1 SLOAD PUSH2 0x1DD3 SWAP1 PUSH2 0x2CAB JUMP JUMPDEST DUP1 PUSH1 0x1F ADD PUSH1 0x20 DUP1 SWAP2 DIV MUL PUSH1 0x20 ADD PUSH1 0x40 MLOAD SWAP1 DUP2 ADD PUSH1 0x40 MSTORE DUP1 SWAP3 SWAP2 SWAP1 DUP2 DUP2 MSTORE PUSH1 0x20 ADD DUP3 DUP1 SLOAD PUSH2 0x1DFF SWAP1 PUSH2 0x2CAB JUMP JUMPDEST DUP1 ISZERO PUSH2 0x1E4C JUMPI DUP1 PUSH1 0x1F LT PUSH2 0x1E21 JUMPI PUSH2 0x100 DUP1 DUP4 SLOAD DIV MUL DUP4 MSTORE SWAP2 PUSH1 0x20 ADD SWAP2 PUSH2 0x1E4C JUMP JUMPDEST DUP3 ADD SWAP2 SWAP1 PUSH1 0x0 MSTORE PUSH1 0x20 PUSH1 0x0 KECCAK256 SWAP1 JUMPDEST DUP2 SLOAD DUP2 MSTORE SWAP1 PUSH1 0x1 ADD SWAP1 PUSH1 0x20 ADD DUP1 DUP4 GT PUSH2 0x1E2F JUMPI DUP3 SWAP1 SUB PUSH1 0x1F AND DUP3 ADD SWAP2 JUMPDEST POP POP POP POP POP DUP2 MSTORE PUSH1 0x20 ADD PUSH1 0x4 DUP3 ADD DUP1 SLOAD PUSH2 0x1E65 SWAP1 PUSH2 0x2CAB JUMP JUMPDEST DUP1 PUSH1 0x1F ADD PUSH1 0x20 DUP1 SWAP2 DIV MUL PUSH1 0x20 ADD PUSH1 0x40 MLOAD SWAP1 DUP2 ADD PUSH1 0x40 MSTORE DUP1 SWAP3 SWAP2 SWAP1 DUP2 DUP2 MSTORE PUSH1 0x20 ADD DUP3 DUP1 SLOAD PUSH2 0x1E91 SWAP1 PUSH2 0x2CAB JUMP JUMPDEST DUP1 ISZERO PUSH2 0x1EDE JUMPI DUP1 PUSH1 0x1F LT PUSH2 0x1EB3 JUMPI PUSH2 0x100 DUP1 DUP4 SLOAD DIV MUL DUP4 MSTORE SWAP2 PUSH1 0x20 ADD SWAP2 PUSH2 0x1EDE JUMP JUMPDEST DUP3 ADD SWAP2 SWAP1 PUSH1 0x0 MSTORE PUSH1 0x20 PUSH1 0x0 KECCAK256 SWAP1 JUMPDEST DUP2 SLOAD DUP2 MSTORE SWAP1 PUSH1 0x1 ADD SWAP1 PUSH1 0x20 ADD DUP1 DUP4 GT PUSH2 0x1EC1 JUMPI DUP3 SWAP1 SUB PUSH1 0x1F AND DUP3 ADD SWAP2 JUMPDEST POP POP POP SWAP2 DUP4 MSTORE POP POP PUSH1 0x5 DUP3 ADD SLOAD PUSH1 0x20 DUP3 ADD MSTORE PUSH1 0x6 SWAP1 SWAP2 ADD SLOAD PUSH1 0x1 PUSH1 0x1 PUSH1 0xA0 SHL SUB AND PUSH1 0x40 SWAP1 SWAP2 ADD MSTORE DUP3 MLOAD DUP4 SWAP1 DUP4 SWAP1 DUP2 LT PUSH2 0x1F19 JUMPI PUSH2 0x1F19 PUSH2 0x2E6A JUMP JUMPDEST PUSH1 0x20 MUL PUSH1 0x20 ADD ADD DUP2 SWAP1 MSTORE POP DUP1 DUP1 PUSH2 0x1F2F SWAP1 PUSH2 0x2D0E JUMP JUMPDEST SWAP2 POP POP PUSH2 0x1D50 JUMP JUMPDEST POP SWAP6 SWAP5 POP POP POP POP POP JUMP JUMPDEST PUSH1 0x0 DUP3 DUP2 MSTORE PUSH1 0x20 DUP2 SWAP1 MSTORE PUSH1 0x40 SWAP1 KECCAK256 PUSH1 0x1 ADD SLOAD PUSH2 0x1F5C DUP2 PUSH2 0x21EE JUMP JUMPDEST PUSH2 0xB7D DUP4 DUP4 PUSH2 0x22A5 JUMP JUMPDEST PUSH1 0x0 DUP2 DUP2 MSTORE PUSH1 0x3 PUSH1 0x20 SWAP1 DUP2 MSTORE PUSH1 0x40 DUP1 DUP4 KECCAK256 DUP2 MLOAD PUSH2 0x160 DUP2 ADD DUP4 MSTORE DUP2 SLOAD DUP2 MSTORE PUSH1 0x1 DUP3 ADD SLOAD PUSH1 0x1 PUSH1 0x1 PUSH1 0xA0 SHL SUB AND SWAP4 DUP2 ADD SWAP4 SWAP1 SWAP4 MSTORE PUSH1 0x2 DUP2 ADD DUP1 SLOAD DUP6 SWAP5 DUP6 SWAP5 DUP6 SWAP5 DUP6 SWAP5 DUP6 SWAP5 DUP6 SWAP5 SWAP4 DUP5 ADD SWAP2 SWAP1 PUSH2 0x1FB9 SWAP1 PUSH2 0x2CAB JUMP JUMPDEST DUP1 PUSH1 0x1F ADD PUSH1 0x20 DUP1 SWAP2 DIV MUL PUSH1 0x20 ADD PUSH1 0x40 MLOAD SWAP1 DUP2 ADD PUSH1 0x40 MSTORE DUP1 SWAP3 SWAP2 SWAP1 DUP2 DUP2 MSTORE PUSH1 0x20 ADD DUP3 DUP1 SLOAD PUSH2 0x1FE5 SWAP1 PUSH2 0x2CAB JUMP JUMPDEST DUP1 ISZERO PUSH2 0x2032 JUMPI DUP1 PUSH1 0x1F LT PUSH2 0x2007 JUMPI PUSH2 0x100 DUP1 DUP4 SLOAD DIV MUL DUP4 MSTORE SWAP2 PUSH1 0x20 ADD SWAP2 PUSH2 0x2032 JUMP JUMPDEST DUP3 ADD SWAP2 SWAP1 PUSH1 0x0 MSTORE PUSH1 0x20 PUSH1 0x0 KECCAK256 SWAP1 JUMPDEST DUP2 SLOAD DUP2 MSTORE SWAP1 PUSH1 0x1 ADD SWAP1 PUSH1 0x20 ADD DUP1 DUP4 GT PUSH2 0x2015 JUMPI DUP3 SWAP1 SUB PUSH1 0x1F AND DUP3 ADD SWAP2 JUMPDEST POP POP POP POP POP DUP2 MSTORE PUSH1 0x20 ADD PUSH1 0x3 DUP3 ADD SLOAD DUP2 MSTORE PUSH1 0x20 ADD PUSH1 0x4 DUP3 ADD DUP1 SLOAD PUSH2 0x2055 SWAP1 PUSH2 0x2CAB JUMP JUMPDEST DUP1 PUSH1 0x1F ADD PUSH1 0x20 DUP1 SWAP2 DIV MUL PUSH1 0x20 ADD PUSH1 0x40 MLOAD SWAP1 DUP2 ADD PUSH1 0x40 MSTORE DUP1 SWAP3 SWAP2 SWAP1 DUP2 DUP2 MSTORE PUSH1 0x20 ADD DUP3 DUP1 SLOAD PUSH2 0x2081 SWAP1 PUSH2 0x2CAB JUMP JUMPDEST DUP1 ISZERO PUSH2 0x20CE JUMPI DUP1 PUSH1 0x1F LT PUSH2 0x20A3 JUMPI PUSH2 0x100 DUP1 DUP4 SLOAD DIV MUL DUP4 MSTORE SWAP2 PUSH1 0x20 ADD SWAP2 PUSH2 0x20CE JUMP JUMPDEST DUP3 ADD SWAP2 SWAP1 PUSH1 0x0 MSTORE PUSH1 0x20 PUSH1 0x0 KECCAK256 SWAP1 JUMPDEST DUP2 SLOAD DUP2 MSTORE SWAP1 PUSH1 0x1 ADD SWAP1 PUSH1 0x20 ADD DUP1 DUP4 GT PUSH2 0x20B1 JUMPI DUP3 SWAP1 SUB PUSH1 0x1F AND DUP3 ADD SWAP2 JUMPDEST POP POP POP POP POP DUP2 MSTORE PUSH1 0x20 ADD PUSH1 0x5 DUP3 ADD DUP1 SLOAD PUSH2 0x20E7 SWAP1 PUSH2 0x2CAB JUMP JUMPDEST DUP1 PUSH1 0x1F ADD PUSH1 0x20 DUP1 SWAP2 DIV MUL PUSH1 0x20 ADD PUSH1 0x40 MLOAD SWAP1 DUP2 ADD PUSH1 0x40 MSTORE DUP1 SWAP3 SWAP2 SWAP1 DUP2 DUP2 MSTORE PUSH1 0x20 ADD DUP3 DUP1 SLOAD PUSH2 0x2113 SWAP1 PUSH2 0x2CAB JUMP JUMPDEST DUP1 ISZERO PUSH2 0x2160 JUMPI DUP1 PUSH1 0x1F LT PUSH2 0x2135 JUMPI PUSH2 0x100 DUP1 DUP4 SLOAD DIV MUL DUP4 MSTORE SWAP2 PUSH1 0x20 ADD SWAP2 PUSH2 0x2160 JUMP JUMPDEST DUP3 ADD SWAP2 SWAP1 PUSH1 0x0 MSTORE PUSH1 0x20 PUSH1 0x0 KECCAK256 SWAP1 JUMPDEST DUP2 SLOAD DUP2 MSTORE SWAP1 PUSH1 0x1 ADD SWAP1 PUSH1 0x20 ADD DUP1 DUP4 GT PUSH2 0x2143 JUMPI DUP3 SWAP1 SUB PUSH1 0x1F AND DUP3 ADD SWAP2 JUMPDEST POP POP POP SWAP2 DUP4 MSTORE POP POP PUSH1 0x6 DUP3 ADD SLOAD PUSH1 0x20 DUP3 ADD MSTORE PUSH1 0x7 DUP3 ADD SLOAD PUSH1 0x40 DUP3 ADD MSTORE PUSH1 0x8 DUP3 ADD SLOAD PUSH1 0x60 DUP3 ADD MSTORE PUSH1 0x9 DUP3 ADD SLOAD PUSH1 0xFF AND ISZERO ISZERO PUSH1 0x80 DUP3 ADD MSTORE PUSH1 0xA SWAP1 SWAP2 ADD SLOAD PUSH1 0xA0 SWAP1 SWAP2 ADD MSTORE PUSH1 0xC0 DUP2 ADD MLOAD PUSH1 0xE0 DUP3 ADD MLOAD SWAP2 SWAP3 POP SWAP1 PUSH2 0x21B8 DUP11 PUSH2 0x5E3 JUMP JUMPDEST PUSH1 0x0 SWAP11 DUP12 MSTORE PUSH1 0x5 PUSH1 0x20 SWAP1 DUP2 MSTORE PUSH1 0x40 DUP1 DUP14 KECCAK256 SLOAD PUSH1 0x6 SWAP1 SWAP3 MSTORE SWAP1 SWAP12 KECCAK256 SLOAD PUSH2 0x100 SWAP5 SWAP1 SWAP5 ADD MLOAD SWAP3 SWAP12 SWAP2 SWAP11 SWAP1 SWAP10 POP SWAP8 POP SWAP2 SWAP6 POP SWAP4 POP SWAP2 POP POP JUMP JUMPDEST PUSH2 0x21F8 DUP2 CALLER PUSH2 0x235F JUMP JUMPDEST POP JUMP JUMPDEST PUSH1 0x0 DUP3 DUP2 MSTORE PUSH1 0x20 DUP2 DUP2 MSTORE PUSH1 0x40 DUP1 DUP4 KECCAK256 PUSH1 0x1 PUSH1 0x1 PUSH1 0xA0 SHL SUB DUP6 AND DUP5 MSTORE SWAP1 SWAP2 MSTORE DUP2 KECCAK256 SLOAD PUSH1 0xFF AND PUSH2 0x229D JUMPI PUSH1 0x0 DUP4 DUP2 MSTORE PUSH1 0x20 DUP2 DUP2 MSTORE PUSH1 0x40 DUP1 DUP4 KECCAK256 PUSH1 0x1 PUSH1 0x1 PUSH1 0xA0 SHL SUB DUP7 AND DUP5 MSTORE SWAP1 SWAP2 MSTORE SWAP1 KECCAK256 DUP1 SLOAD PUSH1 0xFF NOT AND PUSH1 0x1 OR SWAP1 SSTORE PUSH2 0x2255 CALLER SWAP1 JUMP JUMPDEST PUSH1 0x1 PUSH1 0x1 PUSH1 0xA0 SHL SUB AND DUP3 PUSH1 0x1 PUSH1 0x1 PUSH1 0xA0 SHL SUB AND DUP5 PUSH32 0x2F8788117E7EFF1D82E926EC794901D17C78024A50270940304540A733656F0D PUSH1 0x40 MLOAD PUSH1 0x40 MLOAD DUP1 SWAP2 SUB SWAP1 LOG4 POP PUSH1 0x1 PUSH2 0x5DD JUMP JUMPDEST POP PUSH1 0x0 PUSH2 0x5DD JUMP JUMPDEST PUSH1 0x0 DUP3 DUP2 MSTORE PUSH1 0x20 DUP2 DUP2 MSTORE PUSH1 0x40 DUP1 DUP4 KECCAK256 PUSH1 0x1 PUSH1 0x1 PUSH1 0xA0 SHL SUB DUP6 AND DUP5 MSTORE SWAP1 SWAP2 MSTORE DUP2 KECCAK256 SLOAD PUSH1 0xFF AND ISZERO PUSH2 0x229D JUMPI PUSH1 0x0 DUP4 DUP2 MSTORE PUSH1 0x20 DUP2 DUP2 MSTORE PUSH1 0x40 DUP1 DUP4 KECCAK256 PUSH1 0x1 PUSH1 0x1 PUSH1 0xA0 SHL SUB DUP7 AND DUP1 DUP6 MSTORE SWAP3 MSTORE DUP1 DUP4 KECCAK256 DUP1 SLOAD PUSH1 0xFF NOT AND SWAP1 SSTORE MLOAD CALLER SWAP3 DUP7 SWAP2 PUSH32 0xF6391F5C32D9C69D2A47EA670B442974B53935D1EDC7FD64EB21E047A839171B SWAP2 SWAP1 LOG4 POP PUSH1 0x1 PUSH2 0x5DD JUMP JUMPDEST PUSH1 0x0 PUSH2 0x83B DUP4 PUSH1 0x1 PUSH1 0x1 PUSH1 0xA0 SHL SUB DUP5 AND PUSH2 0x23CF JUMP JUMPDEST PUSH1 0x0 PUSH2 0x83B DUP4 PUSH1 0x1 PUSH1 0x1 PUSH1 0xA0 SHL SUB DUP5 AND PUSH2 0x24C2 JUMP JUMPDEST PUSH1 0x60 PUSH1 0x0 PUSH2 0x83B DUP4 PUSH2 0x2509 JUMP JUMPDEST PUSH1 0x0 DUP3 DUP2 MSTORE PUSH1 0x20 DUP2 DUP2 MSTORE PUSH1 0x40 DUP1 DUP4 KECCAK256 PUSH1 0x1 PUSH1 0x1 PUSH1 0xA0 SHL SUB DUP6 AND DUP5 MSTORE SWAP1 SWAP2 MSTORE SWAP1 KECCAK256 SLOAD PUSH1 0xFF AND PUSH2 0x23CB JUMPI PUSH1 0x40 MLOAD PUSH32 0xE2517D3F00000000000000000000000000000000000000000000000000000000 DUP2 MSTORE PUSH1 0x1 PUSH1 0x1 PUSH1 0xA0 SHL SUB DUP3 AND PUSH1 0x4 DUP3 ADD MSTORE PUSH1 0x24 DUP2 ADD DUP4 SWAP1 MSTORE PUSH1 0x44 ADD PUSH2 0x915 JUMP JUMPDEST POP POP JUMP JUMPDEST PUSH1 0x0 DUP2 DUP2 MSTORE PUSH1 0x1 DUP4 ADD PUSH1 0x20 MSTORE PUSH1 0x40 DUP2 KECCAK256 SLOAD DUP1 ISZERO PUSH2 0x24B8 JUMPI PUSH1 0x0 PUSH2 0x23F3 PUSH1 0x1 DUP4 PUSH2 0x2CFB JUMP JUMPDEST DUP6 SLOAD SWAP1 SWAP2 POP PUSH1 0x0 SWAP1 PUSH2 0x2407 SWAP1 PUSH1 0x1 SWAP1 PUSH2 0x2CFB JUMP JUMPDEST SWAP1 POP DUP1 DUP3 EQ PUSH2 0x246C JUMPI PUSH1 0x0 DUP7 PUSH1 0x0 ADD DUP3 DUP2 SLOAD DUP2 LT PUSH2 0x2427 JUMPI PUSH2 0x2427 PUSH2 0x2E6A JUMP JUMPDEST SWAP1 PUSH1 0x0 MSTORE PUSH1 0x20 PUSH1 0x0 KECCAK256 ADD SLOAD SWAP1 POP DUP1 DUP8 PUSH1 0x0 ADD DUP5 DUP2 SLOAD DUP2 LT PUSH2 0x244A JUMPI PUSH2 0x244A PUSH2 0x2E6A JUMP JUMPDEST PUSH1 0x0 SWAP2 DUP3 MSTORE PUSH1 0x20 DUP1 DUP4 KECCAK256 SWAP1 SWAP2 ADD SWAP3 SWAP1 SWAP3 SSTORE SWAP2 DUP3 MSTORE PUSH1 0x1 DUP9 ADD SWAP1 MSTORE PUSH1 0x40 SWAP1 KECCAK256 DUP4 SWAP1 SSTORE JUMPDEST DUP6 SLOAD DUP7 SWAP1 DUP1 PUSH2 0x247D JUMPI PUSH2 0x247D PUSH2 0x2EBE JUMP JUMPDEST PUSH1 0x1 SWAP1 SUB DUP2 DUP2 SWAP1 PUSH1 0x0 MSTORE PUSH1 0x20 PUSH1 0x0 KECCAK256 ADD PUSH1 0x0 SWAP1 SSTORE SWAP1 SSTORE DUP6 PUSH1 0x1 ADD PUSH1 0x0 DUP7 DUP2 MSTORE PUSH1 0x20 ADD SWAP1 DUP2 MSTORE PUSH1 0x20 ADD PUSH1 0x0 KECCAK256 PUSH1 0x0 SWAP1 SSTORE PUSH1 0x1 SWAP4 POP POP POP POP PUSH2 0x5DD JUMP JUMPDEST PUSH1 0x0 SWAP2 POP POP PUSH2 0x5DD JUMP JUMPDEST PUSH1 0x0 DUP2 DUP2 MSTORE PUSH1 0x1 DUP4 ADD PUSH1 0x20 MSTORE PUSH1 0x40 DUP2 KECCAK256 SLOAD PUSH2 0x229D JUMPI POP DUP2 SLOAD PUSH1 0x1 DUP2 DUP2 ADD DUP5 SSTORE PUSH1 0x0 DUP5 DUP2 MSTORE PUSH1 0x20 DUP1 DUP3 KECCAK256 SWAP1 SWAP4 ADD DUP5 SWAP1 SSTORE DUP5 SLOAD DUP5 DUP3 MSTORE DUP3 DUP7 ADD SWAP1 SWAP4 MSTORE PUSH1 0x40 SWAP1 KECCAK256 SWAP2 SWAP1 SWAP2 SSTORE PUSH2 0x5DD JUMP JUMPDEST PUSH1 0x60 DUP2 PUSH1 0x0 ADD DUP1 SLOAD DUP1 PUSH1 0x20 MUL PUSH1 0x20 ADD PUSH1 0x40 MLOAD SWAP1 DUP2 ADD PUSH1 0x40 MSTORE DUP1 SWAP3 SWAP2 SWAP1 DUP2 DUP2 MSTORE PUSH1 0x20 ADD DUP3 DUP1 SLOAD DUP1 ISZERO PUSH2 0x2559 JUMPI PUSH1 0x20 MUL DUP3 ADD SWAP2 SWAP1 PUSH1 0x0 MSTORE PUSH1 0x20 PUSH1 0x0 KECCAK256 SWAP1 JUMPDEST DUP2 SLOAD DUP2 MSTORE PUSH1 0x20 ADD SWAP1 PUSH1 0x1 ADD SWAP1 DUP1 DUP4 GT PUSH2 0x2545 JUMPI JUMPDEST POP POP POP POP POP SWAP1 POP SWAP2 SWAP1 POP JUMP JUMPDEST PUSH1 0x0 PUSH1 0x20 DUP3 DUP5 SUB SLT ISZERO PUSH2 0x2577 JUMPI PUSH1 0x0 DUP1 REVERT JUMPDEST DUP2 CALLDATALOAD PUSH32 0xFFFFFFFF00000000000000000000000000000000000000000000000000000000 DUP2 AND DUP2 EQ PUSH2 0x83B JUMPI PUSH1 0x0 DUP1 REVERT JUMPDEST PUSH1 0x0 PUSH1 0x20 DUP3 DUP5 SUB SLT ISZERO PUSH2 0x25B9 JUMPI PUSH1 0x0 DUP1 REVERT JUMPDEST POP CALLDATALOAD SWAP2 SWAP1 POP JUMP JUMPDEST DUP1 CALLDATALOAD PUSH1 0x1 PUSH1 0x1 PUSH1 0xA0 SHL SUB DUP2 AND DUP2 EQ PUSH2 0x25D7 JUMPI PUSH1 0x0 DUP1 REVERT JUMPDEST SWAP2 SWAP1 POP JUMP JUMPDEST PUSH1 0x0 PUSH1 0x20 DUP3 DUP5 SUB SLT ISZERO PUSH2 0x25EE JUMPI PUSH1 0x0 DUP1 REVERT JUMPDEST PUSH2 0x83B DUP3 PUSH2 0x25C0 JUMP JUMPDEST PUSH1 0x0 DUP2 MLOAD DUP1 DUP5 MSTORE PUSH1 0x0 JUMPDEST DUP2 DUP2 LT ISZERO PUSH2 0x261D JUMPI PUSH1 0x20 DUP2 DUP6 ADD DUP2 ADD MLOAD DUP7 DUP4 ADD DUP3 ADD MSTORE ADD PUSH2 0x2601 JUMP JUMPDEST POP PUSH1 0x0 PUSH1 0x20 DUP3 DUP7 ADD ADD MSTORE PUSH1 0x20 PUSH1 0x1F NOT PUSH1 0x1F DUP4 ADD AND DUP6 ADD ADD SWAP2 POP POP SWAP3 SWAP2 POP POP JUMP JUMPDEST PUSH1 0x20 DUP2 MSTORE DUP2 MLOAD PUSH1 0x20 DUP3 ADD MSTORE PUSH1 0x0 PUSH1 0x20 DUP4 ADD MLOAD PUSH2 0x2664 PUSH1 0x40 DUP5 ADD DUP3 PUSH1 0x1 PUSH1 0x1 PUSH1 0xA0 SHL SUB AND SWAP1 MSTORE JUMP JUMPDEST POP PUSH1 0x40 DUP4 ADD MLOAD PUSH2 0x160 DUP1 PUSH1 0x60 DUP6 ADD MSTORE PUSH2 0x2681 PUSH2 0x180 DUP6 ADD DUP4 PUSH2 0x25F7 JUMP JUMPDEST SWAP2 POP PUSH1 0x60 DUP6 ADD MLOAD PUSH1 0x80 DUP6 ADD MSTORE PUSH1 0x80 DUP6 ADD MLOAD PUSH1 0x1F NOT DUP1 DUP7 DUP6 SUB ADD PUSH1 0xA0 DUP8 ADD MSTORE PUSH2 0x26A9 DUP5 DUP4 PUSH2 0x25F7 JUMP JUMPDEST SWAP4 POP PUSH1 0xA0 DUP8 ADD MLOAD SWAP2 POP DUP1 DUP7 DUP6 SUB ADD PUSH1 0xC0 DUP8 ADD MSTORE POP PUSH2 0x26C7 DUP4 DUP3 PUSH2 0x25F7 JUMP JUMPDEST SWAP3 POP POP PUSH1 0xC0 DUP6 ADD MLOAD PUSH1 0xE0 DUP6 ADD MSTORE PUSH1 0xE0 DUP6 ADD MLOAD PUSH2 0x100 DUP2 DUP2 DUP8 ADD MSTORE DUP1 DUP8 ADD MLOAD SWAP2 POP POP PUSH2 0x120 DUP2 DUP2 DUP8 ADD MSTORE DUP1 DUP8 ADD MLOAD SWAP2 POP POP PUSH2 0x140 PUSH2 0x2707 DUP2 DUP8 ADD DUP4 ISZERO ISZERO SWAP1 MSTORE JUMP JUMPDEST SWAP6 SWAP1 SWAP6 ADD MLOAD SWAP4 ADD SWAP3 SWAP1 SWAP3 MSTORE POP SWAP2 SWAP1 POP JUMP JUMPDEST PUSH1 0x0 DUP1 PUSH1 0x40 DUP4 DUP6 SUB SLT ISZERO PUSH2 0x272B JUMPI PUSH1 0x0 DUP1 REVERT JUMPDEST DUP3 CALLDATALOAD SWAP2 POP PUSH2 0x273B PUSH1 0x20 DUP5 ADD PUSH2 0x25C0 JUMP JUMPDEST SWAP1 POP SWAP3 POP SWAP3 SWAP1 POP JUMP JUMPDEST PUSH4 0x4E487B71 PUSH1 0xE0 SHL PUSH1 0x0 MSTORE PUSH1 0x41 PUSH1 0x4 MSTORE PUSH1 0x24 PUSH1 0x0 REVERT JUMPDEST PUSH1 0x40 MLOAD PUSH1 0x1F DUP3 ADD PUSH1 0x1F NOT AND DUP2 ADD PUSH8 0xFFFFFFFFFFFFFFFF DUP2 GT DUP3 DUP3 LT OR ISZERO PUSH2 0x2783 JUMPI PUSH2 0x2783 PUSH2 0x2744 JUMP JUMPDEST PUSH1 0x40 MSTORE SWAP2 SWAP1 POP JUMP JUMPDEST PUSH1 0x0 DUP3 PUSH1 0x1F DUP4 ADD SLT PUSH2 0x279C JUMPI PUSH1 0x0 DUP1 REVERT JUMPDEST DUP2 CALLDATALOAD PUSH8 0xFFFFFFFFFFFFFFFF DUP2 GT ISZERO PUSH2 0x27B6 JUMPI PUSH2 0x27B6 PUSH2 0x2744 JUMP JUMPDEST PUSH2 0x27C9 PUSH1 0x1F DUP3 ADD PUSH1 0x1F NOT AND PUSH1 0x20 ADD PUSH2 0x275A JUMP JUMPDEST DUP2 DUP2 MSTORE DUP5 PUSH1 0x20 DUP4 DUP7 ADD ADD GT ISZERO PUSH2 0x27DE JUMPI PUSH1 0x0 DUP1 REVERT JUMPDEST DUP2 PUSH1 0x20 DUP6 ADD PUSH1 0x20 DUP4 ADD CALLDATACOPY PUSH1 0x0 SWAP2 DUP2 ADD PUSH1 0x20 ADD SWAP2 SWAP1 SWAP2 MSTORE SWAP4 SWAP3 POP POP POP JUMP JUMPDEST PUSH1 0x0 DUP1 PUSH1 0x0 DUP1 PUSH1 0x80 DUP6 DUP8 SUB SLT ISZERO PUSH2 0x2811 JUMPI PUSH1 0x0 DUP1 REVERT JUMPDEST DUP5 CALLDATALOAD PUSH8 0xFFFFFFFFFFFFFFFF DUP1 DUP3 GT ISZERO PUSH2 0x2829 JUMPI PUSH1 0x0 DUP1 REVERT JUMPDEST PUSH2 0x2835 DUP9 DUP4 DUP10 ADD PUSH2 0x278B JUMP JUMPDEST SWAP6 POP PUSH1 0x20 DUP8 ADD CALLDATALOAD SWAP5 POP PUSH1 0x40 DUP8 ADD CALLDATALOAD SWAP2 POP DUP1 DUP3 GT ISZERO PUSH2 0x2852 JUMPI PUSH1 0x0 DUP1 REVERT JUMPDEST PUSH2 0x285E DUP9 DUP4 DUP10 ADD PUSH2 0x278B JUMP JUMPDEST SWAP4 POP PUSH1 0x60 DUP8 ADD CALLDATALOAD SWAP2 POP DUP1 DUP3 GT ISZERO PUSH2 0x2874 JUMPI PUSH1 0x0 DUP1 REVERT JUMPDEST POP PUSH2 0x2881 DUP8 DUP3 DUP9 ADD PUSH2 0x278B JUMP JUMPDEST SWAP2 POP POP SWAP3 SWAP6 SWAP2 SWAP5 POP SWAP3 POP JUMP JUMPDEST PUSH1 0x0 PUSH8 0xFFFFFFFFFFFFFFFF DUP3 GT ISZERO PUSH2 0x28A7 JUMPI PUSH2 0x28A7 PUSH2 0x2744 JUMP JUMPDEST POP PUSH1 0x5 SHL PUSH1 0x20 ADD SWAP1 JUMP JUMPDEST PUSH1 0x0 DUP3 PUSH1 0x1F DUP4 ADD SLT PUSH2 0x28C2 JUMPI PUSH1 0x0 DUP1 REVERT JUMPDEST DUP2 CALLDATALOAD PUSH1 0x20 PUSH2 0x28D7 PUSH2 0x28D2 DUP4 PUSH2 0x288D JUMP JUMPDEST PUSH2 0x275A JUMP JUMPDEST DUP3 DUP2 MSTORE PUSH1 0x5 SWAP3 SWAP1 SWAP3 SHL DUP5 ADD DUP2 ADD SWAP2 DUP2 DUP2 ADD SWAP1 DUP7 DUP5 GT ISZERO PUSH2 0x28F6 JUMPI PUSH1 0x0 DUP1 REVERT JUMPDEST DUP3 DUP7 ADD JUMPDEST DUP5 DUP2 LT ISZERO PUSH2 0x2936 JUMPI DUP1 CALLDATALOAD PUSH8 0xFFFFFFFFFFFFFFFF DUP2 GT ISZERO PUSH2 0x291A JUMPI PUSH1 0x0 DUP1 DUP2 REVERT JUMPDEST PUSH2 0x2928 DUP10 DUP7 DUP4 DUP12 ADD ADD PUSH2 0x278B JUMP JUMPDEST DUP5 MSTORE POP SWAP2 DUP4 ADD SWAP2 DUP4 ADD PUSH2 0x28FA JUMP JUMPDEST POP SWAP7 SWAP6 POP POP POP POP POP POP JUMP JUMPDEST PUSH1 0x0 DUP1 PUSH1 0x0 DUP1 PUSH1 0x80 DUP6 DUP8 SUB SLT ISZERO PUSH2 0x2957 JUMPI PUSH1 0x0 DUP1 REVERT JUMPDEST DUP5 CALLDATALOAD SWAP4 POP PUSH1 0x20 DUP1 DUP7 ADD CALLDATALOAD PUSH8 0xFFFFFFFFFFFFFFFF DUP1 DUP3 GT ISZERO PUSH2 0x2977 JUMPI PUSH1 0x0 DUP1 REVERT JUMPDEST DUP2 DUP9 ADD SWAP2 POP DUP9 PUSH1 0x1F DUP4 ADD SLT PUSH2 0x298B JUMPI PUSH1 0x0 DUP1 REVERT JUMPDEST DUP2 CALLDATALOAD PUSH2 0x2999 PUSH2 0x28D2 DUP3 PUSH2 0x288D JUMP JUMPDEST DUP2 DUP2 MSTORE PUSH1 0x5 SWAP2 SWAP1 SWAP2 SHL DUP4 ADD DUP5 ADD SWAP1 DUP5 DUP2 ADD SWAP1 DUP12 DUP4 GT ISZERO PUSH2 0x29B8 JUMPI PUSH1 0x0 DUP1 REVERT JUMPDEST SWAP4 DUP6 ADD SWAP4 JUMPDEST DUP3 DUP6 LT ISZERO PUSH2 0x29D6 JUMPI DUP5 CALLDATALOAD DUP3 MSTORE SWAP4 DUP6 ADD SWAP4 SWAP1 DUP6 ADD SWAP1 PUSH2 0x29BD JUMP JUMPDEST SWAP8 POP POP POP PUSH1 0x40 DUP9 ADD CALLDATALOAD SWAP3 POP DUP1 DUP4 GT ISZERO PUSH2 0x29EE JUMPI PUSH1 0x0 DUP1 REVERT JUMPDEST PUSH2 0x29FA DUP10 DUP5 DUP11 ADD PUSH2 0x28B1 JUMP JUMPDEST SWAP5 POP PUSH1 0x60 DUP9 ADD CALLDATALOAD SWAP3 POP DUP1 DUP4 GT ISZERO PUSH2 0x2A10 JUMPI PUSH1 0x0 DUP1 REVERT JUMPDEST POP POP PUSH2 0x2881 DUP8 DUP3 DUP9 ADD PUSH2 0x28B1 JUMP JUMPDEST PUSH1 0x20 DUP1 DUP3 MSTORE DUP3 MLOAD DUP3 DUP3 ADD DUP2 SWAP1 MSTORE PUSH1 0x0 SWAP2 SWAP1 DUP5 DUP3 ADD SWAP1 PUSH1 0x40 DUP6 ADD SWAP1 DUP5 JUMPDEST DUP2 DUP2 LT ISZERO PUSH2 0x2A56 JUMPI DUP4 MLOAD DUP4 MSTORE SWAP3 DUP5 ADD SWAP3 SWAP2 DUP5 ADD SWAP2 PUSH1 0x1 ADD PUSH2 0x2A3A JUMP JUMPDEST POP SWAP1 SWAP7 SWAP6 POP POP POP POP POP POP JUMP JUMPDEST PUSH1 0x0 DUP1 PUSH1 0x0 DUP1 PUSH1 0x80 DUP6 DUP8 SUB SLT ISZERO PUSH2 0x2A78 JUMPI PUSH1 0x0 DUP1 REVERT JUMPDEST DUP5 CALLDATALOAD SWAP4 POP PUSH1 0x20 DUP6 ADD CALLDATALOAD SWAP3 POP PUSH1 0x40 DUP6 ADD CALLDATALOAD PUSH8 0xFFFFFFFFFFFFFFFF DUP1 DUP3 GT ISZERO PUSH2 0x2852 JUMPI PUSH1 0x0 DUP1 REVERT JUMPDEST PUSH1 0x0 PUSH2 0x160 DUP14 DUP4 MSTORE PUSH1 0x1 PUSH1 0x1 PUSH1 0xA0 SHL SUB DUP14 AND PUSH1 0x20 DUP5 ADD MSTORE DUP1 PUSH1 0x40 DUP5 ADD MSTORE PUSH2 0x2AC7 DUP2 DUP5 ADD DUP14 PUSH2 0x25F7 JUMP JUMPDEST SWAP1 POP DUP11 PUSH1 0x60 DUP5 ADD MSTORE DUP3 DUP2 SUB PUSH1 0x80 DUP5 ADD MSTORE PUSH2 0x2AE1 DUP2 DUP12 PUSH2 0x25F7 JUMP JUMPDEST SWAP1 POP DUP3 DUP2 SUB PUSH1 0xA0 DUP5 ADD MSTORE PUSH2 0x2AF5 DUP2 DUP11 PUSH2 0x25F7 JUMP JUMPDEST PUSH1 0xC0 DUP5 ADD SWAP9 SWAP1 SWAP9 MSTORE POP POP PUSH1 0xE0 DUP2 ADD SWAP5 SWAP1 SWAP5 MSTORE PUSH2 0x100 DUP5 ADD SWAP3 SWAP1 SWAP3 MSTORE ISZERO ISZERO PUSH2 0x120 DUP4 ADD MSTORE PUSH2 0x140 SWAP1 SWAP2 ADD MSTORE SWAP7 SWAP6 POP POP POP POP POP POP JUMP JUMPDEST PUSH1 0x0 DUP1 PUSH1 0x40 DUP4 DUP6 SUB SLT ISZERO PUSH2 0x2B3C JUMPI PUSH1 0x0 DUP1 REVERT JUMPDEST POP POP DUP1 CALLDATALOAD SWAP3 PUSH1 0x20 SWAP1 SWAP2 ADD CALLDATALOAD SWAP2 POP JUMP JUMPDEST PUSH1 0x20 DUP1 DUP3 MSTORE DUP3 MLOAD DUP3 DUP3 ADD DUP2 SWAP1 MSTORE PUSH1 0x0 SWAP2 SWAP1 DUP5 DUP3 ADD SWAP1 PUSH1 0x40 DUP6 ADD SWAP1 DUP5 JUMPDEST DUP2 DUP2 LT ISZERO PUSH2 0x2A56 JUMPI DUP4 MLOAD PUSH1 0x1 PUSH1 0x1 PUSH1 0xA0 SHL SUB AND DUP4 MSTORE SWAP3 DUP5 ADD SWAP3 SWAP2 DUP5 ADD SWAP2 PUSH1 0x1 ADD PUSH2 0x2B67 JUMP JUMPDEST DUP8 DUP2 MSTORE DUP7 PUSH1 0x20 DUP3 ADD MSTORE DUP6 PUSH1 0x40 DUP3 ADD MSTORE PUSH1 0xE0 PUSH1 0x60 DUP3 ADD MSTORE PUSH1 0x0 PUSH2 0x2BB1 PUSH1 0xE0 DUP4 ADD DUP8 PUSH2 0x25F7 JUMP JUMPDEST DUP3 DUP2 SUB PUSH1 0x80 DUP5 ADD MSTORE PUSH2 0x2BC3 DUP2 DUP8 PUSH2 0x25F7 JUMP JUMPDEST SWAP2 POP POP DUP4 PUSH1 0xA0 DUP4 ADD MSTORE PUSH1 0x1 PUSH1 0x1 PUSH1 0xA0 SHL SUB DUP4 AND PUSH1 0xC0 DUP4 ADD MSTORE SWAP9 SWAP8 POP POP POP POP POP POP POP POP JUMP JUMPDEST PUSH1 0x0 PUSH1 0x20 DUP1 DUP4 ADD DUP2 DUP5 MSTORE DUP1 DUP6 MLOAD DUP1 DUP4 MSTORE PUSH1 0x40 SWAP3 POP DUP3 DUP7 ADD SWAP2 POP DUP3 DUP2 PUSH1 0x5 SHL DUP8 ADD ADD DUP5 DUP9 ADD PUSH1 0x0 JUMPDEST DUP4 DUP2 LT ISZERO PUSH2 0x2C9D JUMPI PUSH1 0x3F NOT DUP10 DUP5 SUB ADD DUP6 MSTORE DUP2 MLOAD PUSH1 0xE0 DUP2 MLOAD DUP6 MSTORE DUP9 DUP3 ADD MLOAD DUP10 DUP7 ADD MSTORE DUP8 DUP3 ADD MLOAD DUP9 DUP7 ADD MSTORE PUSH1 0x60 DUP1 DUP4 ADD MLOAD DUP3 DUP3 DUP9 ADD MSTORE PUSH2 0x2C4E DUP4 DUP9 ADD DUP3 PUSH2 0x25F7 JUMP JUMPDEST SWAP3 POP POP POP PUSH1 0x80 DUP1 DUP4 ADD MLOAD DUP7 DUP4 SUB DUP3 DUP9 ADD MSTORE PUSH2 0x2C69 DUP4 DUP3 PUSH2 0x25F7 JUMP JUMPDEST PUSH1 0xA0 DUP6 DUP2 ADD MLOAD SWAP1 DUP10 ADD MSTORE PUSH1 0xC0 SWAP5 DUP6 ADD MLOAD PUSH1 0x1 PUSH1 0x1 PUSH1 0xA0 SHL SUB AND SWAP5 SWAP1 SWAP8 ADD SWAP4 SWAP1 SWAP4 MSTORE POP POP POP SWAP4 DUP7 ADD SWAP4 SWAP1 DUP7 ADD SWAP1 PUSH1 0x1 ADD PUSH2 0x2C0E JUMP JUMPDEST POP SWAP1 SWAP9 SWAP8 POP POP POP POP POP POP POP POP JUMP JUMPDEST PUSH1 0x1 DUP2 DUP2 SHR SWAP1 DUP3 AND DUP1 PUSH2 0x2CBF JUMPI PUSH1 0x7F DUP3 AND SWAP2 POP JUMPDEST PUSH1 0x20 DUP3 LT DUP2 SUB PUSH2 0x2CDF JUMPI PUSH4 0x4E487B71 PUSH1 0xE0 SHL PUSH1 0x0 MSTORE PUSH1 0x22 PUSH1 0x4 MSTORE PUSH1 0x24 PUSH1 0x0 REVERT JUMPDEST POP SWAP2 SWAP1 POP JUMP JUMPDEST PUSH4 0x4E487B71 PUSH1 0xE0 SHL PUSH1 0x0 MSTORE PUSH1 0x11 PUSH1 0x4 MSTORE PUSH1 0x24 PUSH1 0x0 REVERT JUMPDEST DUP2 DUP2 SUB DUP2 DUP2 GT ISZERO PUSH2 0x5DD JUMPI PUSH2 0x5DD PUSH2 0x2CE5 JUMP JUMPDEST PUSH1 0x0 PUSH1 0x1 DUP3 ADD PUSH2 0x2D20 JUMPI PUSH2 0x2D20 PUSH2 0x2CE5 JUMP JUMPDEST POP PUSH1 0x1 ADD SWAP1 JUMP JUMPDEST PUSH1 0x1F DUP3 GT ISZERO PUSH2 0xBCF JUMPI PUSH1 0x0 DUP2 DUP2 MSTORE PUSH1 0x20 DUP2 KECCAK256 PUSH1 0x1F DUP6 ADD PUSH1 0x5 SHR DUP2 ADD PUSH1 0x20 DUP7 LT ISZERO PUSH2 0x2D4E JUMPI POP DUP1 JUMPDEST PUSH1 0x1F DUP6 ADD PUSH1 0x5 SHR DUP3 ADD SWAP2 POP JUMPDEST DUP2 DUP2 LT ISZERO PUSH2 0x2D6D JUMPI DUP3 DUP2 SSTORE PUSH1 0x1 ADD PUSH2 0x2D5A JUMP JUMPDEST POP POP POP POP POP POP JUMP JUMPDEST DUP2 MLOAD PUSH8 0xFFFFFFFFFFFFFFFF DUP2 GT ISZERO PUSH2 0x2D8F JUMPI PUSH2 0x2D8F PUSH2 0x2744 JUMP JUMPDEST PUSH2 0x2DA3 DUP2 PUSH2 0x2D9D DUP5 SLOAD PUSH2 0x2CAB JUMP JUMPDEST DUP5 PUSH2 0x2D27 JUMP JUMPDEST PUSH1 0x20 DUP1 PUSH1 0x1F DUP4 GT PUSH1 0x1 DUP2 EQ PUSH2 0x2DD8 JUMPI PUSH1 0x0 DUP5 ISZERO PUSH2 0x2DC0 JUMPI POP DUP6 DUP4 ADD MLOAD JUMPDEST PUSH1 0x0 NOT PUSH1 0x3 DUP7 SWAP1 SHL SHR NOT AND PUSH1 0x1 DUP6 SWAP1 SHL OR DUP6 SSTORE PUSH2 0x2D6D JUMP JUMPDEST PUSH1 0x0 DUP6 DUP2 MSTORE PUSH1 0x20 DUP2 KECCAK256 PUSH1 0x1F NOT DUP7 AND SWAP2 JUMPDEST DUP3 DUP2 LT ISZERO PUSH2 0x2E07 JUMPI DUP9 DUP7 ADD MLOAD DUP3 SSTORE SWAP5 DUP5 ADD SWAP5 PUSH1 0x1 SWAP1 SWAP2 ADD SWAP1 DUP5 ADD PUSH2 0x2DE8 JUMP JUMPDEST POP DUP6 DUP3 LT ISZERO PUSH2 0x2E25 JUMPI DUP8 DUP6 ADD MLOAD PUSH1 0x0 NOT PUSH1 0x3 DUP9 SWAP1 SHL PUSH1 0xF8 AND SHR NOT AND DUP2 SSTORE JUMPDEST POP POP POP POP POP PUSH1 0x1 SWAP1 DUP2 SHL ADD SWAP1 SSTORE POP JUMP JUMPDEST PUSH1 0x60 DUP2 MSTORE PUSH1 0x0 PUSH2 0x2E48 PUSH1 0x60 DUP4 ADD DUP7 PUSH2 0x25F7 JUMP JUMPDEST DUP5 PUSH1 0x20 DUP5 ADD MSTORE DUP3 DUP2 SUB PUSH1 0x40 DUP5 ADD MSTORE PUSH2 0x2E60 DUP2 DUP6 PUSH2 0x25F7 JUMP JUMPDEST SWAP7 SWAP6 POP POP POP POP POP POP JUMP JUMPDEST PUSH4 0x4E487B71 PUSH1 0xE0 SHL PUSH1 0x0 MSTORE PUSH1 0x32 PUSH1 0x4 MSTORE PUSH1 0x24 PUSH1 0x0 REVERT JUMPDEST DUP1 DUP3 ADD DUP1 DUP3 GT ISZERO PUSH2 0x5DD JUMPI PUSH2 0x5DD PUSH2 0x2CE5 JUMP JUMPDEST DUP4 DUP2 MSTORE PUSH1 0x60 PUSH1 0x20 DUP3 ADD MSTORE PUSH1 0x0 PUSH2 0x2EAC PUSH1 0x60 DUP4 ADD DUP6 PUSH2 0x25F7 JUMP JUMPDEST DUP3 DUP2 SUB PUSH1 0x40 DUP5 ADD MSTORE PUSH2 0x2E60 DUP2 DUP6 PUSH2 0x25F7 JUMP JUMPDEST PUSH4 0x4E487B71 PUSH1 0xE0 SHL PUSH1 0x0 MSTORE PUSH1 0x31 PUSH1 0x4 MSTORE PUSH1 0x24 PUSH1 0x0 REVERT INVALID LOG2 PUSH5 0x6970667358 0x22 SLT KECCAK256 0xFB 0x2E DUP7 0xBE 0x2E 0xA7 DUP9 SAR NOT DIV PUSH2 0xBE30 ADDMOD 0xF PUSH2 0x6C1E 0x2A 0xA5 0xEC 0x25 CREATE2 CHAINID ORIGIN MULMOD 0xBD GASLIMIT 0xEC EXTCODESIZE 0xC2 0x2E PUSH5 0x736F6C6343 STOP ADDMOD EQ STOP CALLER "},"methodIdentifiers":{"DEFAULT_ADMIN_ROLE()":"a217fddf","MIN_CARBON_TO_MINT()":"fe2dffd6","ORACLE_ROLE()":"07e2cea5","PRECISION()":"aaf5eb68","VERIFIER_ROLE()":"e7705db6","activateFarm(uint256)":"8219e3ce","addCarbonReading(uint256,uint256,string,string)":"6cb9dd9c","addCarbonReadingsBatch(uint256,uint256[],string[],string[])":"6af75374","addCreditToFarm(uint256,uint256)":"acf4c05b","addressToFarmId(address)":"fde97047","deactivateFarm(uint256)":"3c42febc","farmCounter()":"577cac27","farmCredits(uint256,uint256)":"b09424da","farmReadings(uint256,uint256)":"b6bbefa0","farms(uint256)":"7da470ea","getActiveFarmers()":"aaf22c01","getAvailableCarbon(uint256)":"0d8e57de","getFarmByAddress(address)":"2b7e4106","getFarmStats(uint256)":"e7a424a2","getRecentReadings(uint256,uint256)":"cfbfea08","getRoleAdmin(bytes32)":"248a9ca3","getTotalFarms()":"5ee485b7","grantRole(bytes32,address)":"2f2ff15d","hasRole(bytes32,address)":"91d14854","readingCounter()":"1cb91c01","registerFarm(string,uint256,string,string)":"4a6a1be4","renounceRole(bytes32,address)":"36568abe","revokeRole(bytes32,address)":"d547741f","setTokenContract(address)":"bbcd5bbe","supportsInterface(bytes4)":"01ffc9a7","tokenContract()":"55a373d6","updateCarbonDebt(uint256,uint256)":"a624cf2e"}}}}}