{
  "_format": "hh-sol-artifact-1",
  "contractName": "CarbonSealRegistry",
  "sourceName": "contracts/CarbonSealRegistry.sol",
  "abi": [
    {
      "inputs": [],
      "stateMutability": "nonpayable",
      "type": "constructor"
    },
    {
      "inputs": [],
      "name": "AccessControlBadConfirmation",
      "type": "error"
    },
    {
      "inputs": [
        {
          "internalType": "address",
          "name": "account",
          "type": "address"
        },
        {
          "internalType": "bytes32",
          "name": "neededRole",
          "type": "bytes32"
        }
      ],
      "name": "AccessControlUnauthorizedAccount",
      "type": "error"
    },
    {
      "anonymous": false,
      "inputs": [
        {
          "indexed": true,
          "internalType": "uint256",
          "name": "farmId",
          "type": "uint256"
        },
        {
          "indexed": true,
          "internalType": "uint256",
          "name": "readingId",
          "type": "uint256"
        },
        {
          "indexed": false,
          "internalType": "uint256",
          "name": "amount",
          "type": "uint256"
        },
        {
          "indexed": false,
          "internalType": "string",
          "name": "source",
          "type": "string"
        },
        {
          "indexed": false,
          "internalType": "string",
          "name": "verificationHash",
          "type": "string"
        }
      ],
      "name": "CarbonAdded",
      "type": "event"
    },
    {
      "anonymous": false,
      "inputs": [
        {
          "indexed": true,
          "internalType": "uint256",
          "name": "farmId",
          "type": "uint256"
        },
        {
          "indexed": false,
          "internalType": "uint256",
          "name": "newDebt",
          "type": "uint256"
        },
        {
          "indexed": false,
          "internalType": "uint256",
          "name": "availableCarbon",
          "type": "uint256"
        }
      ],
      "name": "CarbonDebtUpdated",
      "type": "event"
    },
    {
      "anonymous": false,
      "inputs": [
        {
          "indexed": true,
          "internalType": "address",
          "name": "farmer",
          "type": "address"
        },
        {
          "indexed": true,
          "internalType": "uint256",
          "name": "farmId",
          "type": "uint256"
        },
        {
          "indexed": false,
          "internalType": "string",
          "name": "name",
          "type": "string"
        },
        {
          "indexed": false,
          "internalType": "uint256",
          "name": "area",
          "type": "uint256"
        },
        {
          "indexed": false,
          "internalType": "string",
          "name": "location",
          "type": "string"
        }
      ],
      "name": "FarmRegistered",
      "type": "event"
    },
    {
      "anonymous": false,
      "inputs": [
        {
          "indexed": true,
          "internalType": "bytes32",
          "name": "role",
          "type": "bytes32"
        },
        {
          "indexed": true,
          "internalType": "bytes32",
          "name": "previousAdminRole",
          "type": "bytes32"
        },
        {
          "indexed": true,
          "internalType": "bytes32",
          "name": "newAdminRole",
          "type": "bytes32"
        }
      ],
      "name": "RoleAdminChanged",
      "type": "event"
    },
    {
      "anonymous": false,
      "inputs": [
        {
          "indexed": true,
          "internalType": "bytes32",
          "name": "role",
          "type": "bytes32"
        },
        {
          "indexed": true,
          "internalType": "address",
          "name": "account",
          "type": "address"
        },
        {
          "indexed": true,
          "internalType": "address",
          "name": "sender",
          "type": "address"
        }
      ],
      "name": "RoleGranted",
      "type": "event"
    },
    {
      "anonymous": false,
      "inputs": [
        {
          "indexed": true,
          "internalType": "bytes32",
          "name": "role",
          "type": "bytes32"
        },
        {
          "indexed": true,
          "internalType": "address",
          "name": "account",
          "type": "address"
        },
        {
          "indexed": true,
          "internalType": "address",
          "name": "sender",
          "type": "address"
        }
      ],
      "name": "RoleRevoked",
      "type": "event"
    },
    {
      "inputs": [],
      "name": "DEFAULT_ADMIN_ROLE",
      "outputs": [
        {
          "internalType": "bytes32",
          "name": "",
          "type": "bytes32"
        }
      ],
      "stateMutability": "view",
      "type": "function"
    },
    {
      "inputs": [],
      "name": "MIN_CARBON_TO_MINT",
      "outputs": [
        {
          "internalType": "uint256",
          "name": "",
          "type": "uint256"
        }
      ],
      "stateMutability": "view",
      "type": "function"
    },
    {
      "inputs": [],
      "name": "ORACLE_ROLE",
      "outputs": [
        {
          "internalType": "bytes32",
          "name": "",
          "type": "bytes32"
        }
      ],
      "stateMutability": "view",
      "type": "function"
    },
    {
      "inputs": [],
      "name": "PRECISION",
      "outputs": [
        {
          "internalType": "uint256",
          "name": "",
          "type": "uint256"
        }
      ],
      "stateMutability": "view",
      "type": "function"
    },
    {
      "inputs": [],
      "name": "VERIFIER_ROLE",
      "outputs": [
        {
          "internalType": "bytes32",
          "name": "",
          "type": "bytes32"
        }
      ],
      "stateMutability": "view",
      "type": "function"
    },
    {
      "inputs": [
        {
          "internalType": "uint256",
          "name": "_farmId",
          "type": "uint256"
        }
      ],
      "name": "activateFarm",
      "outputs": [],
      "stateMutability": "nonpayable",
      "type": "function"
    },
    {
      "inputs": [
        {
          "internalType": "uint256",
          "name": "_farmId",
          "type": "uint256"
        },
        {
          "internalType": "uint256",
          "name": "_amount",
          "type": "uint256"
        },
        {
          "internalType": "string",
          "name": "_source",
          "type": "string"
        },
        {
          "internalType": "string",
          "name": "_verificationHash",
          "type": "string"
        }
      ],
      "name": "addCarbonReading",
      "outputs": [
        {
          "internalType": "uint256",
          "name": "",
          "type": "uint256"
        }
      ],
      "stateMutability": "nonpayable",
      "type": "function"
    },
    {
      "inputs": [
        {
          "internalType": "uint256",
          "name": "_farmId",
          "type": "uint256"
        },
        {
          "internalType": "uint256[]",
          "name": "_amounts",
          "type": "uint256[]"
        },
        {
          "internalType": "string[]",
          "name": "_sources",
          "type": "string[]"
        },
        {
          "internalType": "string[]",
          "name": "_verificationHashes",
          "type": "string[]"
        }
      ],
      "name": "addCarbonReadingsBatch",
      "outputs": [
        {
          "internalType": "uint256[]",
          "name": "",
          "type": "uint256[]"
        }
      ],
      "stateMutability": "nonpayable",
      "type": "function"
    },
    {
      "inputs": [
        {
          "internalType": "uint256",
          "name": "_farmId",
          "type": "uint256"
        },
        {
          "internalType": "uint256",
          "name": "_tokenId",
          "type": "uint256"
        }
      ],
      "name": "addCreditToFarm",
      "outputs": [],
      "stateMutability": "nonpayable",
      "type": "function"
    },
    {
      "inputs": [
        {
          "internalType": "address",
          "name": "",
          "type": "address"
        }
      ],
      "name": "addressToFarmId",
      "outputs": [
        {
          "internalType": "uint256",
          "name": "",
          "type": "uint256"
        }
      ],
      "stateMutability": "view",
      "type": "function"
    },
    {
      "inputs": [
        {
          "internalType": "uint256",
          "name": "_farmId",
          "type": "uint256"
        }
      ],
      "name": "deactivateFarm",
      "outputs": [],
      "stateMutability": "nonpayable",
      "type": "function"
    },
    {
      "inputs": [],
      "name": "farmCounter",
      "outputs": [
        {
          "internalType": "uint256",
          "name": "",
          "type": "uint256"
        }
      ],
      "stateMutability": "view",
      "type": "function"
    },
    {
      "inputs": [
        {
          "internalType": "uint256",
          "name": "",
          "type": "uint256"
        },
        {
          "internalType": "uint256",
          "name": "",
          "type": "uint256"
        }
      ],
      "name": "farmCredits",
      "outputs": [
        {
          "internalType": "uint256",
          "name": "",
          "type": "uint256"
        }
      ],
      "stateMutability": "view",
      "type": "function"
    },
    {
      "inputs": [
        {
          "internalType": "uint256",
          "name": "",
          "type": "uint256"
        },
        {
          "internalType": "uint256",
          "name": "",
          "type": "uint256"
        }
      ],
      "name": "farmReadings",
      "outputs": [
        {
          "internalType": "uint256",
          "name": "readingId",
          "type": "uint256"
        },
        {
          "internalType": "uint256",
          "name": "farmId",
          "type": "uint256"
        },
        {
          "internalType": "uint256",
          "name": "amount",
          "type": "uint256"
        },
        {
          "internalType": "string",
          "name": "source",
          "type": "string"
        },
        {
          "internalType": "string",
          "name": "verificationHash",
          "type": "string"
        },
        {
          "internalType": "uint256",
          "name": "timestamp",
          "type": "uint256"
        },
        {
          "internalType": "address",
          "name": "verifiedBy",
          "type": "address"
        }
      ],
      "stateMutability": "view",
      "type": "function"
    },
    {
      "inputs": [
        {
          "internalType": "uint256",
          "name": "",
          "type": "uint256"
        }
      ],
      "name": "farms",
      "outputs": [
        {
          "internalType": "uint256",
          "name": "farmId",
          "type": "uint256"
        },
        {
          "internalType": "address",
          "name": "farmer",
          "type": "address"
        },
        {
          "internalType": "string",
          "name": "name",
          "type": "string"
        },
        {
          "internalType": "uint256",
          "name": "area",
          "type": "uint256"
        },
        {
          "internalType": "string",
          "name": "location",
          "type": "string"
        },
        {
          "internalType": "string",
          "name": "soilType",
          "type": "string"
        },
        {
          "internalType": "uint256",
          "name": "totalCarbon",
          "type": "uint256"
        },
        {
          "internalType": "uint256",
          "name": "carbonDebt",
          "type": "uint256"
        },
        {
          "internalType": "uint256",
          "name": "lastReadingTimestamp",
          "type": "uint256"
        },
        {
          "internalType": "bool",
          "name": "isActive",
          "type": "bool"
        },
        {
          "internalType": "uint256",
          "name": "createdAt",
          "type": "uint256"
        }
      ],
      "stateMutability": "view",
      "type": "function"
    },
    {
      "inputs": [],
      "name": "getActiveFarmers",
      "outputs": [
        {
          "internalType": "address[]",
          "name": "",
          "type": "address[]"
        }
      ],
      "stateMutability": "view",
      "type": "function"
    },
    {
      "inputs": [
        {
          "internalType": "uint256",
          "name": "_farmId",
          "type": "uint256"
        }
      ],
      "name": "getAvailableCarbon",
      "outputs": [
        {
          "internalType": "uint256",
          "name": "",
          "type": "uint256"
        }
      ],
      "stateMutability": "view",
      "type": "function"
    },
    {
      "inputs": [
        {
          "internalType": "address",
          "name": "_farmer",
          "type": "address"
        }
      ],
      "name": "getFarmByAddress",
      "outputs": [
        {
          "components": [
            {
              "internalType": "uint256",
              "name": "farmId",
              "type": "uint256"
            },
            {
              "internalType": "address",
              "name": "farmer",
              "type": "address"
            },
            {
              "internalType": "string",
              "name": "name",
              "type": "string"
            },
            {
              "internalType": "uint256",
              "name": "area",
              "type": "uint256"
            },
            {
              "internalType": "string",
              "name": "location",
              "type": "string"
            },
            {
              "internalType": "string",
              "name": "soilType",
              "type": "string"
            },
            {
              "internalType": "uint256",
              "name": "totalCarbon",
              "type": "uint256"
            },
            {
              "internalType": "uint256",
              "name": "carbonDebt",
              "type": "uint256"
            },
            {
              "internalType": "uint256",
              "name": "lastReadingTimestamp",
              "type": "uint256"
            },
            {
              "internalType": "bool",
              "name": "isActive",
              "type": "bool"
            },
            {
              "internalType": "uint256",
              "name": "createdAt",
              "type": "uint256"
            }
          ],
          "internalType": "struct CarbonSealRegistry.Farm",
          "name": "",
          "type": "tuple"
        }
      ],
      "stateMutability": "view",
      "type": "function"
    },
    {
      "inputs": [
        {
          "internalType": "uint256",
          "name": "_farmId",
          "type": "uint256"
        }
      ],
      "name": "getFarmStats",
      "outputs": [
        {
          "internalType": "uint256",
          "name": "totalCarbon",
          "type": "uint256"
        },
        {
          "internalType": "uint256",
          "name": "carbonDebt",
          "type": "uint256"
        },
        {
          "internalType": "uint256",
          "name": "availableCarbon",
          "type": "uint256"
        },
        {
          "internalType": "uint256",
          "name": "readingCount",
          "type": "uint256"
        },
        {
          "internalType": "uint256",
          "name": "creditCount",
          "type": "uint256"
        },
        {
          "internalType": "uint256",
          "name": "lastUpdate",
          "type": "uint256"
        }
      ],
      "stateMutability": "view",
      "type": "function"
    },
    {
      "inputs": [
        {
          "internalType": "uint256",
          "name": "_farmId",
          "type": "uint256"
        },
        {
          "internalType": "uint256",
          "name": "_count",
          "type": "uint256"
        }
      ],
      "name": "getRecentReadings",
      "outputs": [
        {
          "components": [
            {
              "internalType": "uint256",
              "name": "readingId",
              "type": "uint256"
            },
            {
              "internalType": "uint256",
              "name": "farmId",
              "type": "uint256"
            },
            {
              "internalType": "uint256",
              "name": "amount",
              "type": "uint256"
            },
            {
              "internalType": "string",
              "name": "source",
              "type": "string"
            },
            {
              "internalType": "string",
              "name": "verificationHash",
              "type": "string"
            },
            {
              "internalType": "uint256",
              "name": "timestamp",
              "type": "uint256"
            },
            {
              "internalType": "address",
              "name": "verifiedBy",
              "type": "address"
            }
          ],
          "internalType": "struct CarbonSealRegistry.CarbonReading[]",
          "name": "",
          "type": "tuple[]"
        }
      ],
      "stateMutability": "view",
      "type": "function"
    },
    {
      "inputs": [
        {
          "internalType": "bytes32",
          "name": "role",
          "type": "bytes32"
        }
      ],
      "name": "getRoleAdmin",
      "outputs": [
        {
          "internalType": "bytes32",
          "name": "",
          "type": "bytes32"
        }
      ],
      "stateMutability": "view",
      "type": "function"
    },
    {
      "inputs": [],
      "name": "getTotalFarms",
      "outputs": [
        {
          "internalType": "uint256",
          "name": "",
          "type": "uint256"
        }
      ],
      "stateMutability": "view",
      "type": "function"
    },
    {
      "inputs": [
        {
          "internalType": "bytes32",
          "name": "role",
          "type": "bytes32"
        },
        {
          "internalType": "address",
          "name": "account",
          "type": "address"
        }
      ],
      "name": "grantRole",
      "outputs": [],
      "stateMutability": "nonpayable",
      "type": "function"
    },
    {
      "inputs": [
        {
          "internalType": "bytes32",
          "name": "role",
          "type": "bytes32"
        },
        {
          "internalType": "address",
          "name": "account",
          "type": "address"
        }
      ],
      "name": "hasRole",
      "outputs": [
        {
          "internalType": "bool",
          "name": "",
          "type": "bool"
        }
      ],
      "stateMutability": "view",
      "type": "function"
    },
    {
      "inputs": [],
      "name": "readingCounter",
      "outputs": [
        {
          "internalType": "uint256",
          "name": "",
          "type": "uint256"
        }
      ],
      "stateMutability": "view",
      "type": "function"
    },
    {
      "inputs": [
        {
          "internalType": "string",
          "name": "_name",
          "type": "string"
        },
        {
          "internalType": "uint256",
          "name": "_area",
          "type": "uint256"
        },
        {
          "internalType": "string",
          "name": "_location",
          "type": "string"
        },
        {
          "internalType": "string",
          "name": "_soilType",
          "type": "string"
        }
      ],
      "name": "registerFarm",
      "outputs": [
        {
          "internalType": "uint256",
          "name": "",
          "type": "uint256"
        }
      ],
      "stateMutability": "nonpayable",
      "type": "function"
    },
    {
      "inputs": [
        {
          "internalType": "bytes32",
          "name": "role",
          "type": "bytes32"
        },
        {
          "internalType": "address",
          "name": "callerConfirmation",
          "type": "address"
        }
      ],
      "name": "renounceRole",
      "outputs": [],
      "stateMutability": "nonpayable",
      "type": "function"
    },
    {
      "inputs": [
        {
          "internalType": "bytes32",
          "name": "role",
          "type": "bytes32"
        },
        {
          "internalType": "address",
          "name": "account",
          "type": "address"
        }
      ],
      "name": "revokeRole",
      "outputs": [],
      "stateMutability": "nonpayable",
      "type": "function"
    },
    {
      "inputs": [
        {
          "internalType": "address",
          "name": "_tokenContract",
          "type": "address"
        }
      ],
      "name": "setTokenContract",
      "outputs": [],
      "stateMutability": "nonpayable",
      "type": "function"
    },
    {
      "inputs": [
        {
          "internalType": "bytes4",
          "name": "interfaceId",
          "type": "bytes4"
        }
      ],
      "name": "supportsInterface",
      "outputs": [
        {
          "internalType": "bool",
          "name": "",
          "type": "bool"
        }
      ],
      "stateMutability": "view",
      "type": "function"
    },
    {
      "inputs": [],
      "name": "tokenContract",
      "outputs": [
        {
          "internalType": "contract ICarbonSealToken",
          "name": "",
          "type": "address"
        }
      ],
      "stateMutability": "view",
      "type": "function"
    },
    {
      "inputs": [
        {
          "internalType": "uint256",
          "name": "_farmId",
          "type": "uint256"
        },
        {
          "internalType": "uint256",
          "name": "_amount",
          "type": "uint256"
        }
      ],
      "name": "updateCarbonDebt",
      "outputs": [
        {
          "internalType": "bool",
          "name": "",
          "type": "bool"
        }
      ],
      "stateMutability": "nonpayable",
      "type": "function"
    }
  ],
  "bytecode": "0x60806040523480156200001157600080fd5b506200001f6000336200008a565b506200004c7f0ce23c3e399818cfee81a7ab0880f714e53d7672b08df0fa62f2843416e1ea09336200008a565b50620000797f68e79a7bf1e0bc45d0a330c573bc367f9cf464fd326078812f301165fbda4ef1336200008a565b506000600181905560025562000139565b6000828152602081815260408083206001600160a01b038516845290915281205460ff166200012f576000838152602081815260408083206001600160a01b03861684529091529020805460ff19166001179055620000e63390565b6001600160a01b0316826001600160a01b0316847f2f8788117e7eff1d82e926ec794901d17c78024a50270940304540a733656f0d60405160405180910390a450600162000133565b5060005b92915050565b612f0a80620001496000396000f3fe608060405234801561001057600080fd5b50600436106101f05760003560e01c80638219e3ce1161010f578063b6bbefa0116100a2578063e7705db611610071578063e7705db6146104b3578063e7a424a2146104da578063fde970471461051a578063fe2dffd61461053a57600080fd5b8063b6bbefa014610447578063bbcd5bbe1461046d578063cfbfea0814610480578063d547741f146104a057600080fd5b8063aaf22c01116100de578063aaf22c01146103fd578063aaf5eb6814610412578063acf4c05b14610421578063b09424da1461043457600080fd5b80638219e3ce1461039857806391d14854146103ab578063a217fddf146103e2578063a624cf2e146103ea57600080fd5b80633c42febc116101875780635ee485b7116101565780635ee485b7146103335780636af753741461033b5780636cb9dd9c1461035b5780637da470ea1461036e57600080fd5b80633c42febc146102d95780634a6a1be4146102ec57806355a373d6146102ff578063577cac271461032a57600080fd5b8063248a9ca3116101c3578063248a9ca31461026e5780632b7e4106146102915780632f2ff15d146102b157806336568abe146102c657600080fd5b806301ffc9a7146101f557806307e2cea51461021d5780630d8e57de146102525780631cb91c0114610265575b600080fd5b610208610203366004612565565b61054a565b60405190151581526020015b60405180910390f35b6102447f68e79a7bf1e0bc45d0a330c573bc367f9cf464fd326078812f301165fbda4ef181565b604051908152602001610214565b6102446102603660046125a7565b6105e3565b61024460025481565b61024461027c3660046125a7565b60009081526020819052604090206001015490565b6102a461029f3660046125dc565b61084b565b604051610214919061263d565b6102c46102bf366004612718565b610b58565b005b6102c46102d4366004612718565b610b83565b6102c46102e73660046125a7565b610bd4565b6102446102fa3660046127fb565b610c12565b600954610312906001600160a01b031681565b6040516001600160a01b039091168152602001610214565b61024460015481565b600154610244565b61034e610349366004612941565b610ef1565b6040516102149190612a1e565b610244610369366004612a62565b611330565b61038161037c3660046125a7565b611645565b6040516102149b9a99989796959493929190612a9e565b6102c46103a63660046125a7565b61183f565b6102086103b9366004612718565b6000918252602082815260408084206001600160a01b0393909316845291905290205460ff1690565b610244600081565b6102086103f8366004612b29565b611881565b610405611a1f565b6040516102149190612b4b565b610244670de0b6b3a764000081565b6102c461042f366004612b29565b611a30565b610244610442366004612b29565b611aad565b61045a610455366004612b29565b611ade565b6040516102149796959493929190612b8c565b6102c461047b3660046125dc565b611c57565b61049361048e366004612b29565b611c92565b6040516102149190612be7565b6102c46104ae366004612718565b611f41565b6102447f0ce23c3e399818cfee81a7ab0880f714e53d7672b08df0fa62f2843416e1ea0981565b6104ed6104e83660046125a7565b611f66565b604080519687526020870195909552938501929092526060840152608083015260a082015260c001610214565b6102446105283660046125dc565b60046020526000908152604090205481565b610244683635c9adc5dea0000081565b60007fffffffff0000000000000000000000000000000000000000000000000000000082167f7965db0b0000000000000000000000000000000000000000000000000000000014806105dd57507f01ffc9a7000000000000000000000000000000000000000000000000000000007fffffffff000000000000000000000000000000000000000000000000000000008316145b92915050565b60008181526003602090815260408083208151610160810183528154815260018201546001600160a01b0316938101939093526002810180548594938401919061062c90612cab565b80601f016020809104026020016040519081016040528092919081815260200182805461065890612cab565b80156106a55780601f1061067a576101008083540402835291602001916106a5565b820191906000526020600020905b81548152906001019060200180831161068857829003601f168201915b50505050508152602001600382015481526020016004820180546106c890612cab565b80601f01602080910402602001604051908101604052809291908181526020018280546106f490612cab565b80156107415780601f1061071657610100808354040283529160200191610741565b820191906000526020600020905b81548152906001019060200180831161072457829003601f168201915b5050505050815260200160058201805461075a90612cab565b80601f016020809104026020016040519081016040528092919081815260200182805461078690612cab565b80156107d35780601f106107a8576101008083540402835291602001916107d3565b820191906000526020600020905b8154815290600101906020018083116107b657829003601f168201915b5050509183525050600682015460208201526007820154604082015260088201546060820152600982015460ff1615156080820152600a9091015460a09091015260e081015160c08201519192501015610842578060e001518160c0015161083b9190612cfb565b9392505050565b50600092915050565b6108b36040518061016001604052806000815260200160006001600160a01b0316815260200160608152602001600081526020016060815260200160608152602001600081526020016000815260200160008152602001600015158152602001600081525090565b6001600160a01b0382166000908152600460205260409020548061091e5760405162461bcd60e51b815260206004820152601960248201527f436172626f6e5365616c3a204e6f206661726d20666f756e640000000000000060448201526064015b60405180910390fd5b6000818152600360209081526040918290208251610160810184528154815260018201546001600160a01b031692810192909252600281018054929391929184019161096990612cab565b80601f016020809104026020016040519081016040528092919081815260200182805461099590612cab565b80156109e25780601f106109b7576101008083540402835291602001916109e2565b820191906000526020600020905b8154815290600101906020018083116109c557829003601f168201915b5050505050815260200160038201548152602001600482018054610a0590612cab565b80601f0160208091040260200160405190810160405280929190818152602001828054610a3190612cab565b8015610a7e5780601f10610a5357610100808354040283529160200191610a7e565b820191906000526020600020905b815481529060010190602001808311610a6157829003601f168201915b50505050508152602001600582018054610a9790612cab565b80601f0160208091040260200160405190810160405280929190818152602001828054610ac390612cab565b8015610b105780601f10610ae557610100808354040283529160200191610b10565b820191906000526020600020905b815481529060010190602001808311610af357829003601f168201915b5050509183525050600682015460208201526007820154604082015260088201546060820152600982015460ff1615156080820152600a9091015460a0909101529392505050565b600082815260208190526040902060010154610b73816121ee565b610b7d83836121fb565b50505050565b6001600160a01b0381163314610bc5576040517f6697b23200000000000000000000000000000000000000000000000000000000815260040160405180910390fd5b610bcf82826122a5565b505050565b6000610bdf816121ee565b600082815260036020526040902060098101805460ff1916905560010154610bcf906007906001600160a01b0316612328565b3360009081526004602052604081205415610c6f5760405162461bcd60e51b815260206004820152601e60248201527f436172626f6e5365616c3a20416c7265616479207265676973746572656400006044820152606401610915565b60008411610ce55760405162461bcd60e51b815260206004820152602160248201527f436172626f6e5365616c3a2041726561206d75737420626520706f736974697660448201527f65000000000000000000000000000000000000000000000000000000000000006064820152608401610915565b6000855111610d365760405162461bcd60e51b815260206004820152601960248201527f436172626f6e5365616c3a204e616d65207265717569726564000000000000006044820152606401610915565b60018054906000610d4683612d0e565b90915550506040805161016081018252600180548083523360208085019182528486018b8152606086018b9052608086018a905260a08601899052600060c0870181905260e087018190524261010088018190526101208801879052610140880152938452600390915294909120835181559051918101805473ffffffffffffffffffffffffffffffffffffffff19166001600160a01b03909316929092179091559151909182916002820190610dfd9082612d75565b506060820151600382015560808201516004820190610e1c9082612d75565b5060a08201516005820190610e319082612d75565b5060c0820151600682015560e0820151600780830191909155610100830151600883015561012083015160098301805460ff191691151591909117905561014090920151600a9091015560015433600081815260046020526040902091909155610e9b919061233d565b50600154336001600160a01b03167f919bcd31e54b123779db7b85e1b5838d042d8e6bfc079fe8b59ec02719849eeb888888604051610edc93929190612e35565b60405180910390a35050600154949350505050565b600084815260036020526040902060090154606090859060ff16610f575760405162461bcd60e51b815260206004820152601b60248201527f436172626f6e5365616c3a204661726d206e6f742061637469766500000000006044820152606401610915565b6000868152600360205260409020600101546001600160a01b0316331480610fad57503360009081527fa629f6981c2f6895a67dc766e8e03ff72d04a413d0d8773a3ca56e9e474032c1602052604090205460ff165b610ff95760405162461bcd60e51b815260206004820152601a60248201527f436172626f6e5365616c3a204e6f7420617574686f72697a65640000000000006044820152606401610915565b8351855114801561100b575082518551145b61107d5760405162461bcd60e51b815260206004820152602160248201527f436172626f6e5365616c3a204172726179206c656e677468206d69736d61746360448201527f68000000000000000000000000000000000000000000000000000000000000006064820152608401610915565b6000855167ffffffffffffffff81111561109957611099612744565b6040519080825280602002602001820160405280156110c2578160200160208202803683370190505b5090506000805b87518110156112e85760008882815181106110e6576110e6612e6a565b6020026020010151116111475760405162461bcd60e51b815260206004820152602360248201527f436172626f6e5365616c3a20416d6f756e74206d75737420626520706f73697460448201526269766560e81b6064820152608401610915565b6002805490600061115783612d0e565b919050555060006040518060e0016040528060025481526020018b81526020018a848151811061118957611189612e6a565b602002602001015181526020018984815181106111a8576111a8612e6a565b602002602001015181526020018884815181106111c7576111c7612e6a565b602090810291909101810151825242828201523360409283015260008d81526005825282812080546001818101835591835291839020855160079093020191825591840151918101919091559082015160028201556060820151919250829160038201906112359082612d75565b506080820151600482019061124a9082612d75565b5060a0820151600582015560c0909101516006909101805473ffffffffffffffffffffffffffffffffffffffff19166001600160a01b0390921691909117905560025484518590849081106112a1576112a1612e6a565b6020026020010181815250508882815181106112bf576112bf612e6a565b6020026020010151836112d29190612e80565b92505080806112e090612d0e565b9150506110c9565b506000888152600360205260408120600601805483929061130a908490612e80565b909155505050600087815260036020526040902042600890910155915050949350505050565b600084815260036020526040812060090154859060ff166113935760405162461bcd60e51b815260206004820152601b60248201527f436172626f6e5365616c3a204661726d206e6f742061637469766500000000006044820152606401610915565b6000868152600360205260409020600101546001600160a01b03163314806113e957503360009081527fa629f6981c2f6895a67dc766e8e03ff72d04a413d0d8773a3ca56e9e474032c1602052604090205460ff165b8061142257503360009081527f1da0b5176dfe03406af5a6eed66ca01dda9b45ac4da671c3fa379cb93717ef81602052604090205460ff165b61146e5760405162461bcd60e51b815260206004820152601a60248201527f436172626f6e5365616c3a204e6f7420617574686f72697a65640000000000006044820152606401610915565b600085116114ca5760405162461bcd60e51b815260206004820152602360248201527f436172626f6e5365616c3a20416d6f756e74206d75737420626520706f73697460448201526269766560e81b6064820152608401610915565b600280549060006114da83612d0e565b90915550506040805160e08101825260028054825260208083018a81528385018a8152606085018a8152608086018a90524260a08701523360c087015260008d81526005855296872080546001818101835591895294909720865160079095020193845591519583019590955593519181019190915591519091829160038201906115659082612d75565b506080820151600482019061157a9082612d75565b5060a0820151600582015560c0909101516006918201805473ffffffffffffffffffffffffffffffffffffffff19166001600160a01b03909216919091179055600088815260036020526040812090910180548892906115db908490612e80565b90915550506000878152600360205260409081902042600890910155600254905188907fc89c68410ac058dd8fed6550a79614cc8fcd9b7b2c08cf7b4756cfe6be54593f9061162f908a908a908a90612e93565b60405180910390a3505060025495945050505050565b60036020526000908152604090208054600182015460028301805492936001600160a01b039092169261167790612cab565b80601f01602080910402602001604051908101604052809291908181526020018280546116a390612cab565b80156116f05780601f106116c5576101008083540402835291602001916116f0565b820191906000526020600020905b8154815290600101906020018083116116d357829003601f168201915b50505050509080600301549080600401805461170b90612cab565b80601f016020809104026020016040519081016040528092919081815260200182805461173790612cab565b80156117845780601f1061175957610100808354040283529160200191611784565b820191906000526020600020905b81548152906001019060200180831161176757829003601f168201915b50505050509080600501805461179990612cab565b80601f01602080910402602001604051908101604052809291908181526020018280546117c590612cab565b80156118125780601f106117e757610100808354040283529160200191611812565b820191906000526020600020905b8154815290600101906020018083116117f557829003601f168201915b505050506006830154600784015460088501546009860154600a90960154949592949193509160ff16908b565b600061184a816121ee565b600082815260036020526040902060098101805460ff191660019081179091550154610bcf906007906001600160a01b031661233d565b6009546000906001600160a01b031633146118de5760405162461bcd60e51b815260206004820152601f60248201527f436172626f6e5365616c3a204f6e6c7920746f6b656e20636f6e7472616374006044820152606401610915565b6000821161193a5760405162461bcd60e51b815260206004820152602360248201527f436172626f6e5365616c3a20416d6f756e74206d75737420626520706f73697460448201526269766560e81b6064820152608401610915565b6000611945846105e3565b9050828110156119975760405162461bcd60e51b815260206004820152601f60248201527f436172626f6e5365616c3a20496e73756666696369656e7420636172626f6e006044820152606401610915565b600084815260036020526040812060070180548592906119b8908490612e80565b909155505060008481526003602052604090206007015484907f09d6f0793923f62e1894f0295d099599c4d713cb761a6b59e42a7c86be8d89a6906119fd8685612cfb565b6040805192835260208301919091520160405180910390a25060019392505050565b6060611a2b6007612352565b905090565b6009546001600160a01b03163314611a8a5760405162461bcd60e51b815260206004820152601f60248201527f436172626f6e5365616c3a204f6e6c7920746f6b656e20636f6e7472616374006044820152606401610915565b600091825260066020908152604083208054600181018255908452922090910155565b60066020528160005260406000208181548110611ac957600080fd5b90600052602060002001600091509150505481565b60056020528160005260406000208181548110611afa57600080fd5b906000526020600020906007020160009150915050806000015490806001015490806002015490806003018054611b3090612cab565b80601f0160208091040260200160405190810160405280929190818152602001828054611b5c90612cab565b8015611ba95780601f10611b7e57610100808354040283529160200191611ba9565b820191906000526020600020905b815481529060010190602001808311611b8c57829003601f168201915b505050505090806004018054611bbe90612cab565b80601f0160208091040260200160405190810160405280929190818152602001828054611bea90612cab565b8015611c375780601f10611c0c57610100808354040283529160200191611c37565b820191906000526020600020905b815481529060010190602001808311611c1a57829003601f168201915b5050505060058301546006909301549192916001600160a01b0316905087565b6000611c62816121ee565b506009805473ffffffffffffffffffffffffffffffffffffffff19166001600160a01b0392909216919091179055565b600082815260056020526040812054606091818411611cb15783611cb3565b815b905060008167ffffffffffffffff811115611cd057611cd0612744565b604051908082528060200260200182016040528015611d4a57816020015b611d376040518060e0016040528060008152602001600081526020016000815260200160608152602001606081526020016000815260200160006001600160a01b031681525090565b815260200190600190039081611cee5790505b50905060005b82811015611f3757600087815260056020526040902081611d72600187612cfb565b611d7c9190612cfb565b81548110611d8c57611d8c612e6a565b90600052602060002090600702016040518060e0016040529081600082015481526020016001820154815260200160028201548152602001600382018054611dd390612cab565b80601f0160208091040260200160405190810160405280929190818152602001828054611dff90612cab565b8015611e4c5780601f10611e2157610100808354040283529160200191611e4c565b820191906000526020600020905b815481529060010190602001808311611e2f57829003601f168201915b50505050508152602001600482018054611e6590612cab565b80601f0160208091040260200160405190810160405280929190818152602001828054611e9190612cab565b8015611ede5780601f10611eb357610100808354040283529160200191611ede565b820191906000526020600020905b815481529060010190602001808311611ec157829003601f168201915b5050509183525050600582015460208201526006909101546001600160a01b03166040909101528251839083908110611f1957611f19612e6a565b60200260200101819052508080611f2f90612d0e565b915050611d50565b5095945050505050565b600082815260208190526040902060010154611f5c816121ee565b610b7d83836122a5565b60008181526003602090815260408083208151610160810183528154815260018201546001600160a01b0316938101939093526002810180548594859485948594859485949384019190611fb990612cab565b80601f0160208091040260200160405190810160405280929190818152602001828054611fe590612cab565b80156120325780601f1061200757610100808354040283529160200191612032565b820191906000526020600020905b81548152906001019060200180831161201557829003601f168201915b505050505081526020016003820154815260200160048201805461205590612cab565b80601f016020809104026020016040519081016040528092919081815260200182805461208190612cab565b80156120ce5780601f106120a3576101008083540402835291602001916120ce565b820191906000526020600020905b8154815290600101906020018083116120b157829003601f168201915b505050505081526020016005820180546120e790612cab565b80601f016020809104026020016040519081016040528092919081815260200182805461211390612cab565b80156121605780601f1061213557610100808354040283529160200191612160565b820191906000526020600020905b81548152906001019060200180831161214357829003601f168201915b5050509183525050600682015460208201526007820154604082015260088201546060820152600982015460ff1615156080820152600a9091015460a09091015260c081015160e0820151919250906121b88a6105e3565b60009a8b52600560209081526040808d20546006909252909b20546101009490940151929b919a90995097509195509350915050565b6121f8813361235f565b50565b6000828152602081815260408083206001600160a01b038516845290915281205460ff1661229d576000838152602081815260408083206001600160a01b03861684529091529020805460ff191660011790556122553390565b6001600160a01b0316826001600160a01b0316847f2f8788117e7eff1d82e926ec794901d17c78024a50270940304540a733656f0d60405160405180910390a45060016105dd565b5060006105dd565b6000828152602081815260408083206001600160a01b038516845290915281205460ff161561229d576000838152602081815260408083206001600160a01b0386168085529252808320805460ff1916905551339286917ff6391f5c32d9c69d2a47ea670b442974b53935d1edc7fd64eb21e047a839171b9190a45060016105dd565b600061083b836001600160a01b0384166123cf565b600061083b836001600160a01b0384166124c2565b6060600061083b83612509565b6000828152602081815260408083206001600160a01b038516845290915290205460ff166123cb576040517fe2517d3f0000000000000000000000000000000000000000000000000000000081526001600160a01b038216600482015260248101839052604401610915565b5050565b600081815260018301602052604081205480156124b85760006123f3600183612cfb565b855490915060009061240790600190612cfb565b905080821461246c57600086600001828154811061242757612427612e6a565b906000526020600020015490508087600001848154811061244a5761244a612e6a565b6000918252602080832090910192909255918252600188019052604090208390555b855486908061247d5761247d612ebe565b6001900381819060005260206000200160009055905585600101600086815260200190815260200160002060009055600193505050506105dd565b60009150506105dd565b600081815260018301602052604081205461229d575081546001818101845560008481526020808220909301849055845484825282860190935260409020919091556105dd565b60608160000180548060200260200160405190810160405280929190818152602001828054801561255957602002820191906000526020600020905b815481526020019060010190808311612545575b50505050509050919050565b60006020828403121561257757600080fd5b81357fffffffff000000000000000000000000000000000000000000000000000000008116811461083b57600080fd5b6000602082840312156125b957600080fd5b5035919050565b80356001600160a01b03811681146125d757600080fd5b919050565b6000602082840312156125ee57600080fd5b61083b826125c0565b6000815180845260005b8181101561261d57602081850181015186830182015201612601565b506000602082860101526020601f19601f83011685010191505092915050565b60208152815160208201526000602083015161266460408401826001600160a01b03169052565b5060408301516101608060608501526126816101808501836125f7565b9150606085015160808501526080850151601f19808685030160a08701526126a984836125f7565b935060a08701519150808685030160c0870152506126c783826125f7565b92505060c085015160e085015260e08501516101008181870152808701519150506101208181870152808701519150506101406127078187018315159052565b959095015193019290925250919050565b6000806040838503121561272b57600080fd5b8235915061273b602084016125c0565b90509250929050565b634e487b7160e01b600052604160045260246000fd5b604051601f8201601f1916810167ffffffffffffffff8111828210171561278357612783612744565b604052919050565b600082601f83011261279c57600080fd5b813567ffffffffffffffff8111156127b6576127b6612744565b6127c9601f8201601f191660200161275a565b8181528460208386010111156127de57600080fd5b816020850160208301376000918101602001919091529392505050565b6000806000806080858703121561281157600080fd5b843567ffffffffffffffff8082111561282957600080fd5b6128358883890161278b565b955060208701359450604087013591508082111561285257600080fd5b61285e8883890161278b565b9350606087013591508082111561287457600080fd5b506128818782880161278b565b91505092959194509250565b600067ffffffffffffffff8211156128a7576128a7612744565b5060051b60200190565b600082601f8301126128c257600080fd5b813560206128d76128d28361288d565b61275a565b82815260059290921b840181019181810190868411156128f657600080fd5b8286015b8481101561293657803567ffffffffffffffff81111561291a5760008081fd5b6129288986838b010161278b565b8452509183019183016128fa565b509695505050505050565b6000806000806080858703121561295757600080fd5b8435935060208086013567ffffffffffffffff8082111561297757600080fd5b818801915088601f83011261298b57600080fd5b81356129996128d28261288d565b81815260059190911b8301840190848101908b8311156129b857600080fd5b938501935b828510156129d6578435825293850193908501906129bd565b9750505060408801359250808311156129ee57600080fd5b6129fa89848a016128b1565b94506060880135925080831115612a1057600080fd5b5050612881878288016128b1565b6020808252825182820181905260009190848201906040850190845b81811015612a5657835183529284019291840191600101612a3a565b50909695505050505050565b60008060008060808587031215612a7857600080fd5b8435935060208501359250604085013567ffffffffffffffff8082111561285257600080fd5b60006101608d83526001600160a01b038d166020840152806040840152612ac78184018d6125f7565b90508a60608401528281036080840152612ae1818b6125f7565b905082810360a0840152612af5818a6125f7565b60c0840198909852505060e08101949094526101008401929092521515610120830152610140909101529695505050505050565b60008060408385031215612b3c57600080fd5b50508035926020909101359150565b6020808252825182820181905260009190848201906040850190845b81811015612a565783516001600160a01b031683529284019291840191600101612b67565b87815286602082015285604082015260e060608201526000612bb160e08301876125f7565b8281036080840152612bc381876125f7565b9150508360a08301526001600160a01b03831660c083015298975050505050505050565b60006020808301818452808551808352604092508286019150828160051b87010184880160005b83811015612c9d57603f19898403018552815160e081518552888201518986015287820151888601526060808301518282880152612c4e838801826125f7565b9250505060808083015186830382880152612c6983826125f7565b60a0858101519089015260c0948501516001600160a01b031694909701939093525050509386019390860190600101612c0e565b509098975050505050505050565b600181811c90821680612cbf57607f821691505b602082108103612cdf57634e487b7160e01b600052602260045260246000fd5b50919050565b634e487b7160e01b600052601160045260246000fd5b818103818111156105dd576105dd612ce5565b600060018201612d2057612d20612ce5565b5060010190565b601f821115610bcf57600081815260208120601f850160051c81016020861015612d4e5750805b601f850160051c820191505b81811015612d6d57828155600101612d5a565b505050505050565b815167ffffffffffffffff811115612d8f57612d8f612744565b612da381612d9d8454612cab565b84612d27565b602080601f831160018114612dd85760008415612dc05750858301515b600019600386901b1c1916600185901b178555612d6d565b600085815260208120601f198616915b82811015612e0757888601518255948401946001909101908401612de8565b5085821015612e255787850151600019600388901b60f8161c191681555b5050505050600190811b01905550565b606081526000612e4860608301866125f7565b8460208401528281036040840152612e6081856125f7565b9695505050505050565b634e487b7160e01b600052603260045260246000fd5b808201808211156105dd576105dd612ce5565b838152606060208201526000612eac60608301856125f7565b8281036040840152612e6081856125f7565b634e487b7160e01b600052603160045260246000fdfea2646970667358221220fb2e86be2ea7881d190461be30080f616c1e2aa5ec25f5463209bd45ec3bc22e64736f6c63430008140033",
  "linkReferences": {},
  "deployedLinkReferences": {}
}